Archive member included to satisfy reference by file (symbol)

c:/rt-threadstudio/repo/extract/toolchain_support_packages/arm/gnu_tools_for_arm_embedded_processors/10.2.1/bin/../lib/gcc/arm-none-eabi/10.2.1/../../../../arm-none-eabi/lib/thumb/v8-m.main+fp/hard\libm.a(lib_a-w_pow.o)
                              ./packages/isl29035-latest/isl29035.o (pow)
c:/rt-threadstudio/repo/extract/toolchain_support_packages/arm/gnu_tools_for_arm_embedded_processors/10.2.1/bin/../lib/gcc/arm-none-eabi/10.2.1/../../../../arm-none-eabi/lib/thumb/v8-m.main+fp/hard\libm.a(lib_a-e_pow.o)
                              c:/rt-threadstudio/repo/extract/toolchain_support_packages/arm/gnu_tools_for_arm_embedded_processors/10.2.1/bin/../lib/gcc/arm-none-eabi/10.2.1/../../../../arm-none-eabi/lib/thumb/v8-m.main+fp/hard\libm.a(lib_a-w_pow.o) (__ieee754_pow)
c:/rt-threadstudio/repo/extract/toolchain_support_packages/arm/gnu_tools_for_arm_embedded_processors/10.2.1/bin/../lib/gcc/arm-none-eabi/10.2.1/../../../../arm-none-eabi/lib/thumb/v8-m.main+fp/hard\libm.a(lib_a-e_sqrt.o)
                              c:/rt-threadstudio/repo/extract/toolchain_support_packages/arm/gnu_tools_for_arm_embedded_processors/10.2.1/bin/../lib/gcc/arm-none-eabi/10.2.1/../../../../arm-none-eabi/lib/thumb/v8-m.main+fp/hard\libm.a(lib_a-e_pow.o) (__ieee754_sqrt)
c:/rt-threadstudio/repo/extract/toolchain_support_packages/arm/gnu_tools_for_arm_embedded_processors/10.2.1/bin/../lib/gcc/arm-none-eabi/10.2.1/../../../../arm-none-eabi/lib/thumb/v8-m.main+fp/hard\libm.a(lib_a-s_fabs.o)
                              c:/rt-threadstudio/repo/extract/toolchain_support_packages/arm/gnu_tools_for_arm_embedded_processors/10.2.1/bin/../lib/gcc/arm-none-eabi/10.2.1/../../../../arm-none-eabi/lib/thumb/v8-m.main+fp/hard\libm.a(lib_a-e_pow.o) (fabs)
c:/rt-threadstudio/repo/extract/toolchain_support_packages/arm/gnu_tools_for_arm_embedded_processors/10.2.1/bin/../lib/gcc/arm-none-eabi/10.2.1/../../../../arm-none-eabi/lib/thumb/v8-m.main+fp/hard\libm.a(lib_a-s_finite.o)
                              c:/rt-threadstudio/repo/extract/toolchain_support_packages/arm/gnu_tools_for_arm_embedded_processors/10.2.1/bin/../lib/gcc/arm-none-eabi/10.2.1/../../../../arm-none-eabi/lib/thumb/v8-m.main+fp/hard\libm.a(lib_a-w_pow.o) (finite)
c:/rt-threadstudio/repo/extract/toolchain_support_packages/arm/gnu_tools_for_arm_embedded_processors/10.2.1/bin/../lib/gcc/arm-none-eabi/10.2.1/../../../../arm-none-eabi/lib/thumb/v8-m.main+fp/hard\libm.a(lib_a-s_lib_ver.o)
                              c:/rt-threadstudio/repo/extract/toolchain_support_packages/arm/gnu_tools_for_arm_embedded_processors/10.2.1/bin/../lib/gcc/arm-none-eabi/10.2.1/../../../../arm-none-eabi/lib/thumb/v8-m.main+fp/hard\libm.a(lib_a-w_pow.o) (__fdlib_version)
c:/rt-threadstudio/repo/extract/toolchain_support_packages/arm/gnu_tools_for_arm_embedded_processors/10.2.1/bin/../lib/gcc/arm-none-eabi/10.2.1/../../../../arm-none-eabi/lib/thumb/v8-m.main+fp/hard\libm.a(lib_a-s_nan.o)
                              c:/rt-threadstudio/repo/extract/toolchain_support_packages/arm/gnu_tools_for_arm_embedded_processors/10.2.1/bin/../lib/gcc/arm-none-eabi/10.2.1/../../../../arm-none-eabi/lib/thumb/v8-m.main+fp/hard\libm.a(lib_a-e_pow.o) (nan)
c:/rt-threadstudio/repo/extract/toolchain_support_packages/arm/gnu_tools_for_arm_embedded_processors/10.2.1/bin/../lib/gcc/arm-none-eabi/10.2.1/../../../../arm-none-eabi/lib/thumb/v8-m.main+fp/hard\libm.a(lib_a-s_rint.o)
                              c:/rt-threadstudio/repo/extract/toolchain_support_packages/arm/gnu_tools_for_arm_embedded_processors/10.2.1/bin/../lib/gcc/arm-none-eabi/10.2.1/../../../../arm-none-eabi/lib/thumb/v8-m.main+fp/hard\libm.a(lib_a-w_pow.o) (rint)
c:/rt-threadstudio/repo/extract/toolchain_support_packages/arm/gnu_tools_for_arm_embedded_processors/10.2.1/bin/../lib/gcc/arm-none-eabi/10.2.1/../../../../arm-none-eabi/lib/thumb/v8-m.main+fp/hard\libm.a(lib_a-s_scalbn.o)
                              c:/rt-threadstudio/repo/extract/toolchain_support_packages/arm/gnu_tools_for_arm_embedded_processors/10.2.1/bin/../lib/gcc/arm-none-eabi/10.2.1/../../../../arm-none-eabi/lib/thumb/v8-m.main+fp/hard\libm.a(lib_a-e_pow.o) (scalbn)
c:/rt-threadstudio/repo/extract/toolchain_support_packages/arm/gnu_tools_for_arm_embedded_processors/10.2.1/bin/../lib/gcc/arm-none-eabi/10.2.1/../../../../arm-none-eabi/lib/thumb/v8-m.main+fp/hard\libc.a(lib_a-atoi.o)
                              ./rt-thread/components/net/netdev/src/netdev.o (atoi)
c:/rt-threadstudio/repo/extract/toolchain_support_packages/arm/gnu_tools_for_arm_embedded_processors/10.2.1/bin/../lib/gcc/arm-none-eabi/10.2.1/../../../../arm-none-eabi/lib/thumb/v8-m.main+fp/hard\libc.a(lib_a-ctype_.o)
                              ./rt-thread/components/net/at/at_socket/at_socket.o (_ctype_)
c:/rt-threadstudio/repo/extract/toolchain_support_packages/arm/gnu_tools_for_arm_embedded_processors/10.2.1/bin/../lib/gcc/arm-none-eabi/10.2.1/../../../../arm-none-eabi/lib/thumb/v8-m.main+fp/hard\libc.a(lib_a-exit.o)
                              c:/rt-threadstudio/repo/extract/toolchain_support_packages/arm/gnu_tools_for_arm_embedded_processors/10.2.1/bin/../lib/gcc/arm-none-eabi/10.2.1/../../../../arm-none-eabi/lib/thumb/v8-m.main+fp/hard/crt0.o (exit)
c:/rt-threadstudio/repo/extract/toolchain_support_packages/arm/gnu_tools_for_arm_embedded_processors/10.2.1/bin/../lib/gcc/arm-none-eabi/10.2.1/../../../../arm-none-eabi/lib/thumb/v8-m.main+fp/hard\libc.a(lib_a-impure.o)
                              c:/rt-threadstudio/repo/extract/toolchain_support_packages/arm/gnu_tools_for_arm_embedded_processors/10.2.1/bin/../lib/gcc/arm-none-eabi/10.2.1/../../../../arm-none-eabi/lib/thumb/v8-m.main+fp/hard\libc.a(lib_a-exit.o) (_global_impure_ptr)
c:/rt-threadstudio/repo/extract/toolchain_support_packages/arm/gnu_tools_for_arm_embedded_processors/10.2.1/bin/../lib/gcc/arm-none-eabi/10.2.1/../../../../arm-none-eabi/lib/thumb/v8-m.main+fp/hard\libc.a(lib_a-malloc.o)
                              ./packages/cJSON-latest/cJSON.o (malloc)
c:/rt-threadstudio/repo/extract/toolchain_support_packages/arm/gnu_tools_for_arm_embedded_processors/10.2.1/bin/../lib/gcc/arm-none-eabi/10.2.1/../../../../arm-none-eabi/lib/thumb/v8-m.main+fp/hard\libc.a(lib_a-memcmp.o)
                              ./rt-thread/components/finsh/shell.o (memcmp)
c:/rt-threadstudio/repo/extract/toolchain_support_packages/arm/gnu_tools_for_arm_embedded_processors/10.2.1/bin/../lib/gcc/arm-none-eabi/10.2.1/../../../../arm-none-eabi/lib/thumb/v8-m.main+fp/hard\libc.a(lib_a-memcpy.o)
                              ./ra/fsp/src/r_sci_uart/r_sci_uart.o (memcpy)
c:/rt-threadstudio/repo/extract/toolchain_support_packages/arm/gnu_tools_for_arm_embedded_processors/10.2.1/bin/../lib/gcc/arm-none-eabi/10.2.1/../../../../arm-none-eabi/lib/thumb/v8-m.main+fp/hard\libc.a(lib_a-memset.o)
                              c:/rt-threadstudio/repo/extract/toolchain_support_packages/arm/gnu_tools_for_arm_embedded_processors/10.2.1/bin/../lib/gcc/arm-none-eabi/10.2.1/../../../../arm-none-eabi/lib/thumb/v8-m.main+fp/hard/crt0.o (memset)
c:/rt-threadstudio/repo/extract/toolchain_support_packages/arm/gnu_tools_for_arm_embedded_processors/10.2.1/bin/../lib/gcc/arm-none-eabi/10.2.1/../../../../arm-none-eabi/lib/thumb/v8-m.main+fp/hard\libc.a(lib_a-rand.o)
                              ./packages/ali-iotkit-v3.0.1/ports/rtthread/HAL_OS_rtthread.o (srand)
c:/rt-threadstudio/repo/extract/toolchain_support_packages/arm/gnu_tools_for_arm_embedded_processors/10.2.1/bin/../lib/gcc/arm-none-eabi/10.2.1/../../../../arm-none-eabi/lib/thumb/v8-m.main+fp/hard\libc.a(lib_a-realloc.o)
                              ./packages/cJSON-latest/cJSON.o (realloc)
c:/rt-threadstudio/repo/extract/toolchain_support_packages/arm/gnu_tools_for_arm_embedded_processors/10.2.1/bin/../lib/gcc/arm-none-eabi/10.2.1/../../../../arm-none-eabi/lib/thumb/v8-m.main+fp/hard\libc.a(lib_a-sprintf.o)
                              ./packages/cJSON-latest/cJSON.o (sprintf)
c:/rt-threadstudio/repo/extract/toolchain_support_packages/arm/gnu_tools_for_arm_embedded_processors/10.2.1/bin/../lib/gcc/arm-none-eabi/10.2.1/../../../../arm-none-eabi/lib/thumb/v8-m.main+fp/hard\libc.a(lib_a-sscanf.o)
                              ./packages/cJSON-latest/cJSON.o (sscanf)
c:/rt-threadstudio/repo/extract/toolchain_support_packages/arm/gnu_tools_for_arm_embedded_processors/10.2.1/bin/../lib/gcc/arm-none-eabi/10.2.1/../../../../arm-none-eabi/lib/thumb/v8-m.main+fp/hard\libc.a(lib_a-stdio.o)
                              c:/rt-threadstudio/repo/extract/toolchain_support_packages/arm/gnu_tools_for_arm_embedded_processors/10.2.1/bin/../lib/gcc/arm-none-eabi/10.2.1/../../../../arm-none-eabi/lib/thumb/v8-m.main+fp/hard\libc.a(lib_a-sscanf.o) (__seofread)
c:/rt-threadstudio/repo/extract/toolchain_support_packages/arm/gnu_tools_for_arm_embedded_processors/10.2.1/bin/../lib/gcc/arm-none-eabi/10.2.1/../../../../arm-none-eabi/lib/thumb/v8-m.main+fp/hard\libc.a(lib_a-strcat.o)
                              ./rt-thread/components/drivers/sensors/sensor.o (strcat)
c:/rt-threadstudio/repo/extract/toolchain_support_packages/arm/gnu_tools_for_arm_embedded_processors/10.2.1/bin/../lib/gcc/arm-none-eabi/10.2.1/../../../../arm-none-eabi/lib/thumb/v8-m.main+fp/hard\libc.a(lib_a-strchr.o)
                              ./rt-thread/components/net/at/at_socket/at_socket.o (strchr)
c:/rt-threadstudio/repo/extract/toolchain_support_packages/arm/gnu_tools_for_arm_embedded_processors/10.2.1/bin/../lib/gcc/arm-none-eabi/10.2.1/../../../../arm-none-eabi/lib/thumb/v8-m.main+fp/hard\libc.a(lib_a-strcmp.o)
                              ./rt-thread/components/net/at/src/at_cli.o (strcmp)
c:/rt-threadstudio/repo/extract/toolchain_support_packages/arm/gnu_tools_for_arm_embedded_processors/10.2.1/bin/../lib/gcc/arm-none-eabi/10.2.1/../../../../arm-none-eabi/lib/thumb/v8-m.main+fp/hard\libc.a(lib_a-strcpy.o)
                              ./rt-thread/components/finsh/msh.o (strcpy)
c:/rt-threadstudio/repo/extract/toolchain_support_packages/arm/gnu_tools_for_arm_embedded_processors/10.2.1/bin/../lib/gcc/arm-none-eabi/10.2.1/../../../../arm-none-eabi/lib/thumb/v8-m.main+fp/hard\libc.a(lib_a-strlen-stub.o)
                              ./src/aliyun_mqtt.o (strlen)
c:/rt-threadstudio/repo/extract/toolchain_support_packages/arm/gnu_tools_for_arm_embedded_processors/10.2.1/bin/../lib/gcc/arm-none-eabi/10.2.1/../../../../arm-none-eabi/lib/thumb/v8-m.main+fp/hard\libc.a(lib_a-strncmp.o)
                              ./rt-thread/components/finsh/cmd.o (strncmp)
c:/rt-threadstudio/repo/extract/toolchain_support_packages/arm/gnu_tools_for_arm_embedded_processors/10.2.1/bin/../lib/gcc/arm-none-eabi/10.2.1/../../../../arm-none-eabi/lib/thumb/v8-m.main+fp/hard\libc.a(lib_a-strncpy.o)
                              ./rt-thread/components/net/at/at_socket/at_socket.o (strncpy)
c:/rt-threadstudio/repo/extract/toolchain_support_packages/arm/gnu_tools_for_arm_embedded_processors/10.2.1/bin/../lib/gcc/arm-none-eabi/10.2.1/../../../../arm-none-eabi/lib/thumb/v8-m.main+fp/hard\libc.a(lib_a-strrchr.o)
                              ./rt-thread/components/dfs/src/dfs_file.o (strrchr)
c:/rt-threadstudio/repo/extract/toolchain_support_packages/arm/gnu_tools_for_arm_embedded_processors/10.2.1/bin/../lib/gcc/arm-none-eabi/10.2.1/../../../../arm-none-eabi/lib/thumb/v8-m.main+fp/hard\libc.a(lib_a-strstr.o)
                              ./rt-thread/components/net/at/src/at_client.o (strstr)
c:/rt-threadstudio/repo/extract/toolchain_support_packages/arm/gnu_tools_for_arm_embedded_processors/10.2.1/bin/../lib/gcc/arm-none-eabi/10.2.1/../../../../arm-none-eabi/lib/thumb/v8-m.main+fp/hard\libc.a(lib_a-strtod.o)
                              ./packages/cJSON-latest/cJSON.o (strtod)
c:/rt-threadstudio/repo/extract/toolchain_support_packages/arm/gnu_tools_for_arm_embedded_processors/10.2.1/bin/../lib/gcc/arm-none-eabi/10.2.1/../../../../arm-none-eabi/lib/thumb/v8-m.main+fp/hard\libc.a(lib_a-strtol.o)
                              c:/rt-threadstudio/repo/extract/toolchain_support_packages/arm/gnu_tools_for_arm_embedded_processors/10.2.1/bin/../lib/gcc/arm-none-eabi/10.2.1/../../../../arm-none-eabi/lib/thumb/v8-m.main+fp/hard\libc.a(lib_a-atoi.o) (_strtol_r)
c:/rt-threadstudio/repo/extract/toolchain_support_packages/arm/gnu_tools_for_arm_embedded_processors/10.2.1/bin/../lib/gcc/arm-none-eabi/10.2.1/../../../../arm-none-eabi/lib/thumb/v8-m.main+fp/hard\libc.a(lib_a-svfprintf.o)
                              c:/rt-threadstudio/repo/extract/toolchain_support_packages/arm/gnu_tools_for_arm_embedded_processors/10.2.1/bin/../lib/gcc/arm-none-eabi/10.2.1/../../../../arm-none-eabi/lib/thumb/v8-m.main+fp/hard\libc.a(lib_a-sprintf.o) (_svfprintf_r)
c:/rt-threadstudio/repo/extract/toolchain_support_packages/arm/gnu_tools_for_arm_embedded_processors/10.2.1/bin/../lib/gcc/arm-none-eabi/10.2.1/../../../../arm-none-eabi/lib/thumb/v8-m.main+fp/hard\libc.a(lib_a-svfscanf.o)
                              c:/rt-threadstudio/repo/extract/toolchain_support_packages/arm/gnu_tools_for_arm_embedded_processors/10.2.1/bin/../lib/gcc/arm-none-eabi/10.2.1/../../../../arm-none-eabi/lib/thumb/v8-m.main+fp/hard\libc.a(lib_a-sscanf.o) (__ssvfscanf_r)
c:/rt-threadstudio/repo/extract/toolchain_support_packages/arm/gnu_tools_for_arm_embedded_processors/10.2.1/bin/../lib/gcc/arm-none-eabi/10.2.1/../../../../arm-none-eabi/lib/thumb/v8-m.main+fp/hard\libc.a(lib_a-vsnprintf.o)
                              ./rt-thread/components/net/at/src/at_utils.o (vsnprintf)
c:/rt-threadstudio/repo/extract/toolchain_support_packages/arm/gnu_tools_for_arm_embedded_processors/10.2.1/bin/../lib/gcc/arm-none-eabi/10.2.1/../../../../arm-none-eabi/lib/thumb/v8-m.main+fp/hard\libc.a(lib_a-vsscanf.o)
                              ./rt-thread/components/net/at/src/at_client.o (vsscanf)
c:/rt-threadstudio/repo/extract/toolchain_support_packages/arm/gnu_tools_for_arm_embedded_processors/10.2.1/bin/../lib/gcc/arm-none-eabi/10.2.1/../../../../arm-none-eabi/lib/thumb/v8-m.main+fp/hard\libc.a(lib_a-__call_atexit.o)
                              c:/rt-threadstudio/repo/extract/toolchain_support_packages/arm/gnu_tools_for_arm_embedded_processors/10.2.1/bin/../lib/gcc/arm-none-eabi/10.2.1/../../../../arm-none-eabi/lib/thumb/v8-m.main+fp/hard\libc.a(lib_a-exit.o) (__call_exitprocs)
c:/rt-threadstudio/repo/extract/toolchain_support_packages/arm/gnu_tools_for_arm_embedded_processors/10.2.1/bin/../lib/gcc/arm-none-eabi/10.2.1/../../../../arm-none-eabi/lib/thumb/v8-m.main+fp/hard\libc.a(lib_a-atexit.o)
                              c:/rt-threadstudio/repo/extract/toolchain_support_packages/arm/gnu_tools_for_arm_embedded_processors/10.2.1/bin/../lib/gcc/arm-none-eabi/10.2.1/../../../../arm-none-eabi/lib/thumb/v8-m.main+fp/hard\libc.a(lib_a-__call_atexit.o) (atexit)
c:/rt-threadstudio/repo/extract/toolchain_support_packages/arm/gnu_tools_for_arm_embedded_processors/10.2.1/bin/../lib/gcc/arm-none-eabi/10.2.1/../../../../arm-none-eabi/lib/thumb/v8-m.main+fp/hard\libc.a(lib_a-dtoa.o)
                              c:/rt-threadstudio/repo/extract/toolchain_support_packages/arm/gnu_tools_for_arm_embedded_processors/10.2.1/bin/../lib/gcc/arm-none-eabi/10.2.1/../../../../arm-none-eabi/lib/thumb/v8-m.main+fp/hard\libc.a(lib_a-svfprintf.o) (_dtoa_r)
c:/rt-threadstudio/repo/extract/toolchain_support_packages/arm/gnu_tools_for_arm_embedded_processors/10.2.1/bin/../lib/gcc/arm-none-eabi/10.2.1/../../../../arm-none-eabi/lib/thumb/v8-m.main+fp/hard\libc.a(lib_a-fini.o)
                              c:/rt-threadstudio/repo/extract/toolchain_support_packages/arm/gnu_tools_for_arm_embedded_processors/10.2.1/bin/../lib/gcc/arm-none-eabi/10.2.1/../../../../arm-none-eabi/lib/thumb/v8-m.main+fp/hard\libc.a(lib_a-__call_atexit.o) (__libc_fini_array)
c:/rt-threadstudio/repo/extract/toolchain_support_packages/arm/gnu_tools_for_arm_embedded_processors/10.2.1/bin/../lib/gcc/arm-none-eabi/10.2.1/../../../../arm-none-eabi/lib/thumb/v8-m.main+fp/hard\libc.a(lib_a-gdtoa-gethex.o)
                              c:/rt-threadstudio/repo/extract/toolchain_support_packages/arm/gnu_tools_for_arm_embedded_processors/10.2.1/bin/../lib/gcc/arm-none-eabi/10.2.1/../../../../arm-none-eabi/lib/thumb/v8-m.main+fp/hard\libc.a(lib_a-strtod.o) (__gethex)
c:/rt-threadstudio/repo/extract/toolchain_support_packages/arm/gnu_tools_for_arm_embedded_processors/10.2.1/bin/../lib/gcc/arm-none-eabi/10.2.1/../../../../arm-none-eabi/lib/thumb/v8-m.main+fp/hard\libc.a(lib_a-gdtoa-hexnan.o)
                              c:/rt-threadstudio/repo/extract/toolchain_support_packages/arm/gnu_tools_for_arm_embedded_processors/10.2.1/bin/../lib/gcc/arm-none-eabi/10.2.1/../../../../arm-none-eabi/lib/thumb/v8-m.main+fp/hard\libc.a(lib_a-strtod.o) (__match)
c:/rt-threadstudio/repo/extract/toolchain_support_packages/arm/gnu_tools_for_arm_embedded_processors/10.2.1/bin/../lib/gcc/arm-none-eabi/10.2.1/../../../../arm-none-eabi/lib/thumb/v8-m.main+fp/hard\libc.a(lib_a-iswspace.o)
                              c:/rt-threadstudio/repo/extract/toolchain_support_packages/arm/gnu_tools_for_arm_embedded_processors/10.2.1/bin/../lib/gcc/arm-none-eabi/10.2.1/../../../../arm-none-eabi/lib/thumb/v8-m.main+fp/hard\libc.a(lib_a-svfscanf.o) (iswspace)
c:/rt-threadstudio/repo/extract/toolchain_support_packages/arm/gnu_tools_for_arm_embedded_processors/10.2.1/bin/../lib/gcc/arm-none-eabi/10.2.1/../../../../arm-none-eabi/lib/thumb/v8-m.main+fp/hard\libc.a(lib_a-iswspace_l.o)
                              c:/rt-threadstudio/repo/extract/toolchain_support_packages/arm/gnu_tools_for_arm_embedded_processors/10.2.1/bin/../lib/gcc/arm-none-eabi/10.2.1/../../../../arm-none-eabi/lib/thumb/v8-m.main+fp/hard\libc.a(lib_a-iswspace.o) (iswspace_l)
c:/rt-threadstudio/repo/extract/toolchain_support_packages/arm/gnu_tools_for_arm_embedded_processors/10.2.1/bin/../lib/gcc/arm-none-eabi/10.2.1/../../../../arm-none-eabi/lib/thumb/v8-m.main+fp/hard\libc.a(lib_a-lnumeric.o)
                              c:/rt-threadstudio/repo/extract/toolchain_support_packages/arm/gnu_tools_for_arm_embedded_processors/10.2.1/bin/../lib/gcc/arm-none-eabi/10.2.1/../../../../arm-none-eabi/lib/thumb/v8-m.main+fp/hard\libc.a(lib_a-strtod.o) (_C_numeric_locale)
c:/rt-threadstudio/repo/extract/toolchain_support_packages/arm/gnu_tools_for_arm_embedded_processors/10.2.1/bin/../lib/gcc/arm-none-eabi/10.2.1/../../../../arm-none-eabi/lib/thumb/v8-m.main+fp/hard\libc.a(lib_a-locale.o)
                              c:/rt-threadstudio/repo/extract/toolchain_support_packages/arm/gnu_tools_for_arm_embedded_processors/10.2.1/bin/../lib/gcc/arm-none-eabi/10.2.1/../../../../arm-none-eabi/lib/thumb/v8-m.main+fp/hard\libc.a(lib_a-svfscanf.o) (__locale_mb_cur_max)
c:/rt-threadstudio/repo/extract/toolchain_support_packages/arm/gnu_tools_for_arm_embedded_processors/10.2.1/bin/../lib/gcc/arm-none-eabi/10.2.1/../../../../arm-none-eabi/lib/thumb/v8-m.main+fp/hard\libc.a(lib_a-localeconv.o)
                              c:/rt-threadstudio/repo/extract/toolchain_support_packages/arm/gnu_tools_for_arm_embedded_processors/10.2.1/bin/../lib/gcc/arm-none-eabi/10.2.1/../../../../arm-none-eabi/lib/thumb/v8-m.main+fp/hard\libc.a(lib_a-svfprintf.o) (_localeconv_r)
c:/rt-threadstudio/repo/extract/toolchain_support_packages/arm/gnu_tools_for_arm_embedded_processors/10.2.1/bin/../lib/gcc/arm-none-eabi/10.2.1/../../../../arm-none-eabi/lib/thumb/v8-m.main+fp/hard\libc.a(lib_a-lock.o)
                              c:/rt-threadstudio/repo/extract/toolchain_support_packages/arm/gnu_tools_for_arm_embedded_processors/10.2.1/bin/../lib/gcc/arm-none-eabi/10.2.1/../../../../arm-none-eabi/lib/thumb/v8-m.main+fp/hard\libc.a(lib_a-__call_atexit.o) (__retarget_lock_acquire_recursive)
c:/rt-threadstudio/repo/extract/toolchain_support_packages/arm/gnu_tools_for_arm_embedded_processors/10.2.1/bin/../lib/gcc/arm-none-eabi/10.2.1/../../../../arm-none-eabi/lib/thumb/v8-m.main+fp/hard\libc.a(lib_a-mbrtowc.o)
                              c:/rt-threadstudio/repo/extract/toolchain_support_packages/arm/gnu_tools_for_arm_embedded_processors/10.2.1/bin/../lib/gcc/arm-none-eabi/10.2.1/../../../../arm-none-eabi/lib/thumb/v8-m.main+fp/hard\libc.a(lib_a-svfscanf.o) (_mbrtowc_r)
c:/rt-threadstudio/repo/extract/toolchain_support_packages/arm/gnu_tools_for_arm_embedded_processors/10.2.1/bin/../lib/gcc/arm-none-eabi/10.2.1/../../../../arm-none-eabi/lib/thumb/v8-m.main+fp/hard\libc.a(lib_a-mbtowc_r.o)
                              c:/rt-threadstudio/repo/extract/toolchain_support_packages/arm/gnu_tools_for_arm_embedded_processors/10.2.1/bin/../lib/gcc/arm-none-eabi/10.2.1/../../../../arm-none-eabi/lib/thumb/v8-m.main+fp/hard\libc.a(lib_a-locale.o) (__ascii_mbtowc)
c:/rt-threadstudio/repo/extract/toolchain_support_packages/arm/gnu_tools_for_arm_embedded_processors/10.2.1/bin/../lib/gcc/arm-none-eabi/10.2.1/../../../../arm-none-eabi/lib/thumb/v8-m.main+fp/hard\libc.a(lib_a-memchr-stub.o)
                              c:/rt-threadstudio/repo/extract/toolchain_support_packages/arm/gnu_tools_for_arm_embedded_processors/10.2.1/bin/../lib/gcc/arm-none-eabi/10.2.1/../../../../arm-none-eabi/lib/thumb/v8-m.main+fp/hard\libc.a(lib_a-svfprintf.o) (memchr)
c:/rt-threadstudio/repo/extract/toolchain_support_packages/arm/gnu_tools_for_arm_embedded_processors/10.2.1/bin/../lib/gcc/arm-none-eabi/10.2.1/../../../../arm-none-eabi/lib/thumb/v8-m.main+fp/hard\libc.a(lib_a-mprec.o)
                              c:/rt-threadstudio/repo/extract/toolchain_support_packages/arm/gnu_tools_for_arm_embedded_processors/10.2.1/bin/../lib/gcc/arm-none-eabi/10.2.1/../../../../arm-none-eabi/lib/thumb/v8-m.main+fp/hard\libc.a(lib_a-strtod.o) (_Balloc)
c:/rt-threadstudio/repo/extract/toolchain_support_packages/arm/gnu_tools_for_arm_embedded_processors/10.2.1/bin/../lib/gcc/arm-none-eabi/10.2.1/../../../../arm-none-eabi/lib/thumb/v8-m.main+fp/hard\libc.a(lib_a-s_frexp.o)
                              c:/rt-threadstudio/repo/extract/toolchain_support_packages/arm/gnu_tools_for_arm_embedded_processors/10.2.1/bin/../lib/gcc/arm-none-eabi/10.2.1/../../../../arm-none-eabi/lib/thumb/v8-m.main+fp/hard\libc.a(lib_a-svfprintf.o) (frexp)
c:/rt-threadstudio/repo/extract/toolchain_support_packages/arm/gnu_tools_for_arm_embedded_processors/10.2.1/bin/../lib/gcc/arm-none-eabi/10.2.1/../../../../arm-none-eabi/lib/thumb/v8-m.main+fp/hard\libc.a(lib_a-sccl.o)
                              c:/rt-threadstudio/repo/extract/toolchain_support_packages/arm/gnu_tools_for_arm_embedded_processors/10.2.1/bin/../lib/gcc/arm-none-eabi/10.2.1/../../../../arm-none-eabi/lib/thumb/v8-m.main+fp/hard\libc.a(lib_a-svfscanf.o) (__sccl)
c:/rt-threadstudio/repo/extract/toolchain_support_packages/arm/gnu_tools_for_arm_embedded_processors/10.2.1/bin/../lib/gcc/arm-none-eabi/10.2.1/../../../../arm-none-eabi/lib/thumb/v8-m.main+fp/hard\libc.a(lib_a-sf_nan.o)
                              c:/rt-threadstudio/repo/extract/toolchain_support_packages/arm/gnu_tools_for_arm_embedded_processors/10.2.1/bin/../lib/gcc/arm-none-eabi/10.2.1/../../../../arm-none-eabi/lib/thumb/v8-m.main+fp/hard\libc.a(lib_a-strtod.o) (nanf)
c:/rt-threadstudio/repo/extract/toolchain_support_packages/arm/gnu_tools_for_arm_embedded_processors/10.2.1/bin/../lib/gcc/arm-none-eabi/10.2.1/../../../../arm-none-eabi/lib/thumb/v8-m.main+fp/hard\libc.a(lib_a-strnlen.o)
                              c:/rt-threadstudio/repo/extract/toolchain_support_packages/arm/gnu_tools_for_arm_embedded_processors/10.2.1/bin/../lib/gcc/arm-none-eabi/10.2.1/../../../../arm-none-eabi/lib/thumb/v8-m.main+fp/hard\libc.a(lib_a-strstr.o) (strnlen)
c:/rt-threadstudio/repo/extract/toolchain_support_packages/arm/gnu_tools_for_arm_embedded_processors/10.2.1/bin/../lib/gcc/arm-none-eabi/10.2.1/../../../../arm-none-eabi/lib/thumb/v8-m.main+fp/hard\libc.a(lib_a-strtoll.o)
                              c:/rt-threadstudio/repo/extract/toolchain_support_packages/arm/gnu_tools_for_arm_embedded_processors/10.2.1/bin/../lib/gcc/arm-none-eabi/10.2.1/../../../../arm-none-eabi/lib/thumb/v8-m.main+fp/hard\libc.a(lib_a-svfscanf.o) (_strtoll_r)
c:/rt-threadstudio/repo/extract/toolchain_support_packages/arm/gnu_tools_for_arm_embedded_processors/10.2.1/bin/../lib/gcc/arm-none-eabi/10.2.1/../../../../arm-none-eabi/lib/thumb/v8-m.main+fp/hard\libc.a(lib_a-strtoul.o)
                              c:/rt-threadstudio/repo/extract/toolchain_support_packages/arm/gnu_tools_for_arm_embedded_processors/10.2.1/bin/../lib/gcc/arm-none-eabi/10.2.1/../../../../arm-none-eabi/lib/thumb/v8-m.main+fp/hard\libc.a(lib_a-svfscanf.o) (_strtoul_r)
c:/rt-threadstudio/repo/extract/toolchain_support_packages/arm/gnu_tools_for_arm_embedded_processors/10.2.1/bin/../lib/gcc/arm-none-eabi/10.2.1/../../../../arm-none-eabi/lib/thumb/v8-m.main+fp/hard\libc.a(lib_a-strtoull.o)
                              c:/rt-threadstudio/repo/extract/toolchain_support_packages/arm/gnu_tools_for_arm_embedded_processors/10.2.1/bin/../lib/gcc/arm-none-eabi/10.2.1/../../../../arm-none-eabi/lib/thumb/v8-m.main+fp/hard\libc.a(lib_a-svfscanf.o) (_strtoull_r)
c:/rt-threadstudio/repo/extract/toolchain_support_packages/arm/gnu_tools_for_arm_embedded_processors/10.2.1/bin/../lib/gcc/arm-none-eabi/10.2.1/../../../../arm-none-eabi/lib/thumb/v8-m.main+fp/hard\libc.a(lib_a-svfiprintf.o)
                              c:/rt-threadstudio/repo/extract/toolchain_support_packages/arm/gnu_tools_for_arm_embedded_processors/10.2.1/bin/../lib/gcc/arm-none-eabi/10.2.1/../../../../arm-none-eabi/lib/thumb/v8-m.main+fp/hard\libc.a(lib_a-svfprintf.o) (__ssprint_r)
c:/rt-threadstudio/repo/extract/toolchain_support_packages/arm/gnu_tools_for_arm_embedded_processors/10.2.1/bin/../lib/gcc/arm-none-eabi/10.2.1/../../../../arm-none-eabi/lib/thumb/v8-m.main+fp/hard\libc.a(lib_a-svfiscanf.o)
                              c:/rt-threadstudio/repo/extract/toolchain_support_packages/arm/gnu_tools_for_arm_embedded_processors/10.2.1/bin/../lib/gcc/arm-none-eabi/10.2.1/../../../../arm-none-eabi/lib/thumb/v8-m.main+fp/hard\libc.a(lib_a-svfscanf.o) (_sungetc_r)
c:/rt-threadstudio/repo/extract/toolchain_support_packages/arm/gnu_tools_for_arm_embedded_processors/10.2.1/bin/../lib/gcc/arm-none-eabi/10.2.1/../../../../arm-none-eabi/lib/thumb/v8-m.main+fp/hard\libc.a(lib_a-ungetc.o)
                              c:/rt-threadstudio/repo/extract/toolchain_support_packages/arm/gnu_tools_for_arm_embedded_processors/10.2.1/bin/../lib/gcc/arm-none-eabi/10.2.1/../../../../arm-none-eabi/lib/thumb/v8-m.main+fp/hard\libc.a(lib_a-svfiscanf.o) (__submore)
c:/rt-threadstudio/repo/extract/toolchain_support_packages/arm/gnu_tools_for_arm_embedded_processors/10.2.1/bin/../lib/gcc/arm-none-eabi/10.2.1/../../../../arm-none-eabi/lib/thumb/v8-m.main+fp/hard\libc.a(lib_a-wctomb_r.o)
                              c:/rt-threadstudio/repo/extract/toolchain_support_packages/arm/gnu_tools_for_arm_embedded_processors/10.2.1/bin/../lib/gcc/arm-none-eabi/10.2.1/../../../../arm-none-eabi/lib/thumb/v8-m.main+fp/hard\libc.a(lib_a-locale.o) (__ascii_wctomb)
c:/rt-threadstudio/repo/extract/toolchain_support_packages/arm/gnu_tools_for_arm_embedded_processors/10.2.1/bin/../lib/gcc/arm-none-eabi/10.2.1/../../../../arm-none-eabi/lib/thumb/v8-m.main+fp/hard\libc.a(lib_a-__atexit.o)
                              c:/rt-threadstudio/repo/extract/toolchain_support_packages/arm/gnu_tools_for_arm_embedded_processors/10.2.1/bin/../lib/gcc/arm-none-eabi/10.2.1/../../../../arm-none-eabi/lib/thumb/v8-m.main+fp/hard\libc.a(lib_a-atexit.o) (__register_exitproc)
c:/rt-threadstudio/repo/extract/toolchain_support_packages/arm/gnu_tools_for_arm_embedded_processors/10.2.1/bin/../lib/gcc/arm-none-eabi/10.2.1/../../../../arm-none-eabi/lib/thumb/v8-m.main+fp/hard\libc.a(lib_a-fflush.o)
                              c:/rt-threadstudio/repo/extract/toolchain_support_packages/arm/gnu_tools_for_arm_embedded_processors/10.2.1/bin/../lib/gcc/arm-none-eabi/10.2.1/../../../../arm-none-eabi/lib/thumb/v8-m.main+fp/hard\libc.a(lib_a-ungetc.o) (_fflush_r)
c:/rt-threadstudio/repo/extract/toolchain_support_packages/arm/gnu_tools_for_arm_embedded_processors/10.2.1/bin/../lib/gcc/arm-none-eabi/10.2.1/../../../../arm-none-eabi/lib/thumb/v8-m.main+fp/hard\libc.a(lib_a-findfp.o)
                              c:/rt-threadstudio/repo/extract/toolchain_support_packages/arm/gnu_tools_for_arm_embedded_processors/10.2.1/bin/../lib/gcc/arm-none-eabi/10.2.1/../../../../arm-none-eabi/lib/thumb/v8-m.main+fp/hard\libc.a(lib_a-ungetc.o) (__sinit)
c:/rt-threadstudio/repo/extract/toolchain_support_packages/arm/gnu_tools_for_arm_embedded_processors/10.2.1/bin/../lib/gcc/arm-none-eabi/10.2.1/../../../../arm-none-eabi/lib/thumb/v8-m.main+fp/hard\libc.a(lib_a-fwalk.o)
                              c:/rt-threadstudio/repo/extract/toolchain_support_packages/arm/gnu_tools_for_arm_embedded_processors/10.2.1/bin/../lib/gcc/arm-none-eabi/10.2.1/../../../../arm-none-eabi/lib/thumb/v8-m.main+fp/hard\libc.a(lib_a-findfp.o) (_fwalk)
c:/rt-threadstudio/repo/extract/toolchain_support_packages/arm/gnu_tools_for_arm_embedded_processors/10.2.1/bin/../lib/gcc/arm-none-eabi/10.2.1/../../../../arm-none-eabi/lib/thumb/v8-m.main+fp/hard\libc.a(lib_a-memmove.o)
                              c:/rt-threadstudio/repo/extract/toolchain_support_packages/arm/gnu_tools_for_arm_embedded_processors/10.2.1/bin/../lib/gcc/arm-none-eabi/10.2.1/../../../../arm-none-eabi/lib/thumb/v8-m.main+fp/hard\libc.a(lib_a-svfiprintf.o) (memmove)
c:/rt-threadstudio/repo/extract/toolchain_support_packages/arm/gnu_tools_for_arm_embedded_processors/10.2.1/bin/../lib/gcc/arm-none-eabi/10.2.1/../../../../arm-none-eabi/lib/thumb/v8-m.main+fp/hard\libc.a(lib_a-fclose.o)
                              c:/rt-threadstudio/repo/extract/toolchain_support_packages/arm/gnu_tools_for_arm_embedded_processors/10.2.1/bin/../lib/gcc/arm-none-eabi/10.2.1/../../../../arm-none-eabi/lib/thumb/v8-m.main+fp/hard\libc.a(lib_a-findfp.o) (_fclose_r)
c:/rt-threadstudio/repo/extract/toolchain_support_packages/arm/gnu_tools_for_arm_embedded_processors/10.2.1/bin/../lib/gcc/arm-none-eabi/10.2.1/thumb/v8-m.main+fp/hard\libgcc.a(_arm_muldf3.o)
                              ./packages/cJSON-latest/cJSON.o (__aeabi_dmul)
c:/rt-threadstudio/repo/extract/toolchain_support_packages/arm/gnu_tools_for_arm_embedded_processors/10.2.1/bin/../lib/gcc/arm-none-eabi/10.2.1/thumb/v8-m.main+fp/hard\libgcc.a(_arm_addsubdf3.o)
                              ./packages/cJSON-latest/cJSON.o (__aeabi_dsub)
c:/rt-threadstudio/repo/extract/toolchain_support_packages/arm/gnu_tools_for_arm_embedded_processors/10.2.1/bin/../lib/gcc/arm-none-eabi/10.2.1/thumb/v8-m.main+fp/hard\libgcc.a(_arm_muldivdf3.o)
                              ./packages/isl29035-latest/isl29035.o (__aeabi_ddiv)
c:/rt-threadstudio/repo/extract/toolchain_support_packages/arm/gnu_tools_for_arm_embedded_processors/10.2.1/bin/../lib/gcc/arm-none-eabi/10.2.1/thumb/v8-m.main+fp/hard\libgcc.a(_arm_cmpdf2.o)
                              ./packages/cJSON-latest/cJSON.o (__aeabi_dcmpeq)
c:/rt-threadstudio/repo/extract/toolchain_support_packages/arm/gnu_tools_for_arm_embedded_processors/10.2.1/bin/../lib/gcc/arm-none-eabi/10.2.1/thumb/v8-m.main+fp/hard\libgcc.a(_arm_unorddf2.o)
                              ./packages/cJSON-latest/cJSON.o (__aeabi_dcmpun)
c:/rt-threadstudio/repo/extract/toolchain_support_packages/arm/gnu_tools_for_arm_embedded_processors/10.2.1/bin/../lib/gcc/arm-none-eabi/10.2.1/thumb/v8-m.main+fp/hard\libgcc.a(_arm_fixdfsi.o)
                              ./packages/isl29035-latest/sensor_renesas_isl29035.o (__aeabi_d2iz)
c:/rt-threadstudio/repo/extract/toolchain_support_packages/arm/gnu_tools_for_arm_embedded_processors/10.2.1/bin/../lib/gcc/arm-none-eabi/10.2.1/thumb/v8-m.main+fp/hard\libgcc.a(_arm_fixunsdfsi.o)
                              c:/rt-threadstudio/repo/extract/toolchain_support_packages/arm/gnu_tools_for_arm_embedded_processors/10.2.1/bin/../lib/gcc/arm-none-eabi/10.2.1/../../../../arm-none-eabi/lib/thumb/v8-m.main+fp/hard\libc.a(lib_a-strtod.o) (__aeabi_d2uiz)
c:/rt-threadstudio/repo/extract/toolchain_support_packages/arm/gnu_tools_for_arm_embedded_processors/10.2.1/bin/../lib/gcc/arm-none-eabi/10.2.1/thumb/v8-m.main+fp/hard\libgcc.a(_arm_truncdfsf2.o)
                              ./packages/isl29035-latest/isl29035.o (__aeabi_d2f)
c:/rt-threadstudio/repo/extract/toolchain_support_packages/arm/gnu_tools_for_arm_embedded_processors/10.2.1/bin/../lib/gcc/arm-none-eabi/10.2.1/thumb/v8-m.main+fp/hard\libgcc.a(_aeabi_ldivmod.o)
                              ./rt-thread/components/libc/compilers/common/time.o (__aeabi_ldivmod)
c:/rt-threadstudio/repo/extract/toolchain_support_packages/arm/gnu_tools_for_arm_embedded_processors/10.2.1/bin/../lib/gcc/arm-none-eabi/10.2.1/thumb/v8-m.main+fp/hard\libgcc.a(_aeabi_uldivmod.o)
                              ./packages/ali-iotkit-v3.0.1/ports/rtthread/HAL_TCP_rtthread.o (__aeabi_uldivmod)
c:/rt-threadstudio/repo/extract/toolchain_support_packages/arm/gnu_tools_for_arm_embedded_processors/10.2.1/bin/../lib/gcc/arm-none-eabi/10.2.1/thumb/v8-m.main+fp/hard\libgcc.a(_fixdfdi.o)
                              c:/rt-threadstudio/repo/extract/toolchain_support_packages/arm/gnu_tools_for_arm_embedded_processors/10.2.1/bin/../lib/gcc/arm-none-eabi/10.2.1/../../../../arm-none-eabi/lib/thumb/v8-m.main+fp/hard\libc.a(lib_a-strtod.o) (__aeabi_d2lz)
c:/rt-threadstudio/repo/extract/toolchain_support_packages/arm/gnu_tools_for_arm_embedded_processors/10.2.1/bin/../lib/gcc/arm-none-eabi/10.2.1/thumb/v8-m.main+fp/hard\libgcc.a(_fixunsdfdi.o)
                              c:/rt-threadstudio/repo/extract/toolchain_support_packages/arm/gnu_tools_for_arm_embedded_processors/10.2.1/bin/../lib/gcc/arm-none-eabi/10.2.1/thumb/v8-m.main+fp/hard\libgcc.a(_fixdfdi.o) (__aeabi_d2ulz)
c:/rt-threadstudio/repo/extract/toolchain_support_packages/arm/gnu_tools_for_arm_embedded_processors/10.2.1/bin/../lib/gcc/arm-none-eabi/10.2.1/thumb/v8-m.main+fp/hard\libgcc.a(_udivmoddi4.o)
                              c:/rt-threadstudio/repo/extract/toolchain_support_packages/arm/gnu_tools_for_arm_embedded_processors/10.2.1/bin/../lib/gcc/arm-none-eabi/10.2.1/thumb/v8-m.main+fp/hard\libgcc.a(_aeabi_ldivmod.o) (__udivmoddi4)
c:/rt-threadstudio/repo/extract/toolchain_support_packages/arm/gnu_tools_for_arm_embedded_processors/10.2.1/bin/../lib/gcc/arm-none-eabi/10.2.1/thumb/v8-m.main+fp/hard\libgcc.a(_dvmd_tls.o)
                              c:/rt-threadstudio/repo/extract/toolchain_support_packages/arm/gnu_tools_for_arm_embedded_processors/10.2.1/bin/../lib/gcc/arm-none-eabi/10.2.1/thumb/v8-m.main+fp/hard\libgcc.a(_aeabi_ldivmod.o) (__aeabi_ldiv0)

Discarded input sections

 .text          0x00000000        0x0 c:/rt-threadstudio/repo/extract/toolchain_support_packages/arm/gnu_tools_for_arm_embedded_processors/10.2.1/bin/../lib/gcc/arm-none-eabi/10.2.1/thumb/v8-m.main+fp/hard/crti.o
 .data          0x00000000        0x0 c:/rt-threadstudio/repo/extract/toolchain_support_packages/arm/gnu_tools_for_arm_embedded_processors/10.2.1/bin/../lib/gcc/arm-none-eabi/10.2.1/thumb/v8-m.main+fp/hard/crti.o
 .bss           0x00000000        0x0 c:/rt-threadstudio/repo/extract/toolchain_support_packages/arm/gnu_tools_for_arm_embedded_processors/10.2.1/bin/../lib/gcc/arm-none-eabi/10.2.1/thumb/v8-m.main+fp/hard/crti.o
 .data          0x00000000        0x4 c:/rt-threadstudio/repo/extract/toolchain_support_packages/arm/gnu_tools_for_arm_embedded_processors/10.2.1/bin/../lib/gcc/arm-none-eabi/10.2.1/thumb/v8-m.main+fp/hard/crtbegin.o
 .rodata        0x00000000       0x24 c:/rt-threadstudio/repo/extract/toolchain_support_packages/arm/gnu_tools_for_arm_embedded_processors/10.2.1/bin/../lib/gcc/arm-none-eabi/10.2.1/thumb/v8-m.main+fp/hard/crtbegin.o
 .text          0x00000000       0x7c c:/rt-threadstudio/repo/extract/toolchain_support_packages/arm/gnu_tools_for_arm_embedded_processors/10.2.1/bin/../lib/gcc/arm-none-eabi/10.2.1/../../../../arm-none-eabi/lib/thumb/v8-m.main+fp/hard/crt0.o
 .data          0x00000000        0x0 c:/rt-threadstudio/repo/extract/toolchain_support_packages/arm/gnu_tools_for_arm_embedded_processors/10.2.1/bin/../lib/gcc/arm-none-eabi/10.2.1/../../../../arm-none-eabi/lib/thumb/v8-m.main+fp/hard/crt0.o
 .bss           0x00000000        0x0 c:/rt-threadstudio/repo/extract/toolchain_support_packages/arm/gnu_tools_for_arm_embedded_processors/10.2.1/bin/../lib/gcc/arm-none-eabi/10.2.1/../../../../arm-none-eabi/lib/thumb/v8-m.main+fp/hard/crt0.o
 .ARM.extab     0x00000000        0x0 c:/rt-threadstudio/repo/extract/toolchain_support_packages/arm/gnu_tools_for_arm_embedded_processors/10.2.1/bin/../lib/gcc/arm-none-eabi/10.2.1/../../../../arm-none-eabi/lib/thumb/v8-m.main+fp/hard/crt0.o
 .ARM.exidx     0x00000000       0x10 c:/rt-threadstudio/repo/extract/toolchain_support_packages/arm/gnu_tools_for_arm_embedded_processors/10.2.1/bin/../lib/gcc/arm-none-eabi/10.2.1/../../../../arm-none-eabi/lib/thumb/v8-m.main+fp/hard/crt0.o
 .ARM.attributes
                0x00000000       0x20 c:/rt-threadstudio/repo/extract/toolchain_support_packages/arm/gnu_tools_for_arm_embedded_processors/10.2.1/bin/../lib/gcc/arm-none-eabi/10.2.1/../../../../arm-none-eabi/lib/thumb/v8-m.main+fp/hard/crt0.o
 .text          0x00000000        0x0 ./src/aliyun_mqtt.o
 .data          0x00000000        0x0 ./src/aliyun_mqtt.o
 .bss           0x00000000        0x0 ./src/aliyun_mqtt.o
 .text.example_message_arrive
                0x00000000       0xbc ./src/aliyun_mqtt.o
 .text.aliyun_subscribe
Memory Configuration

Name             Origin             Length             Attributes
FLASH            0x00000000         0x00100000         xr
RAM              0x20000000         0x00040000         xrw
DATA_FLASH       0x08000000         0x00002000         xr
QSPI_FLASH       0x60000000         0x04000000         xr
OSPI_DEVICE_0    0x68000000         0x08000000         xr
OSPI_DEVICE_1    0x70000000         0x10000000         xr
OSPI_DEVICE_0_RAM 0x68000000         0x08000000         xrw
OSPI_DEVICE_1_RAM 0x70000000         0x10000000         xrw
SDRAM            0x90000000         0x00000000         xrw
OPTION_SETTING   0x0100a100         0x00000100         r
OPTION_SETTING_S 0x0100a200         0x00000100         r
ID_CODE          0x00000000         0x00000000         xr
*default*        0x00000000         0xffffffff

Linker script and memory map

LOAD c:/rt-threadstudio/repo/extract/toolchain_support_packages/arm/gnu_tools_for_arm_embedded_processors/10.2.1/bin/../lib/gcc/arm-none-eabi/10.2.1/thumb/v8-m.main+fp/hard/crti.o
LOAD c:/rt-threadstudio/repo/extract/toolchain_support_packages/arm/gnu_tools_for_arm_embedded_processors/10.2.1/bin/../lib/gcc/arm-none-eabi/10.2.1/thumb/v8-m.main+fp/hard/crtbegin.o
LOAD c:/rt-threadstudio/repo/extract/toolchain_support_packages/arm/gnu_tools_for_arm_embedded_processors/10.2.1/bin/../lib/gcc/arm-none-eabi/10.2.1/../../../../arm-none-eabi/lib/thumb/v8-m.main+fp/hard/crt0.o
LOAD ./src/aliyun_mqtt.o
LOAD ./src/hal_entry.o
LOAD ./src/lora_as32.o
LOAD ./src/lora_json_msg_obj.o
LOAD ./src/lora_net_manager.o
LOAD ./rt-thread/src/clock.o
LOAD ./rt-thread/src/components.o
LOAD ./rt-thread/src/device.o
LOAD ./rt-thread/src/idle.o
LOAD ./rt-thread/src/ipc.o
LOAD ./rt-thread/src/irq.o
LOAD ./rt-thread/src/kservice.o
LOAD ./rt-thread/src/mem.o
LOAD ./rt-thread/src/object.o
LOAD ./rt-thread/src/scheduler.o
LOAD ./rt-thread/src/thread.o
LOAD ./rt-thread/src/timer.o
LOAD ./rt-thread/libcpu/arm/cortex-m4/context_gcc.o
LOAD ./rt-thread/libcpu/arm/cortex-m4/cpuport.o
LOAD ./rt-thread/libcpu/arm/common/backtrace.o
LOAD ./rt-thread/libcpu/arm/common/div0.o
LOAD ./rt-thread/libcpu/arm/common/showmem.o
LOAD ./rt-thread/components/net/sal/src/sal_socket.o
LOAD ./rt-thread/components/net/sal/socket/net_netdb.o
LOAD ./rt-thread/components/net/sal/socket/net_sockets.o
LOAD ./rt-thread/components/net/sal/impl/af_inet_at.o
LOAD ./rt-thread/components/net/sal/dfs_net/dfs_net.o
LOAD ./rt-thread/components/net/netdev/src/netdev.o
LOAD ./rt-thread/components/net/netdev/src/netdev_ipaddr.o
LOAD ./rt-thread/components/net/at/src/at_cli.o
LOAD ./rt-thread/components/net/at/src/at_client.o
LOAD ./rt-thread/components/net/at/src/at_utils.o
LOAD ./rt-thread/components/net/at/at_socket/at_socket.o
LOAD ./rt-thread/components/libc/posix/io/poll/poll.o
LOAD ./rt-thread/components/libc/posix/io/poll/select.o
LOAD ./rt-thread/components/libc/compilers/newlib/syscalls.o
LOAD ./rt-thread/components/libc/compilers/common/stdlib.o
LOAD ./rt-thread/components/libc/compilers/common/time.o
LOAD ./rt-thread/components/finsh/cmd.o
LOAD ./rt-thread/components/finsh/msh.o
LOAD ./rt-thread/components/finsh/msh_file.o
LOAD ./rt-thread/components/finsh/shell.o
LOAD ./rt-thread/components/drivers/serial/serial_v2.o
LOAD ./rt-thread/components/drivers/sensors/sensor.o
LOAD ./rt-thread/components/drivers/sensors/sensor_cmd.o
LOAD ./rt-thread/components/drivers/misc/pin.o
LOAD ./rt-thread/components/drivers/ipc/completion.o
LOAD ./rt-thread/components/drivers/ipc/dataqueue.o
LOAD ./rt-thread/components/drivers/ipc/pipe.o
LOAD ./rt-thread/components/drivers/ipc/ringblk_buf.o
LOAD ./rt-thread/components/drivers/ipc/ringbuffer.o
LOAD ./rt-thread/components/drivers/ipc/waitqueue.o
LOAD ./rt-thread/components/drivers/ipc/workqueue.o
LOAD ./rt-thread/components/drivers/i2c/i2c-bit-ops.o
LOAD ./rt-thread/components/drivers/i2c/i2c_core.o
LOAD ./rt-thread/components/drivers/i2c/i2c_dev.o
LOAD ./rt-thread/components/dfs/src/dfs.o
LOAD ./rt-thread/components/dfs/src/dfs_file.o
LOAD ./rt-thread/components/dfs/src/dfs_fs.o
LOAD ./rt-thread/components/dfs/src/dfs_posix.o
LOAD ./ra_gen/common_data.o
LOAD ./ra_gen/hal_data.o
LOAD ./ra_gen/main.o
LOAD ./ra_gen/pin_data.o
LOAD ./ra_gen/vector_data.o
LOAD ./ra/fsp/src/r_sci_uart/r_sci_uart.o
LOAD ./ra/fsp/src/r_sci_i2c/r_sci_i2c.o
LOAD ./ra/fsp/src/r_ioport/r_ioport.o
LOAD ./ra/fsp/src/r_icu/r_icu.o
LOAD ./ra/fsp/src/bsp/mcu/all/bsp_clocks.o
LOAD ./ra/fsp/src/bsp/mcu/all/bsp_common.o
LOAD ./ra/fsp/src/bsp/mcu/all/bsp_delay.o
LOAD ./ra/fsp/src/bsp/mcu/all/bsp_group_irq.o
LOAD ./ra/fsp/src/bsp/mcu/all/bsp_guard.o
LOAD ./ra/fsp/src/bsp/mcu/all/bsp_io.o
LOAD ./ra/fsp/src/bsp/mcu/all/bsp_irq.o
LOAD ./ra/fsp/src/bsp/mcu/all/bsp_register_protection.o
LOAD ./ra/fsp/src/bsp/mcu/all/bsp_rom_registers.o
LOAD ./ra/fsp/src/bsp/mcu/all/bsp_sbrk.o
LOAD ./ra/fsp/src/bsp/mcu/all/bsp_security.o
LOAD ./ra/fsp/src/bsp/cmsis/Device/RENESAS/Source/startup.o
LOAD ./ra/fsp/src/bsp/cmsis/Device/RENESAS/Source/system.o
LOAD ./packages/isl29035-latest/isl29035.o
LOAD ./packages/isl29035-latest/sensor_renesas_isl29035.o
LOAD ./packages/cJSON-latest/cJSON.o
LOAD ./packages/cJSON-latest/cJSON_Utils.o
LOAD ./packages/at_device-latest/src/at_device.o
LOAD ./packages/at_device-latest/samples/at_sample_esp8266.o
LOAD ./packages/at_device-latest/class/esp8266/at_device_esp8266.o
LOAD ./packages/at_device-latest/class/esp8266/at_socket_esp8266.o
LOAD ./packages/ali-iotkit-v3.0.1/samples/mqtt/mqtt-example.o
LOAD ./packages/ali-iotkit-v3.0.1/ports/rtthread/HAL_OS_rtthread.o
LOAD ./packages/ali-iotkit-v3.0.1/ports/rtthread/HAL_TCP_rtthread.o
LOAD ./packages/ali-iotkit-v3.0.1/ports/rtthread/HAL_UDP_rtthread.o
LOAD ./packages/ali-iotkit-v3.0.1/ports/wrapper.o
LOAD ./packages/ali-iotkit-v3.0.1/iotkit-embedded/src/mqtt/impl/MQTTConnectClient.o
LOAD ./packages/ali-iotkit-v3.0.1/iotkit-embedded/src/mqtt/impl/MQTTDeserializePublish.o
LOAD ./packages/ali-iotkit-v3.0.1/iotkit-embedded/src/mqtt/impl/MQTTPacket.o
LOAD ./packages/ali-iotkit-v3.0.1/iotkit-embedded/src/mqtt/impl/MQTTSerializePublish.o
LOAD ./packages/ali-iotkit-v3.0.1/iotkit-embedded/src/mqtt/impl/MQTTSubscribeClient.o
LOAD ./packages/ali-iotkit-v3.0.1/iotkit-embedded/src/mqtt/impl/MQTTUnsubscribeClient.o
LOAD ./packages/ali-iotkit-v3.0.1/iotkit-embedded/src/mqtt/impl/iotx_mqtt_client.o
LOAD ./packages/ali-iotkit-v3.0.1/iotkit-embedded/src/mqtt/mqtt_api.o
LOAD ./packages/ali-iotkit-v3.0.1/iotkit-embedded/src/infra/infra_cjson.o
LOAD ./packages/ali-iotkit-v3.0.1/iotkit-embedded/src/infra/infra_compat.o
LOAD ./packages/ali-iotkit-v3.0.1/iotkit-embedded/src/infra/infra_defs.o
LOAD ./packages/ali-iotkit-v3.0.1/iotkit-embedded/src/infra/infra_log.o
LOAD ./packages/ali-iotkit-v3.0.1/iotkit-embedded/src/infra/infra_net.o
LOAD ./packages/ali-iotkit-v3.0.1/iotkit-embedded/src/infra/infra_prt_nwk_payload.o
LOAD ./packages/ali-iotkit-v3.0.1/iotkit-embedded/src/infra/infra_report.o
LOAD ./packages/ali-iotkit-v3.0.1/iotkit-embedded/src/infra/infra_sha256.o
LOAD ./packages/ali-iotkit-v3.0.1/iotkit-embedded/src/infra/infra_string.o
LOAD ./packages/ali-iotkit-v3.0.1/iotkit-embedded/src/infra/infra_timer.o
LOAD ./packages/ali-iotkit-v3.0.1/iotkit-embedded/src/dev_sign/dev_sign_mqtt.o
LOAD ./packages/ali-iotkit-v3.0.1/iotkit-embedded/src/dev_model/client/dm_client.o
LOAD ./packages/ali-iotkit-v3.0.1/iotkit-embedded/src/dev_model/client/dm_client_adapter.o
LOAD ./packages/ali-iotkit-v3.0.1/iotkit-embedded/src/dev_model/dm_api.o
LOAD ./packages/ali-iotkit-v3.0.1/iotkit-embedded/src/dev_model/dm_cota.o
LOAD ./packages/ali-iotkit-v3.0.1/iotkit-embedded/src/dev_model/dm_fota.o
LOAD ./packages/ali-iotkit-v3.0.1/iotkit-embedded/src/dev_model/dm_ipc.o
LOAD ./packages/ali-iotkit-v3.0.1/iotkit-embedded/src/dev_model/dm_log_report.o
LOAD ./packages/ali-iotkit-v3.0.1/iotkit-embedded/src/dev_model/dm_manager.o
LOAD ./packages/ali-iotkit-v3.0.1/iotkit-embedded/src/dev_model/dm_message.o
LOAD ./packages/ali-iotkit-v3.0.1/iotkit-embedded/src/dev_model/dm_message_cache.o
LOAD ./packages/ali-iotkit-v3.0.1/iotkit-embedded/src/dev_model/dm_msg_process.o
LOAD ./packages/ali-iotkit-v3.0.1/iotkit-embedded/src/dev_model/dm_opt.o
LOAD ./packages/ali-iotkit-v3.0.1/iotkit-embedded/src/dev_model/dm_ota.o
LOAD ./packages/ali-iotkit-v3.0.1/iotkit-embedded/src/dev_model/dm_utils.o
LOAD ./packages/ali-iotkit-v3.0.1/iotkit-embedded/src/dev_model/impl_linkkit.o
LOAD ./packages/ali-iotkit-v3.0.1/iotkit-embedded/src/dev_model/iotx_cm.o
LOAD ./packages/ali-iotkit-v3.0.1/iotkit-embedded/src/dev_model/iotx_cm_mqtt.o
LOAD ./libraries/HAL_Drivers/drv_common.o
LOAD ./libraries/HAL_Drivers/drv_gpio.o
LOAD ./libraries/HAL_Drivers/drv_usart_v2.o
LOAD ./board/ports/drv_rw007.o
LOAD c:/rt-threadstudio/repo/extract/toolchain_support_packages/arm/gnu_tools_for_arm_embedded_processors/10.2.1/bin/../lib/gcc/arm-none-eabi/10.2.1/../../../../arm-none-eabi/lib/thumb/v8-m.main+fp/hard\libm.a
LOAD c:/rt-threadstudio/repo/extract/toolchain_support_packages/arm/gnu_tools_for_arm_embedded_processors/10.2.1/bin/../lib/gcc/arm-none-eabi/10.2.1/../../../../arm-none-eabi/lib/thumb/v8-m.main+fp/hard\libc.a
START GROUP
LOAD c:/rt-threadstudio/repo/extract/toolchain_support_packages/arm/gnu_tools_for_arm_embedded_processors/10.2.1/bin/../lib/gcc/arm-none-eabi/10.2.1/thumb/v8-m.main+fp/hard\libgcc.a
LOAD c:/rt-threadstudio/repo/extract/toolchain_support_packages/arm/gnu_tools_for_arm_embedded_processors/10.2.1/bin/../lib/gcc/arm-none-eabi/10.2.1/../../../../arm-none-eabi/lib/thumb/v8-m.main+fp/hard\libc.a
END GROUP
LOAD c:/rt-threadstudio/repo/extract/toolchain_support_packages/arm/gnu_tools_for_arm_embedded_processors/10.2.1/bin/../lib/gcc/arm-none-eabi/10.2.1/thumb/v8-m.main+fp/hard/crtend.o
LOAD c:/rt-threadstudio/repo/extract/toolchain_support_packages/arm/gnu_tools_for_arm_embedded_processors/10.2.1/bin/../lib/gcc/arm-none-eabi/10.2.1/thumb/v8-m.main+fp/hard/crtn.o
                0x20000000                RAM_START = 0x20000000
                0x00040000                RAM_LENGTH = 0x40000
                0x00000000                FLASH_START = 0x0
                0x00100000                FLASH_LENGTH = 0x100000
                0x08000000                DATA_FLASH_START = 0x8000000
                0x00002000                DATA_FLASH_LENGTH = 0x2000
                0x0100a100                OPTION_SETTING_START = 0x100a100
                0x00000100                OPTION_SETTING_LENGTH = 0x100
                0x0100a200                OPTION_SETTING_S_START = 0x100a200
                0x00000100                OPTION_SETTING_S_LENGTH = 0x100
                0x00000000                ID_CODE_START = 0x0
                0x00000000                ID_CODE_LENGTH = 0x0
                0x90000000                SDRAM_START = 0x90000000
                0x00000000                SDRAM_LENGTH = 0x0
                0x60000000                QSPI_FLASH_START = 0x60000000
                0x04000000                QSPI_FLASH_LENGTH = 0x4000000
                0x68000000                OSPI_DEVICE_0_START = 0x68000000
                0x08000000                OSPI_DEVICE_0_LENGTH = 0x8000000
                0x70000000                OSPI_DEVICE_1_START = 0x70000000
                0x10000000                OSPI_DEVICE_1_LENGTH = 0x10000000
                0x04000000                QSPI_FLASH_PRV_LENGTH = DEFINED (QSPI_FLASH_SIZE)?ABSOLUTE (QSPI_FLASH_SIZE):ABSOLUTE (QSPI_FLASH_LENGTH)
                0x08000000                OSPI_DEVICE_0_PRV_LENGTH = DEFINED (OSPI_DEVICE_0_SIZE)?ABSOLUTE (OSPI_DEVICE_0_SIZE):ABSOLUTE (OSPI_DEVICE_0_LENGTH)
                0x10000000                OSPI_DEVICE_1_PRV_LENGTH = DEFINED (OSPI_DEVICE_1_SIZE)?ABSOLUTE (OSPI_DEVICE_1_SIZE):ABSOLUTE (OSPI_DEVICE_1_LENGTH)
                0x00000000                __RESERVE_NS_RAM = ((! (DEFINED (PROJECT_NONSECURE)) && DEFINED (RAM_NS_BUFFER_LENGTH)) && (OPTION_SETTING_S_LENGTH != 0x0))
                0x00000000                RAM_NS_BUFFER_BLOCK_LENGTH = DEFINED (RAM_NS_BUFFER_LENGTH)?ALIGN (RAM_NS_BUFFER_LENGTH, 0x2000):0x0
                0x00000000                RAM_NS_BUFFER_LENGTH = DEFINED (RAM_NS_BUFFER_LENGTH)?RAM_NS_BUFFER_LENGTH:0x0
                0x20040000                RAM_NS_BUFFER_START = ((RAM_START + RAM_LENGTH) - RAM_NS_BUFFER_LENGTH)
                0x20040000                RAM_NS_BUFFER_BLOCK_START = ((RAM_START + RAM_LENGTH) - RAM_NS_BUFFER_BLOCK_LENGTH)
                0x0100a180                OPTION_SETTING_START_NS = 0x100a180
                0x00000001                __bl_FSP_BOOTABLE_IMAGE = 0x1
                0x00000001                __bln_FSP_BOOTABLE_IMAGE = 0x1
                0x00000001                PROJECT_SECURE_OR_FLAT = ((! (DEFINED (PROJECT_NONSECURE)) && OPTION_SETTING_LENGTH) && ! (DEFINED (FSP_BOOTABLE_IMAGE)))
                0x00000000                USE_OPTION_SETTING_NS = (DEFINED (PROJECT_NONSECURE) && ! (DEFINED (FSP_BOOTABLE_IMAGE)))
                0x00000000                __bl_FLASH_IMAGE_START = ! (DEFINED (FLASH_BOOTLOADER_LENGTH))?0x0:(FLASH_APPLICATION_IMAGE_NUMBER == 0x1)?(FLASH_BOOTLOADER_LENGTH + FLASH_BOOTLOADER_HEADER_LENGTH):(((FLASH_BOOTLOADER_LENGTH + FLASH_BOOTLOADER_SCRATCH_LENGTH) + FLASH_APPLICATION_S_LENGTH) + FLASH_BOOTLOADER_HEADER_LENGTH)
                0x00000000                __bl_FLASH_IMAGE_LENGTH = ! (DEFINED (FLASH_BOOTLOADER_LENGTH))?0x0:(FLASH_APPLICATION_S_LENGTH - FLASH_BOOTLOADER_HEADER_LENGTH)
                0x00000000                __bl_FLASH_IMAGE_END = (__bl_FLASH_IMAGE_START + __bl_FLASH_IMAGE_LENGTH)
                0x00000000                __bl_FLASH_NS_START = ! (DEFINED (FLASH_BOOTLOADER_LENGTH))?0x0:(FLASH_APPLICATION_NS_LENGTH == 0x0)?__bl_FLASH_IMAGE_END:((__bl_FLASH_IMAGE_START - FLASH_BOOTLOADER_HEADER_LENGTH) + FLASH_APPLICATION_S_LENGTH)
                0x00000000                __bl_FLASH_NSC_START = ! (DEFINED (FLASH_BOOTLOADER_LENGTH))?0x0:(FLASH_APPLICATION_NS_LENGTH == 0x0)?__bl_FLASH_IMAGE_END:(__bl_FLASH_NS_START - FLASH_APPLICATION_NSC_LENGTH)
                0x00000000                __bl_RAM_NS_START = ! (DEFINED (FLASH_BOOTLOADER_LENGTH))?0x0:(FLASH_APPLICATION_NS_LENGTH == 0x0)?(RAM_START + RAM_LENGTH):((RAM_START + RAM_LENGTH) - RAM_APPLICATION_NS_LENGTH)
                0x00000000                __bl_RAM_NSC_START = ! (DEFINED (FLASH_BOOTLOADER_LENGTH))?0x0:(FLASH_APPLICATION_NS_LENGTH == 0x0)?(RAM_START + RAM_LENGTH):(__bl_RAM_NS_START - RAM_APPLICATION_NSC_LENGTH)
                0x00000000                __bl_FLASH_NS_IMAGE_START = ! (DEFINED (FLASH_BOOTLOADER_LENGTH))?0x0:(FLASH_APPLICATION_NS_LENGTH == 0x0)?__bl_FLASH_IMAGE_END:(__bl_FLASH_NS_START + FLASH_BOOTLOADER_HEADER_LENGTH_2)
                0x00000000                __bln_FLASH_IMAGE_START = __bl_FLASH_NS_IMAGE_START
                0x00000000                __bln_FLASH_IMAGE_LENGTH = ! (DEFINED (FLASH_BOOTLOADER_LENGTH))?0x0:(FLASH_APPLICATION_NS_LENGTH == 0x0)?__bl_FLASH_IMAGE_END:(FLASH_APPLICATION_NS_LENGTH - FLASH_BOOTLOADER_HEADER_LENGTH_2)
                0x00000000                FLASH_ORIGIN = DEFINED (FLASH_IMAGE_START)?FLASH_IMAGE_START:FLASH_START
                0x00100000                LIMITED_FLASH_LENGTH = DEFINED (FLASH_IMAGE_LENGTH)?FLASH_IMAGE_LENGTH:DEFINED (FLASH_BOOTLOADER_LENGTH)?FLASH_BOOTLOADER_LENGTH:FLASH_LENGTH
START GROUP
LOAD c:/rt-threadstudio/repo/extract/toolchain_support_packages/arm/gnu_tools_for_arm_embedded_processors/10.2.1/bin/../lib/gcc/arm-none-eabi/10.2.1/thumb/v8-m.main+fp/hard\libgcc.a
LOAD c:/rt-threadstudio/repo/extract/toolchain_support_packages/arm/gnu_tools_for_arm_embedded_processors/10.2.1/bin/../lib/gcc/arm-none-eabi/10.2.1/../../../../arm-none-eabi/lib/thumb/v8-m.main+fp/hard\libc.a
LOAD c:/rt-threadstudio/repo/extract/toolchain_support_packages/arm/gnu_tools_for_arm_embedded_processors/10.2.1/bin/../lib/gcc/arm-none-eabi/10.2.1/../../../../arm-none-eabi/lib/thumb/v8-m.main+fp/hard\libm.a
LOAD c:/rt-threadstudio/repo/extract/toolchain_support_packages/arm/gnu_tools_for_arm_embedded_processors/10.2.1/bin/../lib/gcc/arm-none-eabi/10.2.1/../../../../arm-none-eabi/lib/thumb/v8-m.main+fp/hard\libnosys.a
END GROUP

.text           0x00000000    0x37520
                0x00000000                __tz_FLASH_S = ABSOLUTE (FLASH_START)
                0x00000000                __ROM_Start = .
 *(.fixed_vectors*)
 .fixed_vectors
                0x00000000       0x40 ./ra/fsp/src/bsp/cmsis/Device/RENESAS/Source/startup.o
                0x00000000                __Vectors
 *(.application_vectors*)
 .application_vectors
                0x00000040      0x180 ./ra_gen/vector_data.o
                0x00000040                g_vector_table
                0x000001c0                __Vectors_End = .
                0x000001c0                . = (OPTION_SETTING_LENGTH > 0x0)?.:(__ROM_Start + 0x400)
 *(.rom_registers*)
                0x000001c0                . = (OPTION_SETTING_LENGTH > 0x0)?.:(__ROM_Start + 0x500)
                0x00000200                . = ALIGN (0x80)
 *fill*         0x000001c0       0x40 ff
 *(.mcuboot_sce9_key*)
 *(.text*)
 .text          0x00000200       0x40 c:/rt-threadstudio/repo/extract/toolchain_support_packages/arm/gnu_tools_for_arm_embedded_processors/10.2.1/bin/../lib/gcc/arm-none-eabi/10.2.1/thumb/v8-m.main+fp/hard/crtbegin.o
 .text.aliyun_publish
                0x00000240       0xfc ./src/aliyun_mqtt.o
                0x00000240                aliyun_publish
 .text.example_event_handle
                0x0000033c       0x48 ./src/aliyun_mqtt.o
 .text.aliyun_mqtt_init
                0x00000384       0x90 ./src/aliyun_mqtt.o
                0x00000384                aliyun_mqtt_init
 .text.get_node_data_callback
                0x00000414      0x100 ./src/hal_entry.o
                0x00000414                get_node_data_callback
 .text.hal_entry
                0x00000514       0xe8 ./src/hal_entry.o
                0x00000514                hal_entry
 .text.lora_as32_set_mode
                0x000005fc       0xd8 ./src/lora_as32.o
 .text.lora_as32_set_addr_and_channel
                0x000006d4      0x150 ./src/lora_as32.o
 .text.lora_as32_reset
                0x00000824       0xb0 ./src/lora_as32.o
 .text.lora_as32_get_arg
                0x000008d4       0xf4 ./src/lora_as32.o
 .text.lora_rev_arg_handler
                0x000009c8      0x170 ./src/lora_as32.o
 .text.lora_uart_callback
                0x00000b38       0x28 ./src/lora_as32.o
 .text.lora_uart_cal_fcs
                0x00000b60       0x42 ./src/lora_as32.o
 *fill*         0x00000ba2        0x2 ff
 .text.lora_rev_process_thread
                0x00000ba4      0x174 ./src/lora_as32.o
 .text.lora_as32_init
                0x00000d18      0x23c ./src/lora_as32.o
 .text.lora_as32_open
                0x00000f54      0x110 ./src/lora_as32.o
 .text.lora_as32_close
                0x00001064       0x22 ./src/lora_as32.o
 .text.lora_as32_read
                0x00001086       0x4c ./src/lora_as32.o
 *fill*         0x000010d2        0x2 ff
 .text.lora_as32_write
                0x000010d4      0x12c ./src/lora_as32.o
 .text.lora_as32_control
                0x00001200       0xa8 ./src/lora_as32.o
 .text.hw_lora_as32_register
                0x000012a8       0x90 ./src/lora_as32.o
                0x000012a8                hw_lora_as32_register
 .text.lora_as32_register
                0x00001338       0x14 ./src/lora_as32.o
                0x00001338                lora_as32_register
 .text.create_json_th_sensor_msg
                0x0000134c      0x1c0 ./src/lora_json_msg_obj.o
                0x0000134c                create_json_th_sensor_msg
 .text.create_json_light_sensor_msg
                0x0000150c      0x16c ./src/lora_json_msg_obj.o
                0x0000150c                create_json_light_sensor_msg
 .text.rt_list_init
                0x00001678       0x22 ./src/lora_net_manager.o
 .text.rt_list_insert_before
                0x0000169a       0x32 ./src/lora_net_manager.o
 .text.rt_list_remove
                0x000016cc       0x36 ./src/lora_net_manager.o
 .text.rt_list_len
                0x00001702       0x36 ./src/lora_net_manager.o
 .text.lora_node_list_init
                0x00001738       0x44 ./src/lora_net_manager.o
 .text.find_lora_node
                0x0000177c       0x68 ./src/lora_net_manager.o
 .text.add_lora_node
                0x000017e4       0x64 ./src/lora_net_manager.o
 .text.delete_lora_node
                0x00001848       0x80 ./src/lora_net_manager.o
 .text.get_lora_node_addr_list
                0x000018c8       0x60 ./src/lora_net_manager.o
 .text.update_lora_net_online_list
                0x00001928       0xf8 ./src/lora_net_manager.o
                0x00001928                update_lora_net_online_list
 .text.lora_net_send_msg
                0x00001a20       0x6c ./src/lora_net_manager.o
                0x00001a20                lora_net_send_msg
 .text.lora_net_send_cmd
                0x00001a8c       0x46 ./src/lora_net_manager.o
                0x00001a8c                lora_net_send_cmd
 *fill*         0x00001ad2        0x2 ff
 .text.add_new_lora_node
                0x00001ad4       0x98 ./src/lora_net_manager.o
 .text.is_lora_node_addr_in_net
                0x00001b6c       0x40 ./src/lora_net_manager.o
                0x00001b6c                is_lora_node_addr_in_net
 .text.lora_net_communication_process
                0x00001bac      0x23c ./src/lora_net_manager.o
                0x00001bac                lora_net_communication_process
 .text.heartbeat_timer_process
                0x00001de8       0x40 ./src/lora_net_manager.o
 .text.lora_net_manager_init
                0x00001e28      0x124 ./src/lora_net_manager.o
                0x00001e28                lora_net_manager_init
 .text.rt_tick_get
                0x00001f4c       0x18 ./rt-thread/src/clock.o
                0x00001f4c                rt_tick_get
 .text.rt_tick_increase
                0x00001f64       0x7c ./rt-thread/src/clock.o
                0x00001f64                rt_tick_increase
 .text.rt_tick_from_millisecond
                0x00001fe0       0x78 ./rt-thread/src/clock.o
                0x00001fe0                rt_tick_from_millisecond
 .text.rti_start
                0x00002058       0x10 ./rt-thread/src/components.o
 .text.rti_board_start
                0x00002068       0x10 ./rt-thread/src/components.o
 .text.rti_board_end
                0x00002078       0x10 ./rt-thread/src/components.o
 .text.rti_end  0x00002088       0x10 ./rt-thread/src/components.o
 .text.rt_components_board_init
                0x00002098       0x34 ./rt-thread/src/components.o
                0x00002098                rt_components_board_init
 .text.rt_components_init
                0x000020cc       0x34 ./rt-thread/src/components.o
                0x000020cc                rt_components_init
 .text.entry    0x00002100        0xe ./rt-thread/src/components.o
                0x00002100                entry
 .text.main_thread_entry
                0x0000210e       0x18 ./rt-thread/src/components.o
                0x0000210e                main_thread_entry
 *fill*         0x00002126        0x2 ff
 .text.rt_application_init
                0x00002128       0x4c ./rt-thread/src/components.o
                0x00002128                rt_application_init
 .text.rtthread_startup
                0x00002174       0x2e ./rt-thread/src/components.o
                0x00002174                rtthread_startup
 .text.rt_device_register
                0x000021a2       0x54 ./rt-thread/src/device.o
                0x000021a2                rt_device_register
 .text.rt_device_find
                0x000021f6       0x1a ./rt-thread/src/device.o
                0x000021f6                rt_device_find
 .text.rt_device_init
                0x00002210       0x78 ./rt-thread/src/device.o
                0x00002210                rt_device_init
 .text.rt_device_open
                0x00002288      0x124 ./rt-thread/src/device.o
                0x00002288                rt_device_open
 .text.rt_device_close
                0x000023ac       0xa0 ./rt-thread/src/device.o
                0x000023ac                rt_device_close
 .text.rt_device_read
                0x0000244c       0x8c ./rt-thread/src/device.o
                0x0000244c                rt_device_read
 .text.rt_device_write
                0x000024d8       0x8c ./rt-thread/src/device.o
                0x000024d8                rt_device_write
 .text.rt_device_control
                0x00002564       0x6c ./rt-thread/src/device.o
                0x00002564                rt_device_control
 .text.rt_device_set_rx_indicate
                0x000025d0       0x54 ./rt-thread/src/device.o
                0x000025d0                rt_device_set_rx_indicate
 .text.rt_list_insert_after
                0x00002624       0x32 ./rt-thread/src/idle.o
 .text.rt_list_remove
                0x00002656       0x36 ./rt-thread/src/idle.o
 .text.rt_thread_defunct_enqueue
                0x0000268c       0x20 ./rt-thread/src/idle.o
                0x0000268c                rt_thread_defunct_enqueue
 .text.rt_thread_defunct_dequeue
                0x000026ac       0x44 ./rt-thread/src/idle.o
                0x000026ac                rt_thread_defunct_dequeue
 .text.rt_defunct_execute
                0x000026f0       0x54 ./rt-thread/src/idle.o
 .text.rt_thread_idle_entry
                0x00002744       0x38 ./rt-thread/src/idle.o
 .text.rt_thread_idle_init
                0x0000277c       0x78 ./rt-thread/src/idle.o
                0x0000277c                rt_thread_idle_init
 .text.rt_list_init
                0x000027f4       0x22 ./rt-thread/src/ipc.o
 .text.rt_list_insert_before
                0x00002816       0x32 ./rt-thread/src/ipc.o
 .text.rt_list_isempty
                0x00002848       0x24 ./rt-thread/src/ipc.o
 .text._ipc_object_init
                0x0000286c       0x1c ./rt-thread/src/ipc.o
 .text._ipc_list_suspend
                0x00002888       0xa4 ./rt-thread/src/ipc.o
 .text._ipc_list_resume
                0x0000292c       0x20 ./rt-thread/src/ipc.o
 .text._ipc_list_resume_all
                0x0000294c       0x46 ./rt-thread/src/ipc.o
 *fill*         0x00002992        0x2 ff
 .text.rt_sem_init
                0x00002994       0x88 ./rt-thread/src/ipc.o
                0x00002994                rt_sem_init
 .text.rt_sem_detach
                0x00002a1c       0x7c ./rt-thread/src/ipc.o
                0x00002a1c                rt_sem_detach
 .text.rt_sem_create
                0x00002a98       0xac ./rt-thread/src/ipc.o
                0x00002a98                rt_sem_create
 .text.rt_sem_delete
                0x00002b44       0xac ./rt-thread/src/ipc.o
                0x00002b44                rt_sem_delete
 .text.rt_sem_take
                0x00002bf0      0x194 ./rt-thread/src/ipc.o
                0x00002bf0                rt_sem_take
 .text.rt_sem_trytake
                0x00002d84       0x1a ./rt-thread/src/ipc.o
                0x00002d84                rt_sem_trytake
 *fill*         0x00002d9e        0x2 ff
 .text.rt_sem_release
                0x00002da0       0xbc ./rt-thread/src/ipc.o
                0x00002da0                rt_sem_release
 .text.rt_sem_control
                0x00002e5c       0x84 ./rt-thread/src/ipc.o
                0x00002e5c                rt_sem_control
 .text.rt_mutex_init
                0x00002ee0       0x64 ./rt-thread/src/ipc.o
                0x00002ee0                rt_mutex_init
 .text.rt_mutex_create
                0x00002f44       0x88 ./rt-thread/src/ipc.o
                0x00002f44                rt_mutex_create
 .text.rt_mutex_delete
                0x00002fcc       0xac ./rt-thread/src/ipc.o
                0x00002fcc                rt_mutex_delete
 .text.rt_mutex_take
                0x00003078      0x21c ./rt-thread/src/ipc.o
                0x00003078                rt_mutex_take
 .text.rt_mutex_release
                0x00003294      0x1bc ./rt-thread/src/ipc.o
                0x00003294                rt_mutex_release
 .text.rt_event_init
                0x00003450       0x70 ./rt-thread/src/ipc.o
                0x00003450                rt_event_init
 .text.rt_event_create
                0x000034c0       0x90 ./rt-thread/src/ipc.o
                0x000034c0                rt_event_create
 .text.rt_event_send
                0x00003550      0x158 ./rt-thread/src/ipc.o
                0x00003550                rt_event_send
 .text.rt_event_recv
                0x000036a8      0x24c ./rt-thread/src/ipc.o
                0x000036a8                rt_event_recv
 .text.rt_mq_init
                0x000038f4       0xec ./rt-thread/src/ipc.o
                0x000038f4                rt_mq_init
 .text.rt_mq_send_wait
                0x000039e0      0x2b8 ./rt-thread/src/ipc.o
                0x000039e0                rt_mq_send_wait
 .text.rt_mq_send
                0x00003c98       0x22 ./rt-thread/src/ipc.o
                0x00003c98                rt_mq_send
 *fill*         0x00003cba        0x2 ff
 .text.rt_mq_recv
                0x00003cbc      0x2c0 ./rt-thread/src/ipc.o
                0x00003cbc                rt_mq_recv
 .text.rt_interrupt_enter
                0x00003f7c       0x40 ./rt-thread/src/irq.o
                0x00003f7c                rt_interrupt_enter
 .text.rt_interrupt_leave
                0x00003fbc       0x40 ./rt-thread/src/irq.o
                0x00003fbc                rt_interrupt_leave
 .text.rt_interrupt_get_nest
                0x00003ffc       0x28 ./rt-thread/src/irq.o
                0x00003ffc                rt_interrupt_get_nest
 .text.rt_set_errno
                0x00004024       0x40 ./rt-thread/src/kservice.o
                0x00004024                rt_set_errno
 .text._rt_errno
                0x00004064       0x34 ./rt-thread/src/kservice.o
                0x00004064                _rt_errno
 .text.rt_memset
                0x00004098       0xb6 ./rt-thread/src/kservice.o
                0x00004098                rt_memset
 .text.rt_memcpy
                0x0000414e       0xd2 ./rt-thread/src/kservice.o
                0x0000414e                rt_memcpy
 .text.rt_memmove
                0x00004220       0x82 ./rt-thread/src/kservice.o
                0x00004220                rt_memmove
 .text.rt_memcmp
                0x000042a2       0x58 ./rt-thread/src/kservice.o
                0x000042a2                rt_memcmp
 .text.rt_strstr
                0x000042fa       0x5e ./rt-thread/src/kservice.o
                0x000042fa                rt_strstr
 .text.rt_strncpy
                0x00004358       0x64 ./rt-thread/src/kservice.o
                0x00004358                rt_strncpy
 .text.rt_strncmp
                0x000043bc       0x4a ./rt-thread/src/kservice.o
                0x000043bc                rt_strncmp
 .text.rt_strcmp
                0x00004406       0x44 ./rt-thread/src/kservice.o
                0x00004406                rt_strcmp
 .text.rt_strlen
                0x0000444a       0x2e ./rt-thread/src/kservice.o
                0x0000444a                rt_strlen
 .text.rt_strdup
                0x00004478       0x3a ./rt-thread/src/kservice.o
                0x00004478                rt_strdup
 *fill*         0x000044b2        0x2 ff
 .text.rt_show_version
                0x000044b4       0x4c ./rt-thread/src/kservice.o
                0x000044b4                rt_show_version
 .text.divide   0x00004500       0x68 ./rt-thread/src/kservice.o
 .text.skip_atoi
                0x00004568       0x40 ./rt-thread/src/kservice.o
 .text.print_number
                0x000045a8      0x1dc ./rt-thread/src/kservice.o
 .text.rt_vsnprintf
                0x00004784      0x4ac ./rt-thread/src/kservice.o
                0x00004784                rt_vsnprintf
 .text.rt_snprintf
                0x00004c30       0x30 ./rt-thread/src/kservice.o
                0x00004c30                rt_snprintf
 .text.rt_vsprintf
                0x00004c60       0x24 ./rt-thread/src/kservice.o
                0x00004c60                rt_vsprintf
 .text.rt_sprintf
                0x00004c84       0x2c ./rt-thread/src/kservice.o
                0x00004c84                rt_sprintf
 .text.rt_console_get_device
                0x00004cb0       0x18 ./rt-thread/src/kservice.o
                0x00004cb0                rt_console_get_device
 .text.rt_console_set_device
                0x00004cc8       0x58 ./rt-thread/src/kservice.o
                0x00004cc8                rt_console_set_device
 .text.rt_hw_console_output
                0x00004d20       0x14 ./rt-thread/src/kservice.o
                0x00004d20                rt_hw_console_output
 .text.rt_kprintf
                0x00004d34       0x60 ./rt-thread/src/kservice.o
                0x00004d34                rt_kprintf
 .text._heap_lock_init
                0x00004d94       0x1c ./rt-thread/src/kservice.o
 .text._heap_lock
                0x00004db0       0x28 ./rt-thread/src/kservice.o
 .text._heap_unlock
                0x00004dd8       0x40 ./rt-thread/src/kservice.o
 .text._smem_info
                0x00004e18       0x4c ./rt-thread/src/kservice.o
 .text.rt_system_heap_init
                0x00004e64       0x64 ./rt-thread/src/kservice.o
                0x00004e64                rt_system_heap_init
 .text.rt_malloc
                0x00004ec8       0x48 ./rt-thread/src/kservice.o
                0x00004ec8                rt_malloc
 .text.rt_realloc
                0x00004f10       0x34 ./rt-thread/src/kservice.o
                0x00004f10                rt_realloc
 .text.rt_calloc
                0x00004f44       0x3c ./rt-thread/src/kservice.o
                0x00004f44                rt_calloc
 .text.rt_free  0x00004f80       0x38 ./rt-thread/src/kservice.o
                0x00004f80                rt_free
 .text.rt_memory_info
                0x00004fb8       0x2a ./rt-thread/src/kservice.o
                0x00004fb8                rt_memory_info
 *fill*         0x00004fe2        0x2 ff
 .text.rt_assert_handler
                0x00004fe4       0x4c ./rt-thread/src/kservice.o
                0x00004fe4                rt_assert_handler
 .text.plug_holes
                0x00005030       0xf8 ./rt-thread/src/mem.o
 .text.rt_smem_init
                0x00005128      0x104 ./rt-thread/src/mem.o
                0x00005128                rt_smem_init
 .text.rt_smem_alloc
                0x0000522c      0x268 ./rt-thread/src/mem.o
                0x0000522c                rt_smem_alloc
 .text.rt_smem_realloc
                0x00005494      0x1d4 ./rt-thread/src/mem.o
                0x00005494                rt_smem_realloc
 .text.rt_smem_free
                0x00005668      0x140 ./rt-thread/src/mem.o
                0x00005668                rt_smem_free
 .text.rt_list_insert_after
                0x000057a8       0x32 ./rt-thread/src/object.o
 .text.rt_list_remove
                0x000057da       0x36 ./rt-thread/src/object.o
 .text.rt_object_get_information
                0x00005810       0x48 ./rt-thread/src/object.o
                0x00005810                rt_object_get_information
 .text.rt_object_init
                0x00005858       0xcc ./rt-thread/src/object.o
                0x00005858                rt_object_init
 .text.rt_object_detach
                0x00005924       0x5c ./rt-thread/src/object.o
                0x00005924                rt_object_detach
 .text.rt_object_allocate
                0x00005980       0xd8 ./rt-thread/src/object.o
                0x00005980                rt_object_allocate
 .text.rt_object_delete
                0x00005a58       0x7c ./rt-thread/src/object.o
                0x00005a58                rt_object_delete
 .text.rt_object_is_systemobject
                0x00005ad4       0x3c ./rt-thread/src/object.o
                0x00005ad4                rt_object_is_systemobject
 .text.rt_object_get_type
                0x00005b10       0x34 ./rt-thread/src/object.o
                0x00005b10                rt_object_get_type
 .text.rt_object_find
                0x00005b44       0xb4 ./rt-thread/src/object.o
                0x00005b44                rt_object_find
 .text.rt_list_init
                0x00005bf8       0x22 ./rt-thread/src/scheduler.o
 .text.rt_list_insert_before
                0x00005c1a       0x32 ./rt-thread/src/scheduler.o
 .text.rt_list_remove
                0x00005c4c       0x36 ./rt-thread/src/scheduler.o
 .text.rt_list_isempty
                0x00005c82       0x24 ./rt-thread/src/scheduler.o
 *fill*         0x00005ca6        0x2 ff
 .text._rt_scheduler_stack_check
                0x00005ca8       0x94 ./rt-thread/src/scheduler.o
 .text._scheduler_get_highest_priority_thread
                0x00005d3c       0x38 ./rt-thread/src/scheduler.o
 .text.rt_system_scheduler_init
                0x00005d74       0x38 ./rt-thread/src/scheduler.o
                0x00005d74                rt_system_scheduler_init
 .text.rt_system_scheduler_start
                0x00005dac       0x38 ./rt-thread/src/scheduler.o
                0x00005dac                rt_system_scheduler_start
 .text.rt_schedule
                0x00005de4      0x19c ./rt-thread/src/scheduler.o
                0x00005de4                rt_schedule
 .text.rt_schedule_insert_thread
                0x00005f80       0xac ./rt-thread/src/scheduler.o
                0x00005f80                rt_schedule_insert_thread
 .text.rt_schedule_remove_thread
                0x0000602c       0x70 ./rt-thread/src/scheduler.o
                0x0000602c                rt_schedule_remove_thread
 .text.rt_enter_critical
                0x0000609c       0x2c ./rt-thread/src/scheduler.o
                0x0000609c                rt_enter_critical
 .text.rt_exit_critical
                0x000060c8       0x54 ./rt-thread/src/scheduler.o
                0x000060c8                rt_exit_critical
 .text.rt_critical_level
                0x0000611c       0x1c ./rt-thread/src/scheduler.o
                0x0000611c                rt_critical_level
 .text.rt_list_init
                0x00006138       0x22 ./rt-thread/src/thread.o
 .text.rt_list_remove
                0x0000615a       0x36 ./rt-thread/src/thread.o
 .text._thread_exit
                0x00006190       0x42 ./rt-thread/src/thread.o
 *fill*         0x000061d2        0x2 ff
 .text._thread_timeout
                0x000061d4       0x8c ./rt-thread/src/thread.o
 .text._thread_init
                0x00006260      0x104 ./rt-thread/src/thread.o
 .text.rt_thread_init
                0x00006364       0x70 ./rt-thread/src/thread.o
                0x00006364                rt_thread_init
 .text.rt_thread_self
                0x000063d4       0x18 ./rt-thread/src/thread.o
                0x000063d4                rt_thread_self
 .text.rt_thread_startup
                0x000063ec       0x94 ./rt-thread/src/thread.o
                0x000063ec                rt_thread_startup
 .text.rt_thread_detach
                0x00006480       0xb0 ./rt-thread/src/thread.o
                0x00006480                rt_thread_detach
 .text.rt_thread_create
                0x00006530       0x62 ./rt-thread/src/thread.o
                0x00006530                rt_thread_create
 *fill*         0x00006592        0x2 ff
 .text.rt_thread_delete
                0x00006594       0xb0 ./rt-thread/src/thread.o
                0x00006594                rt_thread_delete
 .text.rt_thread_sleep
                0x00006644       0x94 ./rt-thread/src/thread.o
                0x00006644                rt_thread_sleep
 .text.rt_thread_delay
                0x000066d8       0x18 ./rt-thread/src/thread.o
                0x000066d8                rt_thread_delay
 .text.rt_thread_mdelay
                0x000066f0       0x20 ./rt-thread/src/thread.o
                0x000066f0                rt_thread_mdelay
 .text.rt_thread_control
                0x00006710       0xfc ./rt-thread/src/thread.o
                0x00006710                rt_thread_control
 .text.rt_thread_suspend
                0x0000680c       0xc8 ./rt-thread/src/thread.o
                0x0000680c                rt_thread_suspend
 .text.rt_thread_resume
                0x000068d4       0x98 ./rt-thread/src/thread.o
                0x000068d4                rt_thread_resume
 .text.rt_list_init
                0x0000696c       0x22 ./rt-thread/src/timer.o
 .text.rt_list_insert_after
                0x0000698e       0x32 ./rt-thread/src/timer.o
 .text.rt_list_remove
                0x000069c0       0x36 ./rt-thread/src/timer.o
 .text.rt_list_isempty
                0x000069f6       0x24 ./rt-thread/src/timer.o
 .text._timer_init
                0x00006a1a       0x6a ./rt-thread/src/timer.o
 .text._timer_list_next_timeout
                0x00006a84       0x3e ./rt-thread/src/timer.o
 .text._timer_remove
                0x00006ac2       0x36 ./rt-thread/src/timer.o
 .text.rt_timer_init
                0x00006af8       0x7c ./rt-thread/src/timer.o
                0x00006af8                rt_timer_init
 .text.rt_timer_detach
                0x00006b74       0x90 ./rt-thread/src/timer.o
                0x00006b74                rt_timer_detach
 .text.rt_timer_start
                0x00006c04      0x224 ./rt-thread/src/timer.o
                0x00006c04                rt_timer_start
 .text.rt_timer_stop
                0x00006e28       0x94 ./rt-thread/src/timer.o
                0x00006e28                rt_timer_stop
 .text.rt_timer_control
                0x00006ebc       0xdc ./rt-thread/src/timer.o
                0x00006ebc                rt_timer_control
 .text.rt_timer_check
                0x00006f98      0x108 ./rt-thread/src/timer.o
                0x00006f98                rt_timer_check
 .text.rt_soft_timer_check
                0x000070a0      0x11c ./rt-thread/src/timer.o
                0x000070a0                rt_soft_timer_check
 .text._timer_thread_entry
                0x000071bc       0x58 ./rt-thread/src/timer.o
 .text.rt_system_timer_init
                0x00007214       0x34 ./rt-thread/src/timer.o
                0x00007214                rt_system_timer_init
 .text.rt_system_timer_thread_init
                0x00007248       0x68 ./rt-thread/src/timer.o
                0x00007248                rt_system_timer_thread_init
 .text          0x000072b0      0x13c ./rt-thread/libcpu/arm/cortex-m4/context_gcc.o
                0x000072b0                rt_hw_interrupt_disable
                0x000072b8                rt_hw_interrupt_enable
                0x000072be                rt_hw_context_switch_interrupt
                0x000072be                rt_hw_context_switch
                0x000072de                PendSV_Handler
                0x0000734a                rt_hw_context_switch_to
                0x00007390                rt_hw_interrupt_thread_switch
                0x00007394                HardFault_Handler
 .text.rt_hw_stack_init
                0x000073ec       0x90 ./rt-thread/libcpu/arm/cortex-m4/cpuport.o
                0x000073ec                rt_hw_stack_init
 .text.usage_fault_track
                0x0000747c       0xc4 ./rt-thread/libcpu/arm/cortex-m4/cpuport.o
 .text.bus_fault_track
                0x00007540       0xcc ./rt-thread/libcpu/arm/cortex-m4/cpuport.o
 .text.mem_manage_fault_track
                0x0000760c       0xb4 ./rt-thread/libcpu/arm/cortex-m4/cpuport.o
 .text.hard_fault_track
                0x000076c0       0x78 ./rt-thread/libcpu/arm/cortex-m4/cpuport.o
 .text.rt_hw_hard_fault_exception
                0x00007738      0x184 ./rt-thread/libcpu/arm/cortex-m4/cpuport.o
                0x00007738                rt_hw_hard_fault_exception
 .text.__rt_ffs
                0x000078bc       0x2a ./rt-thread/libcpu/arm/cortex-m4/cpuport.o
                0x000078bc                __rt_ffs
 *fill*         0x000078e6        0x2 ff
 .text.sal_init
                0x000078e8       0xac ./rt-thread/components/net/sal/src/sal_socket.o
                0x000078e8                sal_init
 .text.check_netdev_internet_up_work
                0x00007994      0x2d4 ./rt-thread/components/net/sal/src/sal_socket.o
 .text.sal_check_netdev_internet_up
                0x00007c68       0x84 ./rt-thread/components/net/sal/src/sal_socket.o
                0x00007c68                sal_check_netdev_internet_up
 .text.sal_get_socket
                0x00007cec       0x64 ./rt-thread/components/net/sal/src/sal_socket.o
                0x00007cec                sal_get_socket
 .text.sal_lock
                0x00007d50       0x38 ./rt-thread/components/net/sal/src/sal_socket.o
 .text.sal_unlock
                0x00007d88       0x14 ./rt-thread/components/net/sal/src/sal_socket.o
 .text.socket_init
                0x00007d9c       0xec ./rt-thread/components/net/sal/src/sal_socket.o
 .text.socket_alloc
                0x00007e88       0xfc ./rt-thread/components/net/sal/src/sal_socket.o
 .text.socket_free
                0x00007f84       0x34 ./rt-thread/components/net/sal/src/sal_socket.o
 .text.socket_new
                0x00007fb8       0x68 ./rt-thread/components/net/sal/src/sal_socket.o
 .text.socket_delete
                0x00008020       0x70 ./rt-thread/components/net/sal/src/sal_socket.o
 .text.sal_connect
                0x00008090       0x6a ./rt-thread/components/net/sal/src/sal_socket.o
                0x00008090                sal_connect
 .text.sal_recvfrom
                0x000080fa       0x74 ./rt-thread/components/net/sal/src/sal_socket.o
                0x000080fa                sal_recvfrom
 .text.sal_sendto
                0x0000816e       0x74 ./rt-thread/components/net/sal/src/sal_socket.o
                0x0000816e                sal_sendto
 *fill*         0x000081e2        0x2 ff
 .text.sal_socket
                0x000081e4       0xc8 ./rt-thread/components/net/sal/src/sal_socket.o
                0x000081e4                sal_socket
 .text.sal_closesocket
                0x000082ac       0x68 ./rt-thread/components/net/sal/src/sal_socket.o
                0x000082ac                sal_closesocket
 .text.sal_ioctlsocket
                0x00008314       0x54 ./rt-thread/components/net/sal/src/sal_socket.o
                0x00008314                sal_ioctlsocket
 .text.sal_poll
                0x00008368       0x66 ./rt-thread/components/net/sal/src/sal_socket.o
                0x00008368                sal_poll
 *fill*         0x000083ce        0x2 ff
 .text.sal_getaddrinfo
                0x000083d0      0x110 ./rt-thread/components/net/sal/src/sal_socket.o
                0x000083d0                sal_getaddrinfo
 .text.sal_freeaddrinfo
                0x000084e0       0xa4 ./rt-thread/components/net/sal/src/sal_socket.o
                0x000084e0                sal_freeaddrinfo
 .text.freeaddrinfo
                0x00008584       0x16 ./rt-thread/components/net/sal/socket/net_netdb.o
                0x00008584                freeaddrinfo
 .text.getaddrinfo
                0x0000859a       0x24 ./rt-thread/components/net/sal/socket/net_netdb.o
                0x0000859a                getaddrinfo
 .text.connect  0x000085be       0x28 ./rt-thread/components/net/sal/socket/net_sockets.o
                0x000085be                connect
 .text.recv     0x000085e6       0x34 ./rt-thread/components/net/sal/socket/net_sockets.o
                0x000085e6                recv
 .text.send     0x0000861a       0x34 ./rt-thread/components/net/sal/socket/net_sockets.o
                0x0000861a                send
 .text.socket   0x0000864e       0x98 ./rt-thread/components/net/sal/socket/net_sockets.o
                0x0000864e                socket
 .text.rt_poll_add
                0x000086e6       0x30 ./rt-thread/components/net/sal/impl/af_inet_at.o
 .text.at_poll  0x00008716       0x8a ./rt-thread/components/net/sal/impl/af_inet_at.o
 .text.sal_at_netdev_set_pf_info
                0x000087a0       0x34 ./rt-thread/components/net/sal/impl/af_inet_at.o
                0x000087a0                sal_at_netdev_set_pf_info
 .text.dfs_net_getsocket
                0x000087d4       0x42 ./rt-thread/components/net/sal/dfs_net/dfs_net.o
                0x000087d4                dfs_net_getsocket
 .text.dfs_net_ioctl
                0x00008816       0x26 ./rt-thread/components/net/sal/dfs_net/dfs_net.o
 .text.dfs_net_read
                0x0000883c       0x30 ./rt-thread/components/net/sal/dfs_net/dfs_net.o
 .text.dfs_net_write
                0x0000886c       0x30 ./rt-thread/components/net/sal/dfs_net/dfs_net.o
 .text.dfs_net_close
                0x0000889c       0x1e ./rt-thread/components/net/sal/dfs_net/dfs_net.o
 .text.dfs_net_poll
                0x000088ba       0x1c ./rt-thread/components/net/sal/dfs_net/dfs_net.o
 *fill*         0x000088d6        0x2 ff
 .text.dfs_net_get_fops
                0x000088d8       0x14 ./rt-thread/components/net/sal/dfs_net/dfs_net.o
                0x000088d8                dfs_net_get_fops
 .text.rt_slist_init
                0x000088ec       0x1a ./rt-thread/components/net/netdev/src/netdev.o
 .text.rt_slist_append
                0x00008906       0x36 ./rt-thread/components/net/netdev/src/netdev.o
 .text.rt_slist_next
                0x0000893c       0x18 ./rt-thread/components/net/netdev/src/netdev.o
 .text.netdev_register
                0x00008954      0x140 ./rt-thread/components/net/netdev/src/netdev.o
                0x00008954                netdev_register
 .text.netdev_get_first_by_flags
                0x00008a94       0x70 ./rt-thread/components/net/netdev/src/netdev.o
                0x00008a94                netdev_get_first_by_flags
 .text.netdev_get_by_name
                0x00008b04       0x94 ./rt-thread/components/net/netdev/src/netdev.o
                0x00008b04                netdev_get_by_name
 .text.netdev_get_by_family
                0x00008b98       0xdc ./rt-thread/components/net/netdev/src/netdev.o
                0x00008b98                netdev_get_by_family
 .text.netdev_family_get
                0x00008c74       0x30 ./rt-thread/components/net/netdev/src/netdev.o
                0x00008c74                netdev_family_get
 .text.netdev_set_default
                0x00008ca4       0x34 ./rt-thread/components/net/netdev/src/netdev.o
                0x00008ca4                netdev_set_default
 .text.netdev_set_ipaddr
                0x00008cd8       0xc4 ./rt-thread/components/net/netdev/src/netdev.o
                0x00008cd8                netdev_set_ipaddr
 .text.netdev_set_netmask
                0x00008d9c       0xc4 ./rt-thread/components/net/netdev/src/netdev.o
                0x00008d9c                netdev_set_netmask
 .text.netdev_set_gw
                0x00008e60       0xc4 ./rt-thread/components/net/netdev/src/netdev.o
                0x00008e60                netdev_set_gw
 .text.netdev_set_dns_server
                0x00008f24       0xbc ./rt-thread/components/net/netdev/src/netdev.o
                0x00008f24                netdev_set_dns_server
 .text.netdev_low_level_set_ipaddr
                0x00008fe0       0x7c ./rt-thread/components/net/netdev/src/netdev.o
                0x00008fe0                netdev_low_level_set_ipaddr
 .text.netdev_low_level_set_netmask
                0x0000905c       0x8c ./rt-thread/components/net/netdev/src/netdev.o
                0x0000905c                netdev_low_level_set_netmask
 .text.netdev_low_level_set_gw
                0x000090e8       0x8c ./rt-thread/components/net/netdev/src/netdev.o
                0x000090e8                netdev_low_level_set_gw
 .text.netdev_low_level_set_dns_server
                0x00009174       0x88 ./rt-thread/components/net/netdev/src/netdev.o
                0x00009174                netdev_low_level_set_dns_server
 .text.netdev_auto_change_default
                0x000091fc       0x40 ./rt-thread/components/net/netdev/src/netdev.o
 .text.netdev_low_level_set_status
                0x0000923c       0x6e ./rt-thread/components/net/netdev/src/netdev.o
                0x0000923c                netdev_low_level_set_status
 .text.netdev_low_level_set_link_status
                0x000092aa       0xa2 ./rt-thread/components/net/netdev/src/netdev.o
                0x000092aa                netdev_low_level_set_link_status
 .text.netdev_low_level_set_internet_status
                0x0000934c       0x6a ./rt-thread/components/net/netdev/src/netdev.o
                0x0000934c                netdev_low_level_set_internet_status
 .text.netdev_low_level_set_dhcp_status
                0x000093b6       0x6a ./rt-thread/components/net/netdev/src/netdev.o
                0x000093b6                netdev_low_level_set_dhcp_status
 .text.netdev_list_if
                0x00009420      0x2b0 ./rt-thread/components/net/netdev/src/netdev.o
 .text.netdev_set_if
                0x000096d0       0xa0 ./rt-thread/components/net/netdev/src/netdev.o
 .text.netdev_ifconfig
                0x00009770       0x98 ./rt-thread/components/net/netdev/src/netdev.o
                0x00009770                netdev_ifconfig
 .text.netdev_cmd_ping
                0x00009808      0x24c ./rt-thread/components/net/netdev/src/netdev.o
                0x00009808                netdev_cmd_ping
 .text.netdev_ping
                0x00009a54       0x58 ./rt-thread/components/net/netdev/src/netdev.o
                0x00009a54                netdev_ping
 .text.netdev_list_dns
                0x00009aac       0xb0 ./rt-thread/components/net/netdev/src/netdev.o
 .text.netdev_set_dns
                0x00009b5c       0x64 ./rt-thread/components/net/netdev/src/netdev.o
 .text.netdev_dns
                0x00009bc0       0x78 ./rt-thread/components/net/netdev/src/netdev.o
                0x00009bc0                netdev_dns
 .text.netdev_cmd_netstat
                0x00009c38       0x84 ./rt-thread/components/net/netdev/src/netdev.o
 .text.netdev_netstat
                0x00009cbc       0x2c ./rt-thread/components/net/netdev/src/netdev.o
                0x00009cbc                netdev_netstat
 .text.netdev_ip4addr_aton
                0x00009ce8      0x28c ./rt-thread/components/net/netdev/src/netdev_ipaddr.o
                0x00009ce8                netdev_ip4addr_aton
 .text.netdev_ip4addr_ntoa_r
                0x00009f74      0x104 ./rt-thread/components/net/netdev/src/netdev_ipaddr.o
                0x00009f74                netdev_ip4addr_ntoa_r
 .text.netdev_ip4addr_ntoa
                0x0000a078       0x20 ./rt-thread/components/net/netdev/src/netdev_ipaddr.o
                0x0000a078                netdev_ip4addr_ntoa
 .text.console_getchar
                0x0000a098       0x30 ./rt-thread/components/net/at/src/at_cli.o
 .text.console_getchar_rx_ind
                0x0000a0c8       0x5c ./rt-thread/components/net/at/src/at_cli.o
 .text.at_cli_init
                0x0000a124       0x80 ./rt-thread/components/net/at/src/at_cli.o
                0x0000a124                at_cli_init
 .text.at_cli_deinit
                0x0000a1a4       0x58 ./rt-thread/components/net/at/src/at_cli.o
                0x0000a1a4                at_cli_deinit
 .text.client_getchar
                0x0000a1fc       0x30 ./rt-thread/components/net/at/src/at_cli.o
 .text.at_client_entry
                0x0000a22c       0x20 ./rt-thread/components/net/at/src/at_cli.o
 .text.client_getchar_rx_ind
                0x0000a24c       0x5c ./rt-thread/components/net/at/src/at_cli.o
 .text.client_cli_parser
                0x0000a2a8      0x1dc ./rt-thread/components/net/at/src/at_cli.o
 .text.at       0x0000a484       0xc0 ./rt-thread/components/net/at/src/at_cli.o
 .text.at_create_resp
                0x0000a544       0x9c ./rt-thread/components/net/at/src/at_client.o
                0x0000a544                at_create_resp
 .text.at_delete_resp
                0x0000a5e0       0x38 ./rt-thread/components/net/at/src/at_client.o
                0x0000a5e0                at_delete_resp
 .text.at_resp_set_info
                0x0000a618       0x6c ./rt-thread/components/net/at/src/at_client.o
                0x0000a618                at_resp_set_info
 .text.at_resp_get_line
                0x0000a684       0xa4 ./rt-thread/components/net/at/src/at_client.o
                0x0000a684                at_resp_get_line
 .text.at_resp_get_line_by_kw
                0x0000a728       0x8c ./rt-thread/components/net/at/src/at_client.o
                0x0000a728                at_resp_get_line_by_kw
 .text.at_resp_parse_line_args
                0x0000a7b4       0x78 ./rt-thread/components/net/at/src/at_client.o
                0x0000a7b4                at_resp_parse_line_args
 .text.at_resp_parse_line_args_by_kw
                0x0000a82c       0x7c ./rt-thread/components/net/at/src/at_client.o
                0x0000a82c                at_resp_parse_line_args_by_kw
 .text.at_obj_exec_cmd
                0x0000a8a8      0x178 ./rt-thread/components/net/at/src/at_client.o
                0x0000a8a8                at_obj_exec_cmd
 .text.at_client_obj_wait_connect
                0x0000aa20      0x13c ./rt-thread/components/net/at/src/at_client.o
                0x0000aa20                at_client_obj_wait_connect
 .text.at_client_obj_send
                0x0000ab5c       0x80 ./rt-thread/components/net/at/src/at_client.o
                0x0000ab5c                at_client_obj_send
 .text.at_client_getchar
                0x0000abdc       0x5e ./rt-thread/components/net/at/src/at_client.o
 *fill*         0x0000ac3a        0x2 ff
 .text.at_client_obj_recv
                0x0000ac3c       0xc0 ./rt-thread/components/net/at/src/at_client.o
                0x0000ac3c                at_client_obj_recv
 .text.at_obj_set_end_sign
                0x0000acfc       0x40 ./rt-thread/components/net/at/src/at_client.o
                0x0000acfc                at_obj_set_end_sign
 .text.at_obj_set_urc_table
                0x0000ad3c      0x13c ./rt-thread/components/net/at/src/at_client.o
                0x0000ad3c                at_obj_set_urc_table
 .text.at_client_get
                0x0000ae78       0x70 ./rt-thread/components/net/at/src/at_client.o
                0x0000ae78                at_client_get
 .text.at_client_get_first
                0x0000aee8       0x20 ./rt-thread/components/net/at/src/at_client.o
                0x0000aee8                at_client_get_first
 .text.get_urc_obj
                0x0000af08       0xee ./rt-thread/components/net/at/src/at_client.o
 *fill*         0x0000aff6        0x2 ff
 .text.at_recv_readline
                0x0000aff8       0xe8 ./rt-thread/components/net/at/src/at_client.o
 .text.client_parser
                0x0000b0e0      0x1a4 ./rt-thread/components/net/at/src/at_client.o
 .text.at_client_rx_ind
                0x0000b284       0x60 ./rt-thread/components/net/at/src/at_client.o
 .text.at_client_para_init
                0x0000b2e4      0x22c ./rt-thread/components/net/at/src/at_client.o
 .text.at_client_init
                0x0000b510      0x1d4 ./rt-thread/components/net/at/src/at_client.o
                0x0000b510                at_client_init
 .text.at_get_last_cmd
                0x0000b6e4       0x28 ./rt-thread/components/net/at/src/at_utils.o
                0x0000b6e4                at_get_last_cmd
 .text.at_utils_send
                0x0000b70c       0x24 ./rt-thread/components/net/at/src/at_utils.o
                0x0000b70c                at_utils_send
 .text.at_vprintfln
                0x0000b730       0x6c ./rt-thread/components/net/at/src/at_utils.o
                0x0000b730                at_vprintfln
 .text.rt_list_init
                0x0000b79c       0x22 ./rt-thread/components/net/at/at_socket/at_socket.o
 .text.rt_slist_init
                0x0000b7be       0x1a ./rt-thread/components/net/at/at_socket/at_socket.o
 .text.rt_slist_append
                0x0000b7d8       0x36 ./rt-thread/components/net/at/at_socket/at_socket.o
 .text.rt_slist_insert
                0x0000b80e       0x24 ./rt-thread/components/net/at/at_socket/at_socket.o
 .text.rt_slist_remove
                0x0000b832       0x48 ./rt-thread/components/net/at/at_socket/at_socket.o
 .text.rt_slist_first
                0x0000b87a       0x18 ./rt-thread/components/net/at/at_socket/at_socket.o
 .text.rt_slist_next
                0x0000b892       0x18 ./rt-thread/components/net/at/at_socket/at_socket.o
 .text.rt_slist_isempty
                0x0000b8aa       0x22 ./rt-thread/components/net/at/at_socket/at_socket.o
 .text.rt_wqueue_init
                0x0000b8cc       0x38 ./rt-thread/components/net/at/at_socket/at_socket.o
 .text.at_get_socket
                0x0000b904       0x68 ./rt-thread/components/net/at/at_socket/at_socket.o
                0x0000b904                at_get_socket
 .text.at_recvpkt_put
                0x0000b96c       0x6c ./rt-thread/components/net/at/at_socket/at_socket.o
 .text.at_recvpkt_all_delete
                0x0000b9d8       0x68 ./rt-thread/components/net/at/at_socket/at_socket.o
 .text.at_recvpkt_node_delete
                0x0000ba40       0x56 ./rt-thread/components/net/at/at_socket/at_socket.o
 .text.at_recvpkt_get
                0x0000ba96       0xe4 ./rt-thread/components/net/at/at_socket/at_socket.o
 *fill*         0x0000bb7a        0x2 ff
 .text.at_do_event_changes
                0x0000bb7c       0xf0 ./rt-thread/components/net/at/at_socket/at_socket.o
 .text.at_do_event_clean
                0x0000bc6c       0x64 ./rt-thread/components/net/at/at_socket/at_socket.o
 .text.alloc_empty_socket
                0x0000bcd0       0x74 ./rt-thread/components/net/at/at_socket/at_socket.o
 .text.alloc_socket_by_device
                0x0000bd44      0x204 ./rt-thread/components/net/at/at_socket/at_socket.o
 .text.alloc_socket
                0x0000bf48       0x84 ./rt-thread/components/net/at/at_socket/at_socket.o
 .text.at_socket
                0x0000bfcc       0xc0 ./rt-thread/components/net/at/at_socket/at_socket.o
                0x0000bfcc                at_socket
 .text.free_socket
                0x0000c08c       0xb8 ./rt-thread/components/net/at/at_socket/at_socket.o
 .text.at_closesocket
                0x0000c144       0x6c ./rt-thread/components/net/at/at_socket/at_socket.o
                0x0000c144                at_closesocket
 .text.at_shutdown
                0x0000c1b0       0x60 ./rt-thread/components/net/at/at_socket/at_socket.o
                0x0000c1b0                at_shutdown
 .text.socketaddr_to_ipaddr_port
                0x0000c210       0x32 ./rt-thread/components/net/at/at_socket/at_socket.o
 .text.at_bind  0x0000c242       0xb8 ./rt-thread/components/net/at/at_socket/at_socket.o
                0x0000c242                at_bind
 *fill*         0x0000c2fa        0x2 ff
 .text.ipaddr_to_ipstr
                0x0000c2fc       0x54 ./rt-thread/components/net/at/at_socket/at_socket.o
 .text.at_recv_notice_cb
                0x0000c350       0xb4 ./rt-thread/components/net/at/at_socket/at_socket.o
 .text.at_closed_notice_cb
                0x0000c404       0x64 ./rt-thread/components/net/at/at_socket/at_socket.o
 .text.at_connect
                0x0000c468       0xf4 ./rt-thread/components/net/at/at_socket/at_socket.o
                0x0000c468                at_connect
 .text.at_recvfrom
                0x0000c55c      0x234 ./rt-thread/components/net/at/at_socket/at_socket.o
                0x0000c55c                at_recvfrom
 .text.at_sendto
                0x0000c790      0x1b8 ./rt-thread/components/net/at/at_socket/at_socket.o
                0x0000c790                at_sendto
 .text.at_getsockopt
                0x0000c948      0x144 ./rt-thread/components/net/at/at_socket/at_socket.o
                0x0000c948                at_getsockopt
 .text.at_setsockopt
                0x0000ca8c      0x11c ./rt-thread/components/net/at/at_socket/at_socket.o
                0x0000ca8c                at_setsockopt
 .text.ipstr_atol
                0x0000cba8       0x94 ./rt-thread/components/net/at/at_socket/at_socket.o
 .text.ipstr_to_u32
                0x0000cc3c       0x5c ./rt-thread/components/net/at/at_socket/at_socket.o
 .text.at_gethostbyname
                0x0000cc98      0x148 ./rt-thread/components/net/at/at_socket/at_socket.o
                0x0000cc98                at_gethostbyname
 .text.at_getaddrinfo
                0x0000cde0      0x27c ./rt-thread/components/net/at/at_socket/at_socket.o
                0x0000cde0                at_getaddrinfo
 .text.at_freeaddrinfo
                0x0000d05c       0x2a ./rt-thread/components/net/at/at_socket/at_socket.o
                0x0000d05c                at_freeaddrinfo
 .text.rt_list_init
                0x0000d086       0x22 ./rt-thread/components/libc/posix/io/poll/poll.o
 .text.__wqueue_pollwake
                0x0000d0a8       0x40 ./rt-thread/components/libc/posix/io/poll/poll.o
 .text._poll_add
                0x0000d0e8       0x6c ./rt-thread/components/libc/posix/io/poll/poll.o
 .text.poll_table_init
                0x0000d154       0x30 ./rt-thread/components/libc/posix/io/poll/poll.o
 .text.poll_wait_timeout
                0x0000d184       0x88 ./rt-thread/components/libc/posix/io/poll/poll.o
 .text.do_pollfd
                0x0000d20c       0x9a ./rt-thread/components/libc/posix/io/poll/poll.o
 .text.poll_do  0x0000d2a6       0xa6 ./rt-thread/components/libc/posix/io/poll/poll.o
 .text.poll_teardown
                0x0000d34c       0x38 ./rt-thread/components/libc/posix/io/poll/poll.o
 .text.poll     0x0000d384       0x3a ./rt-thread/components/libc/posix/io/poll/poll.o
                0x0000d384                poll
 .text.fdszero  0x0000d3be       0x3c ./rt-thread/components/libc/posix/io/poll/select.o
 *fill*         0x0000d3fa        0x2 ff
 .text.select   0x0000d3fc      0x354 ./rt-thread/components/libc/posix/io/poll/select.o
                0x0000d3fc                select
 .text._malloc_r
                0x0000d750       0x28 ./rt-thread/components/libc/compilers/newlib/syscalls.o
                0x0000d750                _malloc_r
 .text._realloc_r
                0x0000d778       0x2c ./rt-thread/components/libc/compilers/newlib/syscalls.o
                0x0000d778                _realloc_r
 .text._calloc_r
                0x0000d7a4       0x2c ./rt-thread/components/libc/compilers/newlib/syscalls.o
                0x0000d7a4                _calloc_r
 .text._free_r  0x0000d7d0       0x18 ./rt-thread/components/libc/compilers/newlib/syscalls.o
                0x0000d7d0                _free_r
 .text.__errno  0x0000d7e8        0xe ./rt-thread/components/libc/compilers/newlib/syscalls.o
                0x0000d7e8                __errno
 .text.rt_list_isempty
                0x0000d7f6       0x24 ./rt-thread/components/finsh/cmd.o
 .text.rt_list_len
                0x0000d81a       0x36 ./rt-thread/components/finsh/cmd.o
 .text.hello    0x0000d850       0x14 ./rt-thread/components/finsh/cmd.o
                0x0000d850                hello
 .text.clear    0x0000d864       0x14 ./rt-thread/components/finsh/cmd.o
 .text.version  0x0000d878        0xe ./rt-thread/components/finsh/cmd.o
                0x0000d878                version
 *fill*         0x0000d886        0x2 ff
 .text.object_split
                0x0000d888       0x28 ./rt-thread/components/finsh/cmd.o
 .text.list_find_init
                0x0000d8b0       0x46 ./rt-thread/components/finsh/cmd.o
 .text.list_get_next
                0x0000d8f6       0xc6 ./rt-thread/components/finsh/cmd.o
 .text.list_thread
                0x0000d9bc      0x208 ./rt-thread/components/finsh/cmd.o
                0x0000d9bc                list_thread
 .text.show_wait_queue
                0x0000dbc4       0x54 ./rt-thread/components/finsh/cmd.o
 .text.list_sem
                0x0000dc18      0x12c ./rt-thread/components/finsh/cmd.o
                0x0000dc18                list_sem
 .text.list_event
                0x0000dd44      0x118 ./rt-thread/components/finsh/cmd.o
                0x0000dd44                list_event
 .text.list_mutex
                0x0000de5c       0xe8 ./rt-thread/components/finsh/cmd.o
                0x0000de5c                list_mutex
 .text.list_mailbox
                0x0000df44      0x13c ./rt-thread/components/finsh/cmd.o
                0x0000df44                list_mailbox
 .text.list_msgqueue
                0x0000e080      0x12c ./rt-thread/components/finsh/cmd.o
                0x0000e080                list_msgqueue
 .text.list_timer
                0x0000e1ac      0x128 ./rt-thread/components/finsh/cmd.o
                0x0000e1ac                list_timer
 .text.list_device
                0x0000e2d4       0xf0 ./rt-thread/components/finsh/cmd.o
                0x0000e2d4                list_device
 .text.list     0x0000e3c4       0x6c ./rt-thread/components/finsh/cmd.o
                0x0000e3c4                list
 .text.msh_help
                0x0000e430       0x5c ./rt-thread/components/finsh/msh.o
                0x0000e430                msh_help
 .text.cmd_ps   0x0000e48c       0x18 ./rt-thread/components/finsh/msh.o
                0x0000e48c                cmd_ps
 .text.cmd_free
                0x0000e4a4       0x5c ./rt-thread/components/finsh/msh.o
                0x0000e4a4                cmd_free
 .text.msh_split
                0x0000e500      0x170 ./rt-thread/components/finsh/msh.o
 .text.msh_get_cmd
                0x0000e670       0x64 ./rt-thread/components/finsh/msh.o
 .text._msh_exec_cmd
                0x0000e6d4       0xd4 ./rt-thread/components/finsh/msh.o
 .text.msh_exec
                0x0000e7a8       0xa0 ./rt-thread/components/finsh/msh.o
                0x0000e7a8                msh_exec
 .text.str_common
                0x0000e848       0x4a ./rt-thread/components/finsh/msh.o
 *fill*         0x0000e892        0x2 ff
 .text.msh_auto_complete_path
                0x0000e894      0x228 ./rt-thread/components/finsh/msh.o
                0x0000e894                msh_auto_complete_path
 .text.msh_auto_complete
                0x0000eabc       0xe4 ./rt-thread/components/finsh/msh.o
                0x0000eabc                msh_auto_complete
 .text.msh_readline
                0x0000eba0       0xa2 ./rt-thread/components/finsh/msh_file.o
 *fill*         0x0000ec42        0x2 ff
 .text.msh_exec_script
                0x0000ec44      0x17c ./rt-thread/components/finsh/msh_file.o
                0x0000ec44                msh_exec_script
 .text.cmd_ls   0x0000edc0       0x34 ./rt-thread/components/finsh/msh_file.o
 .text.cmd_cp   0x0000edf4       0x44 ./rt-thread/components/finsh/msh_file.o
 .text.cmd_mv   0x0000ee38      0x138 ./rt-thread/components/finsh/msh_file.o
 .text.cmd_cat  0x0000ef70       0x58 ./rt-thread/components/finsh/msh_file.o
 .text.directory_delete_for_msh
                0x0000efc8      0x13c ./rt-thread/components/finsh/msh_file.o
 .text.cmd_rm   0x0000f104      0x1c4 ./rt-thread/components/finsh/msh_file.o
 .text.cmd_cd   0x0000f2c8       0x58 ./rt-thread/components/finsh/msh_file.o
 .text.cmd_pwd  0x0000f320       0x24 ./rt-thread/components/finsh/msh_file.o
 .text.cmd_mkdir
                0x0000f344       0x40 ./rt-thread/components/finsh/msh_file.o
 .text.cmd_mkfs
                0x0000f384       0x90 ./rt-thread/components/finsh/msh_file.o
 .text.cmd_mount
                0x0000f414       0xe0 ./rt-thread/components/finsh/msh_file.o
 .text.cmd_umount
                0x0000f4f4       0x64 ./rt-thread/components/finsh/msh_file.o
 .text.cmd_df   0x0000f558       0x70 ./rt-thread/components/finsh/msh_file.o
 .text.cmd_echo
                0x0000f5c8       0x94 ./rt-thread/components/finsh/msh_file.o
 .text.cmd_tail
                0x0000f65c      0x1bc ./rt-thread/components/finsh/msh_file.o
 .text.finsh_get_prompt
                0x0000f818       0x9c ./rt-thread/components/finsh/shell.o
                0x0000f818                finsh_get_prompt
 .text.finsh_set_prompt_mode
                0x0000f8b4       0x48 ./rt-thread/components/finsh/shell.o
                0x0000f8b4                finsh_set_prompt_mode
 .text.finsh_getchar
                0x0000f8fc       0x6c ./rt-thread/components/finsh/shell.o
                0x0000f8fc                finsh_getchar
 .text.finsh_rx_ind
                0x0000f968       0x3c ./rt-thread/components/finsh/shell.o
 .text.finsh_set_device
                0x0000f9a4       0xd8 ./rt-thread/components/finsh/shell.o
                0x0000f9a4                finsh_set_device
 .text.shell_auto_complete
                0x0000fa7c       0x34 ./rt-thread/components/finsh/shell.o
 .text.shell_handle_history
                0x0000fab0       0x34 ./rt-thread/components/finsh/shell.o
 .text.shell_push_history
                0x0000fae4      0x15e ./rt-thread/components/finsh/shell.o
 *fill*         0x0000fc42        0x2 ff
 .text.finsh_thread_entry
                0x0000fc44      0x5cc ./rt-thread/components/finsh/shell.o
                0x0000fc44                finsh_thread_entry
 .text.finsh_system_function_init
                0x00010210       0x2c ./rt-thread/components/finsh/shell.o
                0x00010210                finsh_system_function_init
 .text.finsh_system_init
                0x0001023c       0x9c ./rt-thread/components/finsh/shell.o
                0x0001023c                finsh_system_init
 .text.rt_serial_get_linear_buffer
                0x000102d8       0x8c ./rt-thread/components/drivers/serial/serial_v2.o
 .text.rt_serial_update_read_index
                0x00010364       0xcc ./rt-thread/components/drivers/serial/serial_v2.o
 .text.rt_serial_update_write_index
                0x00010430       0xe8 ./rt-thread/components/drivers/serial/serial_v2.o
 .text._serial_poll_rx
                0x00010518       0xa4 ./rt-thread/components/drivers/serial/serial_v2.o
                0x00010518                _serial_poll_rx
 .text._serial_poll_tx
                0x000105bc       0x9c ./rt-thread/components/drivers/serial/serial_v2.o
                0x000105bc                _serial_poll_tx
 .text._serial_fifo_rx
                0x00010658       0xf4 ./rt-thread/components/drivers/serial/serial_v2.o
 .text._serial_fifo_tx_blocking_nbuf
                0x0001074c       0xb0 ./rt-thread/components/drivers/serial/serial_v2.o
 .text._serial_fifo_tx_blocking_buf
                0x000107fc      0x11c ./rt-thread/components/drivers/serial/serial_v2.o
 .text.rt_serial_tx_enable
                0x00010918      0x1b0 ./rt-thread/components/drivers/serial/serial_v2.o
 .text.rt_serial_rx_enable
                0x00010ac8      0x148 ./rt-thread/components/drivers/serial/serial_v2.o
 .text.rt_serial_rx_disable
                0x00010c10       0xb0 ./rt-thread/components/drivers/serial/serial_v2.o
 .text.rt_serial_tx_disable
                0x00010cc0       0xb8 ./rt-thread/components/drivers/serial/serial_v2.o
 .text.rt_serial_init
                0x00010d78       0x5c ./rt-thread/components/drivers/serial/serial_v2.o
 .text.rt_serial_open
                0x00010dd4       0xf4 ./rt-thread/components/drivers/serial/serial_v2.o
 .text.rt_serial_close
                0x00010ec8       0x90 ./rt-thread/components/drivers/serial/serial_v2.o
 .text.rt_serial_control
                0x00010f58       0xb8 ./rt-thread/components/drivers/serial/serial_v2.o
 .text.rt_serial_read
                0x00011010       0x6c ./rt-thread/components/drivers/serial/serial_v2.o
 .text.rt_serial_write
                0x0001107c       0xcc ./rt-thread/components/drivers/serial/serial_v2.o
 .text.rt_hw_serial_register
                0x00011148       0x68 ./rt-thread/components/drivers/serial/serial_v2.o
                0x00011148                rt_hw_serial_register
 .text.rt_hw_serial_isr
                0x000111b0      0x210 ./rt-thread/components/drivers/serial/serial_v2.o
                0x000111b0                rt_hw_serial_isr
 .text.sensor_show_data
                0x000113c0      0x408 ./rt-thread/components/drivers/sensors/sensor_cmd.o
 .text.rx_callback
                0x000117c8       0x24 ./rt-thread/components/drivers/sensors/sensor_cmd.o
 .text.sensor_fifo_rx_entry
                0x000117ec       0xb0 ./rt-thread/components/drivers/sensors/sensor_cmd.o
 .text.sensor_fifo
                0x0001189c      0x108 ./rt-thread/components/drivers/sensors/sensor_cmd.o
 .text.sensor_irq_rx_entry
                0x000119a4       0x50 ./rt-thread/components/drivers/sensors/sensor_cmd.o
 .text.sensor_int
                0x000119f4      0x108 ./rt-thread/components/drivers/sensors/sensor_cmd.o
 .text.sensor_polling
                0x00011afc      0x10c ./rt-thread/components/drivers/sensors/sensor_cmd.o
 .text.sensor   0x00011c08      0x5f0 ./rt-thread/components/drivers/sensors/sensor_cmd.o
 .text._pin_read
                0x000121f8       0x60 ./rt-thread/components/drivers/misc/pin.o
 .text._pin_write
                0x00012258       0x5c ./rt-thread/components/drivers/misc/pin.o
 .text._pin_control
                0x000122b4       0x58 ./rt-thread/components/drivers/misc/pin.o
 .text.rt_device_pin_register
                0x0001230c       0x4c ./rt-thread/components/drivers/misc/pin.o
                0x0001230c                rt_device_pin_register
 .text.rt_pin_mode
                0x00012358       0x40 ./rt-thread/components/drivers/misc/pin.o
                0x00012358                rt_pin_mode
 .text.rt_pin_write
                0x00012398       0x40 ./rt-thread/components/drivers/misc/pin.o
                0x00012398                rt_pin_write
 .text.rt_pin_read
                0x000123d8       0x3c ./rt-thread/components/drivers/misc/pin.o
                0x000123d8                rt_pin_read
 .text.rt_pin_get
                0x00012414       0x60 ./rt-thread/components/drivers/misc/pin.o
                0x00012414                rt_pin_get
 .text.rt_list_init
                0x00012474       0x22 ./rt-thread/components/drivers/ipc/completion.o
 .text.rt_list_insert_before
                0x00012496       0x32 ./rt-thread/components/drivers/ipc/completion.o
 .text.rt_list_isempty
                0x000124c8       0x24 ./rt-thread/components/drivers/ipc/completion.o
 .text.rt_completion_init
                0x000124ec       0x44 ./rt-thread/components/drivers/ipc/completion.o
                0x000124ec                rt_completion_init
 .text.rt_completion_wait
                0x00012530      0x15c ./rt-thread/components/drivers/ipc/completion.o
                0x00012530                rt_completion_wait
 .text.rt_completion_done
                0x0001268c       0x70 ./rt-thread/components/drivers/ipc/completion.o
                0x0001268c                rt_completion_done
 .text.rt_ringbuffer_status
                0x000126fc       0x4e ./rt-thread/components/drivers/ipc/ringbuffer.o
 *fill*         0x0001274a        0x2 ff
 .text.rt_ringbuffer_init
                0x0001274c       0xa0 ./rt-thread/components/drivers/ipc/ringbuffer.o
                0x0001274c                rt_ringbuffer_init
 .text.rt_ringbuffer_put
                0x000127ec      0x16c ./rt-thread/components/drivers/ipc/ringbuffer.o
                0x000127ec                rt_ringbuffer_put
 .text.rt_ringbuffer_put_force
                0x00012958      0x1e8 ./rt-thread/components/drivers/ipc/ringbuffer.o
                0x00012958                rt_ringbuffer_put_force
 .text.rt_ringbuffer_get
                0x00012b40      0x15c ./rt-thread/components/drivers/ipc/ringbuffer.o
                0x00012b40                rt_ringbuffer_get
 .text.rt_ringbuffer_putchar
                0x00012c9c       0xbc ./rt-thread/components/drivers/ipc/ringbuffer.o
                0x00012c9c                rt_ringbuffer_putchar
 .text.rt_ringbuffer_getchar
                0x00012d58       0xb4 ./rt-thread/components/drivers/ipc/ringbuffer.o
                0x00012d58                rt_ringbuffer_getchar
 .text.rt_ringbuffer_data_len
                0x00012e0c       0x66 ./rt-thread/components/drivers/ipc/ringbuffer.o
                0x00012e0c                rt_ringbuffer_data_len
 *fill*         0x00012e72        0x2 ff
 .text.rt_ringbuffer_create
                0x00012e74       0x74 ./rt-thread/components/drivers/ipc/ringbuffer.o
                0x00012e74                rt_ringbuffer_create
 .text.rt_ringbuffer_destroy
                0x00012ee8       0x3c ./rt-thread/components/drivers/ipc/ringbuffer.o
                0x00012ee8                rt_ringbuffer_destroy
 .text.rt_list_insert_before
                0x00012f24       0x32 ./rt-thread/components/drivers/ipc/waitqueue.o
 .text.rt_list_remove
                0x00012f56       0x36 ./rt-thread/components/drivers/ipc/waitqueue.o
 .text.rt_list_isempty
                0x00012f8c       0x24 ./rt-thread/components/drivers/ipc/waitqueue.o
 .text.rt_wqueue_add
                0x00012fb0       0x2e ./rt-thread/components/drivers/ipc/waitqueue.o
                0x00012fb0                rt_wqueue_add
 .text.rt_wqueue_remove
                0x00012fde       0x26 ./rt-thread/components/drivers/ipc/waitqueue.o
                0x00012fde                rt_wqueue_remove
 .text.__wqueue_default_wake
                0x00013004       0x18 ./rt-thread/components/drivers/ipc/waitqueue.o
                0x00013004                __wqueue_default_wake
 .text.rt_wqueue_wakeup
                0x0001301c       0x80 ./rt-thread/components/drivers/ipc/waitqueue.o
                0x0001301c                rt_wqueue_wakeup
 .text.rt_list_init
                0x0001309c       0x22 ./rt-thread/components/drivers/ipc/workqueue.o
 .text.rt_list_insert_after
                0x000130be       0x32 ./rt-thread/components/drivers/ipc/workqueue.o
 .text.rt_list_remove
                0x000130f0       0x36 ./rt-thread/components/drivers/ipc/workqueue.o
 .text.rt_list_isempty
                0x00013126       0x24 ./rt-thread/components/drivers/ipc/workqueue.o
 .text._workqueue_work_completion
                0x0001314a       0x4c ./rt-thread/components/drivers/ipc/workqueue.o
 *fill*         0x00013196        0x2 ff
 .text._workqueue_thread_entry
                0x00013198       0x9c ./rt-thread/components/drivers/ipc/workqueue.o
 .text._workqueue_submit_work
                0x00013234      0x138 ./rt-thread/components/drivers/ipc/workqueue.o
 .text._delayed_work_timeout_handler
                0x0001336c       0xb4 ./rt-thread/components/drivers/ipc/workqueue.o
 .text.rt_work_init
                0x00013420       0x68 ./rt-thread/components/drivers/ipc/workqueue.o
                0x00013420                rt_work_init
 .text.rt_workqueue_create
                0x00013488       0x94 ./rt-thread/components/drivers/ipc/workqueue.o
                0x00013488                rt_workqueue_create
 .text.rt_workqueue_submit_work
                0x0001351c       0x6c ./rt-thread/components/drivers/ipc/workqueue.o
                0x0001351c                rt_workqueue_submit_work
 .text.rt_work_submit
                0x00013588       0x28 ./rt-thread/components/drivers/ipc/workqueue.o
                0x00013588                rt_work_submit
 .text.rt_work_sys_workqueue_init
                0x000135b0       0x4c ./rt-thread/components/drivers/ipc/workqueue.o
 .text.rt_i2c_core_init
                0x000135fc       0x10 ./rt-thread/components/drivers/i2c/i2c_core.o
                0x000135fc                rt_i2c_core_init
 .text.dfs_init
                0x0001360c       0x7c ./rt-thread/components/dfs/src/dfs.o
                0x0001360c                dfs_init
 .text.dfs_lock
                0x00013688       0x48 ./rt-thread/components/dfs/src/dfs.o
                0x00013688                dfs_lock
 .text.dfs_unlock
                0x000136d0       0x14 ./rt-thread/components/dfs/src/dfs.o
                0x000136d0                dfs_unlock
 .text.fd_alloc
                0x000136e4      0x110 ./rt-thread/components/dfs/src/dfs.o
 .text.fd_new   0x000137f4       0x78 ./rt-thread/components/dfs/src/dfs.o
                0x000137f4                fd_new
 .text.fd_get   0x0001386c       0x6e ./rt-thread/components/dfs/src/dfs.o
                0x0001386c                fd_get
 *fill*         0x000138da        0x2 ff
 .text.fd_put   0x000138dc       0x88 ./rt-thread/components/dfs/src/dfs.o
                0x000138dc                fd_put
 .text.fd_is_open
                0x00013964       0xe6 ./rt-thread/components/dfs/src/dfs.o
                0x00013964                fd_is_open
 .text.dfs_subdir
                0x00013a4a       0x50 ./rt-thread/components/dfs/src/dfs.o
                0x00013a4a                dfs_subdir
 *fill*         0x00013a9a        0x2 ff
 .text.dfs_normalize_path
                0x00013a9c      0x208 ./rt-thread/components/dfs/src/dfs.o
                0x00013a9c                dfs_normalize_path
 .text.dfs_fdtable_get
                0x00013ca4       0x1c ./rt-thread/components/dfs/src/dfs.o
                0x00013ca4                dfs_fdtable_get
 .text.list_fd  0x00013cc0      0x148 ./rt-thread/components/dfs/src/dfs.o
                0x00013cc0                list_fd
 .text.dfs_file_open
                0x00013e08      0x148 ./rt-thread/components/dfs/src/dfs_file.o
                0x00013e08                dfs_file_open
 .text.dfs_file_close
                0x00013f50       0x52 ./rt-thread/components/dfs/src/dfs_file.o
                0x00013f50                dfs_file_close
 .text.dfs_file_read
                0x00013fa2       0x58 ./rt-thread/components/dfs/src/dfs_file.o
                0x00013fa2                dfs_file_read
 .text.dfs_file_getdents
                0x00013ffa       0x48 ./rt-thread/components/dfs/src/dfs_file.o
                0x00013ffa                dfs_file_getdents
 *fill*         0x00014042        0x2 ff
 .text.dfs_file_unlink
                0x00014044       0xcc ./rt-thread/components/dfs/src/dfs_file.o
                0x00014044                dfs_file_unlink
 .text.dfs_file_write
                0x00014110       0x40 ./rt-thread/components/dfs/src/dfs_file.o
                0x00014110                dfs_file_write
 .text.dfs_file_lseek
                0x00014150       0x4a ./rt-thread/components/dfs/src/dfs_file.o
                0x00014150                dfs_file_lseek
 *fill*         0x0001419a        0x2 ff
 .text.dfs_file_stat
                0x0001419c      0x134 ./rt-thread/components/dfs/src/dfs_file.o
                0x0001419c                dfs_file_stat
 .text.dfs_file_rename
                0x000142d0       0xda ./rt-thread/components/dfs/src/dfs_file.o
                0x000142d0                dfs_file_rename
 *fill*         0x000143aa        0x2 ff
 .text.ls       0x000143ac      0x120 ./rt-thread/components/dfs/src/dfs_file.o
                0x000143ac                ls
 .text.cat      0x000144cc       0x7c ./rt-thread/components/dfs/src/dfs_file.o
                0x000144cc                cat
 .text.copyfile
                0x00014548       0xe0 ./rt-thread/components/dfs/src/dfs_file.o
 .text.copydir  0x00014628      0x1b8 ./rt-thread/components/dfs/src/dfs_file.o
 .text._get_path_lastname
                0x000147e0       0x2c ./rt-thread/components/dfs/src/dfs_file.o
 .text.copy     0x0001480c      0x15c ./rt-thread/components/dfs/src/dfs_file.o
                0x0001480c                copy
 .text.dfs_filesystem_lookup
                0x00014968       0xc4 ./rt-thread/components/dfs/src/dfs_fs.o
                0x00014968                dfs_filesystem_lookup
 .text.dfs_mount
                0x00014a2c      0x244 ./rt-thread/components/dfs/src/dfs_fs.o
                0x00014a2c                dfs_mount
 .text.dfs_unmount
                0x00014c70       0xe0 ./rt-thread/components/dfs/src/dfs_fs.o
                0x00014c70                dfs_unmount
 .text.dfs_mkfs
                0x00014d50      0x104 ./rt-thread/components/dfs/src/dfs_fs.o
                0x00014d50                dfs_mkfs
 .text.dfs_statfs
                0x00014e54       0x3e ./rt-thread/components/dfs/src/dfs_fs.o
                0x00014e54                dfs_statfs
 *fill*         0x00014e92        0x2 ff
 .text.df       0x00014e94      0x1d0 ./rt-thread/components/dfs/src/dfs_fs.o
                0x00014e94                df
 .text.open     0x00015064       0x6c ./rt-thread/components/dfs/src/dfs_posix.o
                0x00015064                open
 .text.close    0x000150d0       0x54 ./rt-thread/components/dfs/src/dfs_posix.o
                0x000150d0                close
 .text.read     0x00015124       0x5c ./rt-thread/components/dfs/src/dfs_posix.o
                0x00015124                read
 .text.write    0x00015180       0x5c ./rt-thread/components/dfs/src/dfs_posix.o
                0x00015180                write
 .text.lseek    0x000151dc       0xba ./rt-thread/components/dfs/src/dfs_posix.o
                0x000151dc                lseek
 .text.rename   0x00015296       0x30 ./rt-thread/components/dfs/src/dfs_posix.o
                0x00015296                rename
 .text.unlink   0x000152c6       0x2c ./rt-thread/components/dfs/src/dfs_posix.o
                0x000152c6                unlink
 .text.stat     0x000152f2       0x30 ./rt-thread/components/dfs/src/dfs_posix.o
                0x000152f2                stat
 *fill*         0x00015322        0x2 ff
 .text.mkdir    0x00015324       0x78 ./rt-thread/components/dfs/src/dfs_posix.o
                0x00015324                mkdir
 .text.opendir  0x0001539c       0x98 ./rt-thread/components/dfs/src/dfs_posix.o
                0x0001539c                opendir
 .text.readdir  0x00015434       0xbc ./rt-thread/components/dfs/src/dfs_posix.o
                0x00015434                readdir
 .text.rewinddir
                0x000154f0       0x52 ./rt-thread/components/dfs/src/dfs_posix.o
                0x000154f0                rewinddir
 .text.closedir
                0x00015542       0x5e ./rt-thread/components/dfs/src/dfs_posix.o
                0x00015542                closedir
 .text.chdir    0x000155a0       0xac ./rt-thread/components/dfs/src/dfs_posix.o
                0x000155a0                chdir
 .text.getcwd   0x0001564c       0x2c ./rt-thread/components/dfs/src/dfs_posix.o
                0x0001564c                getcwd
 .text.main     0x00015678        0xe ./ra_gen/main.o
                0x00015678                main
 .text.R_FSP_CurrentIrqGet
                0x00015686       0x2c ./ra/fsp/src/r_sci_uart/r_sci_uart.o
 *fill*         0x000156b2        0x2 ff
 .text.R_FSP_IsrContextSet
                0x000156b4       0x28 ./ra/fsp/src/r_sci_uart/r_sci_uart.o
 .text.R_BSP_IrqStatusClear
                0x000156dc       0x30 ./ra/fsp/src/r_sci_uart/r_sci_uart.o
 .text.R_BSP_IrqClearPending
                0x0001570c       0x40 ./ra/fsp/src/r_sci_uart/r_sci_uart.o
 .text.R_BSP_IrqCfg
                0x0001574c       0x3c ./ra/fsp/src/r_sci_uart/r_sci_uart.o
 .text.R_BSP_IrqEnableNoClear
                0x00015788       0x38 ./ra/fsp/src/r_sci_uart/r_sci_uart.o
 .text.R_BSP_IrqEnable
                0x000157c0       0x26 ./ra/fsp/src/r_sci_uart/r_sci_uart.o
 *fill*         0x000157e6        0x2 ff
 .text.R_BSP_IrqDisable
                0x000157e8       0x48 ./ra/fsp/src/r_sci_uart/r_sci_uart.o
 .text.R_FSP_IsrContextGet
                0x00015830       0x24 ./ra/fsp/src/r_sci_uart/r_sci_uart.o
 .text.R_SCI_UART_Open
                0x00015854      0x1ac ./ra/fsp/src/r_sci_uart/r_sci_uart.o
                0x00015854                R_SCI_UART_Open
 .text.r_sci_uart_config_set
                0x00015a00      0x120 ./ra/fsp/src/r_sci_uart/r_sci_uart.o
 .text.r_sci_irq_cfg
                0x00015b20       0x3a ./ra/fsp/src/r_sci_uart/r_sci_uart.o
 .text.r_sci_irqs_cfg
                0x00015b5a       0x5a ./ra/fsp/src/r_sci_uart/r_sci_uart.o
 .text.r_sci_uart_baud_set
                0x00015bb4       0x58 ./ra/fsp/src/r_sci_uart/r_sci_uart.o
 .text.r_sci_uart_call_callback
                0x00015c0c       0x76 ./ra/fsp/src/r_sci_uart/r_sci_uart.o
 .text.sci_uart_txi_isr
                0x00015c82       0xd0 ./ra/fsp/src/r_sci_uart/r_sci_uart.o
                0x00015c82                sci_uart_txi_isr
 .text.sci_uart_rxi_isr
                0x00015d52       0xbc ./ra/fsp/src/r_sci_uart/r_sci_uart.o
                0x00015d52                sci_uart_rxi_isr
 .text.sci_uart_tei_isr
                0x00015e0e       0x4a ./ra/fsp/src/r_sci_uart/r_sci_uart.o
                0x00015e0e                sci_uart_tei_isr
 .text.sci_uart_eri_isr
                0x00015e58       0xa8 ./ra/fsp/src/r_sci_uart/r_sci_uart.o
                0x00015e58                sci_uart_eri_isr
 .text.R_FSP_CurrentIrqGet
                0x00015f00       0x2c ./ra/fsp/src/r_sci_i2c/r_sci_i2c.o
 .text.R_BSP_IrqStatusClear
                0x00015f2c       0x30 ./ra/fsp/src/r_sci_i2c/r_sci_i2c.o
 .text.R_FSP_IsrContextGet
                0x00015f5c       0x24 ./ra/fsp/src/r_sci_i2c/r_sci_i2c.o
 .text.sci_i2c_notify
                0x00015f80       0x66 ./ra/fsp/src/r_sci_i2c/r_sci_i2c.o
                0x00015f80                sci_i2c_notify
 .text.sci_i2c_txi_isr
                0x00015fe6       0x34 ./ra/fsp/src/r_sci_i2c/r_sci_i2c.o
                0x00015fe6                sci_i2c_txi_isr
 .text.sci_i2c_tei_isr
                0x0001601a       0x34 ./ra/fsp/src/r_sci_i2c/r_sci_i2c.o
                0x0001601a                sci_i2c_tei_isr
 .text.sci_i2c_txi_handler
                0x0001604e       0x9c ./ra/fsp/src/r_sci_i2c/r_sci_i2c.o
 .text.sci_i2c_tei_handler
                0x000160ea       0xaa ./ra/fsp/src/r_sci_i2c/r_sci_i2c.o
 .text.sci_i2c_txi_send_data
                0x00016194       0xb4 ./ra/fsp/src/r_sci_i2c/r_sci_i2c.o
 .text.sci_i2c_tei_send_address
                0x00016248       0x90 ./ra/fsp/src/r_sci_i2c/r_sci_i2c.o
 .text.sci_i2c_txi_process_nack
                0x000162d8       0x76 ./ra/fsp/src/r_sci_i2c/r_sci_i2c.o
 .text.sci_i2c_issue_restart_or_stop
                0x0001634e       0x3a ./ra/fsp/src/r_sci_i2c/r_sci_i2c.o
 .text.R_BSP_PinRead
                0x00016388       0x38 ./ra/fsp/src/r_ioport/r_ioport.o
 .text.R_BSP_PinAccessEnable
                0x000163c0       0x60 ./ra/fsp/src/r_ioport/r_ioport.o
 .text.R_BSP_PinAccessDisable
                0x00016420       0x68 ./ra/fsp/src/r_ioport/r_ioport.o
 .text.R_IOPORT_Open
                0x00016488       0x28 ./ra/fsp/src/r_ioport/r_ioport.o
                0x00016488                R_IOPORT_Open
 .text.R_IOPORT_Close
                0x000164b0       0x20 ./ra/fsp/src/r_ioport/r_ioport.o
                0x000164b0                R_IOPORT_Close
 .text.R_IOPORT_PinsCfg
                0x000164d0       0x1a ./ra/fsp/src/r_ioport/r_ioport.o
                0x000164d0                R_IOPORT_PinsCfg
 .text.R_IOPORT_PinCfg
                0x000164ea       0x46 ./ra/fsp/src/r_ioport/r_ioport.o
                0x000164ea                R_IOPORT_PinCfg
 .text.R_IOPORT_PinRead
                0x00016530       0x28 ./ra/fsp/src/r_ioport/r_ioport.o
                0x00016530                R_IOPORT_PinRead
 .text.R_IOPORT_PortRead
                0x00016558       0x3a ./ra/fsp/src/r_ioport/r_ioport.o
                0x00016558                R_IOPORT_PortRead
 .text.R_IOPORT_PortWrite
                0x00016592       0x62 ./ra/fsp/src/r_ioport/r_ioport.o
                0x00016592                R_IOPORT_PortWrite
 .text.R_IOPORT_PinWrite
                0x000165f4       0x6e ./ra/fsp/src/r_ioport/r_ioport.o
                0x000165f4                R_IOPORT_PinWrite
 .text.R_IOPORT_PortDirectionSet
                0x00016662       0x72 ./ra/fsp/src/r_ioport/r_ioport.o
                0x00016662                R_IOPORT_PortDirectionSet
 .text.R_IOPORT_PortEventInputRead
                0x000166d4       0x3e ./ra/fsp/src/r_ioport/r_ioport.o
                0x000166d4                R_IOPORT_PortEventInputRead
 .text.R_IOPORT_PinEventInputRead
                0x00016712       0x62 ./ra/fsp/src/r_ioport/r_ioport.o
                0x00016712                R_IOPORT_PinEventInputRead
 .text.R_IOPORT_PortEventOutputWrite
                0x00016774       0x62 ./ra/fsp/src/r_ioport/r_ioport.o
                0x00016774                R_IOPORT_PortEventOutputWrite
 .text.R_IOPORT_PinEventOutputWrite
                0x000167d6       0x5e ./ra/fsp/src/r_ioport/r_ioport.o
                0x000167d6                R_IOPORT_PinEventOutputWrite
 .text.R_IOPORT_EthernetModeCfg
                0x00016834       0x28 ./ra/fsp/src/r_ioport/r_ioport.o
                0x00016834                R_IOPORT_EthernetModeCfg
 .text.r_ioport_pins_config
                0x0001685c       0x56 ./ra/fsp/src/r_ioport/r_ioport.o
 .text.r_ioport_hw_pin_event_output_data_write
                0x000168b2       0x88 ./ra/fsp/src/r_ioport/r_ioport.o
 *fill*         0x0001693a        0x2 ff
 .text.r_ioport_pfs_write
                0x0001693c       0x78 ./ra/fsp/src/r_ioport/r_ioport.o
 .text.bsp_vbatt_init
                0x000169b4       0xd8 ./ra/fsp/src/r_ioport/r_ioport.o
 .text.R_FSP_CurrentIrqGet
                0x00016a8c       0x2c ./ra/fsp/src/r_icu/r_icu.o
 .text.R_FSP_IsrContextSet
                0x00016ab8       0x28 ./ra/fsp/src/r_icu/r_icu.o
 .text.R_BSP_IrqStatusClear
                0x00016ae0       0x30 ./ra/fsp/src/r_icu/r_icu.o
 .text.R_BSP_IrqClearPending
                0x00016b10       0x40 ./ra/fsp/src/r_icu/r_icu.o
 .text.R_BSP_IrqCfg
                0x00016b50       0x3c ./ra/fsp/src/r_icu/r_icu.o
 .text.R_BSP_IrqEnableNoClear
                0x00016b8c       0x38 ./ra/fsp/src/r_icu/r_icu.o
 .text.R_BSP_IrqEnable
                0x00016bc4       0x26 ./ra/fsp/src/r_icu/r_icu.o
 *fill*         0x00016bea        0x2 ff
 .text.R_BSP_IrqDisable
                0x00016bec       0x48 ./ra/fsp/src/r_icu/r_icu.o
 .text.R_FSP_IsrContextGet
                0x00016c34       0x24 ./ra/fsp/src/r_icu/r_icu.o
 .text.R_ICU_ExternalIrqOpen
                0x00016c58       0xcc ./ra/fsp/src/r_icu/r_icu.o
                0x00016c58                R_ICU_ExternalIrqOpen
 .text.R_ICU_ExternalIrqEnable
                0x00016d24       0x22 ./ra/fsp/src/r_icu/r_icu.o
                0x00016d24                R_ICU_ExternalIrqEnable
 .text.R_ICU_ExternalIrqDisable
                0x00016d46       0x22 ./ra/fsp/src/r_icu/r_icu.o
                0x00016d46                R_ICU_ExternalIrqDisable
 .text.R_ICU_ExternalIrqClose
                0x00016d68       0x40 ./ra/fsp/src/r_icu/r_icu.o
                0x00016d68                R_ICU_ExternalIrqClose
 .text.r_icu_isr
                0x00016da8       0x80 ./ra/fsp/src/r_icu/r_icu.o
                0x00016da8                r_icu_isr
 .text.R_BSP_FlashCacheEnable
                0x00016e28       0x40 ./ra/fsp/src/bsp/mcu/all/bsp_clocks.o
 .text.SystemCoreClockUpdate
                0x00016e68       0x40 ./ra/fsp/src/bsp/mcu/all/bsp_clocks.o
                0x00016e68                SystemCoreClockUpdate
 .text.bsp_prv_clock_set_hard_reset
                0x00016ea8       0x30 ./ra/fsp/src/bsp/mcu/all/bsp_clocks.o
 .text.bsp_clock_freq_var_init
                0x00016ed8       0x48 ./ra/fsp/src/bsp/mcu/all/bsp_clocks.o
 .text.bsp_clock_init
                0x00016f20       0xa4 ./ra/fsp/src/bsp/mcu/all/bsp_clocks.o
                0x00016f20                bsp_clock_init
 .text.bsp_init_internal
                0x00016fc4       0x14 ./ra/fsp/src/bsp/mcu/all/bsp_common.o
                0x00016fc4                bsp_init_internal
                0x00016fc4                bsp_init
 .text.__assert_func
                0x00016fd8       0x12 ./ra/fsp/src/bsp/mcu/all/bsp_common.o
                0x00016fd8                __assert_func
 *fill*         0x00016fea        0x2 ff
 .text.bsp_group_irq_call
                0x00016fec       0x30 ./ra/fsp/src/bsp/mcu/all/bsp_group_irq.o
 .text.NMI_Handler
                0x0001701c       0x4c ./ra/fsp/src/bsp/mcu/all/bsp_group_irq.o
                0x0001701c                NMI_Handler
 .text.bsp_irq_cfg
                0x00017068      0x104 ./ra/fsp/src/bsp/mcu/all/bsp_irq.o
                0x00017068                bsp_irq_cfg
 .text.R_BSP_RegisterProtectEnable
                0x0001716c       0xa0 ./ra/fsp/src/bsp/mcu/all/bsp_register_protection.o
                0x0001716c                R_BSP_RegisterProtectEnable
 .text.R_BSP_RegisterProtectDisable
                0x0001720c       0x90 ./ra/fsp/src/bsp/mcu/all/bsp_register_protection.o
                0x0001720c                R_BSP_RegisterProtectDisable
 .text.Reset_Handler
                0x0001729c        0xe ./ra/fsp/src/bsp/cmsis/Device/RENESAS/Source/startup.o
                0x0001729c                Reset_Handler
 .text.Default_Handler
                0x000172aa       0x10 ./ra/fsp/src/bsp/cmsis/Device/RENESAS/Source/startup.o
                0x000172aa                UsageFault_Handler
                0x000172aa                SecureFault_Handler
                0x000172aa                Default_Handler
                0x000172aa                MemManage_Handler
                0x000172aa                SVC_Handler
                0x000172aa                BusFault_Handler
                0x000172aa                DebugMon_Handler
 *fill*         0x000172ba        0x2 ff
 .text.SystemInit
                0x000172bc       0xf0 ./ra/fsp/src/bsp/cmsis/Device/RENESAS/Source/system.o
                0x000172bc                SystemInit
 .text.cJSON_strdup
                0x000173ac       0x50 ./packages/cJSON-latest/cJSON.o
 .text.cJSON_New_Item
                0x000173fc       0x2c ./packages/cJSON-latest/cJSON.o
 .text.cJSON_Delete
                0x00017428       0x94 ./packages/cJSON-latest/cJSON.o
                0x00017428                cJSON_Delete
 .text.get_decimal_point
                0x000174bc       0x10 ./packages/cJSON-latest/cJSON.o
 .text.ensure   0x000174cc      0x134 ./packages/cJSON-latest/cJSON.o
 .text.update_offset
                0x00017600       0x42 ./packages/cJSON-latest/cJSON.o
 *fill*         0x00017642        0x2 ff
 .text.compare_double
                0x00017644       0x90 ./packages/cJSON-latest/cJSON.o
 .text.print_number
                0x000176d4      0x1e0 ./packages/cJSON-latest/cJSON.o
 .text.print_string_ptr
                0x000178b4      0x260 ./packages/cJSON-latest/cJSON.o
 .text.print_string
                0x00017b14       0x20 ./packages/cJSON-latest/cJSON.o
 .text.print    0x00017b34      0x108 ./packages/cJSON-latest/cJSON.o
 .text.cJSON_Print
                0x00017c3c       0x20 ./packages/cJSON-latest/cJSON.o
                0x00017c3c                cJSON_Print
 .text.print_value
                0x00017c5c      0x1c8 ./packages/cJSON-latest/cJSON.o
 .text.print_array
                0x00017e24      0x10c ./packages/cJSON-latest/cJSON.o
 .text.print_object
                0x00017f30      0x23c ./packages/cJSON-latest/cJSON.o
 .text.suffix_object
                0x0001816c       0x22 ./packages/cJSON-latest/cJSON.o
 .text.add_item_to_array
                0x0001818e       0x6c ./packages/cJSON-latest/cJSON.o
 .text.cast_away_const
                0x000181fa       0x16 ./packages/cJSON-latest/cJSON.o
 .text.add_item_to_object
                0x00018210       0xaa ./packages/cJSON-latest/cJSON.o
 *fill*         0x000182ba        0x2 ff
 .text.cJSON_AddItemToObject
                0x000182bc       0x2c ./packages/cJSON-latest/cJSON.o
                0x000182bc                cJSON_AddItemToObject
 .text.cJSON_CreateNumber
                0x000182e8       0x90 ./packages/cJSON-latest/cJSON.o
                0x000182e8                cJSON_CreateNumber
 .text.cJSON_CreateObject
                0x00018378       0x28 ./packages/cJSON-latest/cJSON.o
                0x00018378                cJSON_CreateObject
 .text.rt_slist_init
                0x000183a0       0x1a ./packages/at_device-latest/src/at_device.o
 .text.rt_slist_append
                0x000183ba       0x36 ./packages/at_device-latest/src/at_device.o
 .text.at_device_get_first_initialized
                0x000183f0       0x5c ./packages/at_device-latest/src/at_device.o
                0x000183f0                at_device_get_first_initialized
 .text.at_device_get_by_name
                0x0001844c       0xc4 ./packages/at_device-latest/src/at_device.o
                0x0001844c                at_device_get_by_name
 .text.at_device_get_by_ipaddr
                0x00018510       0x64 ./packages/at_device-latest/src/at_device.o
                0x00018510                at_device_get_by_ipaddr
 .text.at_device_class_register
                0x00018574       0x5c ./packages/at_device-latest/src/at_device.o
                0x00018574                at_device_class_register
 .text.at_device_class_get
                0x000185d0       0x60 ./packages/at_device-latest/src/at_device.o
 .text.at_device_register
                0x00018630      0x1a4 ./packages/at_device-latest/src/at_device.o
                0x00018630                at_device_register
 .text.esp8266_device_register
                0x000187d4       0x30 ./packages/at_device-latest/samples/at_sample_esp8266.o
 .text.esp8266_get_netdev_info
                0x00018804      0x4f8 ./packages/at_device-latest/class/esp8266/at_device_esp8266.o
 .text.esp8266_netdev_set_up
                0x00018cfc       0x74 ./packages/at_device-latest/class/esp8266/at_device_esp8266.o
 .text.esp8266_netdev_set_down
                0x00018d70       0x6c ./packages/at_device-latest/class/esp8266/at_device_esp8266.o
 .text.esp8266_netdev_set_addr_info
                0x00018ddc      0x224 ./packages/at_device-latest/class/esp8266/at_device_esp8266.o
 .text.esp8266_netdev_set_dns_server
                0x00019000      0x124 ./packages/at_device-latest/class/esp8266/at_device_esp8266.o
 .text.esp8266_netdev_set_dhcp
                0x00019124      0x104 ./packages/at_device-latest/class/esp8266/at_device_esp8266.o
 .text.esp8266_netdev_ping
                0x00019228      0x1ac ./packages/at_device-latest/class/esp8266/at_device_esp8266.o
 .text.esp8266_netdev_netstat
                0x000193d4      0x190 ./packages/at_device-latest/class/esp8266/at_device_esp8266.o
                0x000193d4                esp8266_netdev_netstat
 .text.esp8266_netdev_add
                0x00019564       0xa0 ./packages/at_device-latest/class/esp8266/at_device_esp8266.o
 .text.esp8266_netdev_start_delay_work
                0x00019604       0x40 ./packages/at_device-latest/class/esp8266/at_device_esp8266.o
 .text.esp8266_init_thread_entry
                0x00019644      0x29c ./packages/at_device-latest/class/esp8266/at_device_esp8266.o
 .text.esp8266_net_init
                0x000198e0       0x68 ./packages/at_device-latest/class/esp8266/at_device_esp8266.o
 .text.urc_busy_p_func
                0x00019948       0x18 ./packages/at_device-latest/class/esp8266/at_device_esp8266.o
 .text.urc_busy_s_func
                0x00019960       0x18 ./packages/at_device-latest/class/esp8266/at_device_esp8266.o
 .text.urc_func
                0x00019978      0x100 ./packages/at_device-latest/class/esp8266/at_device_esp8266.o
 .text.esp8266_init
                0x00019a78       0xc8 ./packages/at_device-latest/class/esp8266/at_device_esp8266.o
 .text.esp8266_deinit
                0x00019b40       0x1c ./packages/at_device-latest/class/esp8266/at_device_esp8266.o
 .text.esp8266_reset
                0x00019b5c       0x5c ./packages/at_device-latest/class/esp8266/at_device_esp8266.o
 .text.esp8266_wifi_info_set
                0x00019bb8       0xe0 ./packages/at_device-latest/class/esp8266/at_device_esp8266.o
 .text.esp8266_control
                0x00019c98       0xcc ./packages/at_device-latest/class/esp8266/at_device_esp8266.o
 .text.esp8266_device_class_register
                0x00019d64       0x60 ./packages/at_device-latest/class/esp8266/at_device_esp8266.o
 .text.esp8266_socket_event_send
                0x00019dc4       0x20 ./packages/at_device-latest/class/esp8266/at_socket_esp8266.o
 .text.esp8266_socket_event_recv
                0x00019de4       0x46 ./packages/at_device-latest/class/esp8266/at_socket_esp8266.o
 *fill*         0x00019e2a        0x2 ff
 .text.esp8266_socket_close
                0x00019e2c       0x88 ./packages/at_device-latest/class/esp8266/at_socket_esp8266.o
 .text.esp8266_socket_connect
                0x00019eb4      0x158 ./packages/at_device-latest/class/esp8266/at_socket_esp8266.o
 .text.esp8266_socket_send
                0x0001a00c      0x224 ./packages/at_device-latest/class/esp8266/at_socket_esp8266.o
 .text.esp8266_domain_resolve
                0x0001a230      0x154 ./packages/at_device-latest/class/esp8266/at_socket_esp8266.o
 .text.esp8266_socket_set_event_cb
                0x0001a384       0x2c ./packages/at_device-latest/class/esp8266/at_socket_esp8266.o
 .text.urc_send_func
                0x0001a3b0       0xcc ./packages/at_device-latest/class/esp8266/at_socket_esp8266.o
 .text.urc_send_bfsz_func
                0x0001a47c       0x48 ./packages/at_device-latest/class/esp8266/at_socket_esp8266.o
 .text.urc_close_func
                0x0001a4c4       0xb8 ./packages/at_device-latest/class/esp8266/at_socket_esp8266.o
 .text.urc_recv_func
                0x0001a57c      0x18c ./packages/at_device-latest/class/esp8266/at_socket_esp8266.o
 .text.esp8266_socket_init
                0x0001a708       0x40 ./packages/at_device-latest/class/esp8266/at_socket_esp8266.o
                0x0001a708                esp8266_socket_init
 .text.esp8266_socket_class_register
                0x0001a748       0x3c ./packages/at_device-latest/class/esp8266/at_socket_esp8266.o
                0x0001a748                esp8266_socket_class_register
 .text.example_message_arrive
                0x0001a784       0xbc ./packages/ali-iotkit-v3.0.1/samples/mqtt/mqtt-example.o
 .text.example_subscribe
                0x0001a840       0xf8 ./packages/ali-iotkit-v3.0.1/samples/mqtt/mqtt-example.o
 .text.example_publish
                0x0001a938      0x104 ./packages/ali-iotkit-v3.0.1/samples/mqtt/mqtt-example.o
 .text.example_event_handle
                0x0001aa3c       0x48 ./packages/ali-iotkit-v3.0.1/samples/mqtt/mqtt-example.o
 .text.mqtt_example_main
                0x0001aa84      0x110 ./packages/ali-iotkit-v3.0.1/samples/mqtt/mqtt-example.o
 .text.HAL_MutexCreate
                0x0001ab94       0x20 ./packages/ali-iotkit-v3.0.1/ports/rtthread/HAL_OS_rtthread.o
                0x0001ab94                HAL_MutexCreate
 .text.HAL_MutexDestroy
                0x0001abb4       0x40 ./packages/ali-iotkit-v3.0.1/ports/rtthread/HAL_OS_rtthread.o
                0x0001abb4                HAL_MutexDestroy
 .text.HAL_MutexLock
                0x0001abf4       0x44 ./packages/ali-iotkit-v3.0.1/ports/rtthread/HAL_OS_rtthread.o
                0x0001abf4                HAL_MutexLock
 .text.HAL_MutexUnlock
                0x0001ac38       0x40 ./packages/ali-iotkit-v3.0.1/ports/rtthread/HAL_OS_rtthread.o
                0x0001ac38                HAL_MutexUnlock
 .text.HAL_Malloc
                0x0001ac78       0x18 ./packages/ali-iotkit-v3.0.1/ports/rtthread/HAL_OS_rtthread.o
                0x0001ac78                HAL_Malloc
 .text.HAL_Free
                0x0001ac90       0x16 ./packages/ali-iotkit-v3.0.1/ports/rtthread/HAL_OS_rtthread.o
                0x0001ac90                HAL_Free
 .text.HAL_UptimeMs
                0x0001aca6       0x1a ./packages/ali-iotkit-v3.0.1/ports/rtthread/HAL_OS_rtthread.o
                0x0001aca6                HAL_UptimeMs
 .text.HAL_SleepMs
                0x0001acc0       0x18 ./packages/ali-iotkit-v3.0.1/ports/rtthread/HAL_OS_rtthread.o
                0x0001acc0                HAL_SleepMs
 .text.HAL_Snprintf
                0x0001acd8       0x30 ./packages/ali-iotkit-v3.0.1/ports/rtthread/HAL_OS_rtthread.o
                0x0001acd8                HAL_Snprintf
 .text.HAL_Vsnprintf
                0x0001ad08       0x24 ./packages/ali-iotkit-v3.0.1/ports/rtthread/HAL_OS_rtthread.o
                0x0001ad08                HAL_Vsnprintf
 .text.HAL_Printf
                0x0001ad2c       0x38 ./packages/ali-iotkit-v3.0.1/ports/rtthread/HAL_OS_rtthread.o
                0x0001ad2c                HAL_Printf
 .text._rtthread_time_left
                0x0001ad64       0x4e ./packages/ali-iotkit-v3.0.1/ports/rtthread/HAL_TCP_rtthread.o
 *fill*         0x0001adb2        0x2 ff
 .text.HAL_TCP_Establish
                0x0001adb4      0x15c ./packages/ali-iotkit-v3.0.1/ports/rtthread/HAL_TCP_rtthread.o
                0x0001adb4                HAL_TCP_Establish
 .text.HAL_TCP_Destroy
                0x0001af10       0x48 ./packages/ali-iotkit-v3.0.1/ports/rtthread/HAL_TCP_rtthread.o
                0x0001af10                HAL_TCP_Destroy
 .text.HAL_TCP_Write
                0x0001af58      0x244 ./packages/ali-iotkit-v3.0.1/ports/rtthread/HAL_TCP_rtthread.o
                0x0001af58                HAL_TCP_Write
 .text.HAL_TCP_Read
                0x0001b19c      0x1d0 ./packages/ali-iotkit-v3.0.1/ports/rtthread/HAL_TCP_rtthread.o
                0x0001b19c                HAL_TCP_Read
 .text.HAL_GetFirmwareVersion
                0x0001b36c       0x60 ./packages/ali-iotkit-v3.0.1/ports/wrapper.o
                0x0001b36c                HAL_GetFirmwareVersion
 .text.HAL_GetProductKey
                0x0001b3cc       0x30 ./packages/ali-iotkit-v3.0.1/ports/wrapper.o
                0x0001b3cc                HAL_GetProductKey
 .text.HAL_GetDeviceName
                0x0001b3fc       0x30 ./packages/ali-iotkit-v3.0.1/ports/wrapper.o
                0x0001b3fc                HAL_GetDeviceName
 .text.HAL_GetDeviceSecret
                0x0001b42c       0x30 ./packages/ali-iotkit-v3.0.1/ports/wrapper.o
                0x0001b42c                HAL_GetDeviceSecret
 .text.MQTTSerialize_connectLength
                0x0001b45c       0xc2 ./packages/ali-iotkit-v3.0.1/iotkit-embedded/src/mqtt/impl/MQTTConnectClient.o
                0x0001b45c                MQTTSerialize_connectLength
 *fill*         0x0001b51e        0x2 ff
 .text.MQTTSerialize_connect
                0x0001b520      0x1f0 ./packages/ali-iotkit-v3.0.1/iotkit-embedded/src/mqtt/impl/MQTTConnectClient.o
                0x0001b520                MQTTSerialize_connect
 .text.MQTTDeserialize_connack
                0x0001b710       0xa8 ./packages/ali-iotkit-v3.0.1/iotkit-embedded/src/mqtt/impl/MQTTConnectClient.o
                0x0001b710                MQTTDeserialize_connack
 .text.MQTTSerialize_zero
                0x0001b7b8       0x72 ./packages/ali-iotkit-v3.0.1/iotkit-embedded/src/mqtt/impl/MQTTConnectClient.o
                0x0001b7b8                MQTTSerialize_zero
 .text.MQTTSerialize_disconnect
                0x0001b82a       0x1e ./packages/ali-iotkit-v3.0.1/iotkit-embedded/src/mqtt/impl/MQTTConnectClient.o
                0x0001b82a                MQTTSerialize_disconnect
 .text.MQTTSerialize_pingreq
                0x0001b848       0x1e ./packages/ali-iotkit-v3.0.1/iotkit-embedded/src/mqtt/impl/MQTTConnectClient.o
                0x0001b848                MQTTSerialize_pingreq
 .text.MQTTDeserialize_publish
                0x0001b866       0xe0 ./packages/ali-iotkit-v3.0.1/iotkit-embedded/src/mqtt/impl/MQTTDeserializePublish.o
                0x0001b866                MQTTDeserialize_publish
 .text.MQTTDeserialize_ack
                0x0001b946       0x94 ./packages/ali-iotkit-v3.0.1/iotkit-embedded/src/mqtt/impl/MQTTDeserializePublish.o
                0x0001b946                MQTTDeserialize_ack
 .text.MQTTPacket_encode
                0x0001b9da       0x5e ./packages/ali-iotkit-v3.0.1/iotkit-embedded/src/mqtt/impl/MQTTPacket.o
                0x0001b9da                MQTTPacket_encode
 .text.MQTTPacket_decode
                0x0001ba38       0x78 ./packages/ali-iotkit-v3.0.1/iotkit-embedded/src/mqtt/impl/MQTTPacket.o
                0x0001ba38                MQTTPacket_decode
 .text.MQTTPacket_len
                0x0001bab0       0x54 ./packages/ali-iotkit-v3.0.1/iotkit-embedded/src/mqtt/impl/MQTTPacket.o
                0x0001bab0                MQTTPacket_len
 .text.bufchar  0x0001bb04       0x40 ./packages/ali-iotkit-v3.0.1/iotkit-embedded/src/mqtt/impl/MQTTPacket.o
                0x0001bb04                bufchar
 .text.MQTTPacket_decodeBuf
                0x0001bb44       0x2c ./packages/ali-iotkit-v3.0.1/iotkit-embedded/src/mqtt/impl/MQTTPacket.o
                0x0001bb44                MQTTPacket_decodeBuf
 .text.readInt  0x0001bb70       0x36 ./packages/ali-iotkit-v3.0.1/iotkit-embedded/src/mqtt/impl/MQTTPacket.o
                0x0001bb70                readInt
 .text.readChar
                0x0001bba6       0x28 ./packages/ali-iotkit-v3.0.1/iotkit-embedded/src/mqtt/impl/MQTTPacket.o
                0x0001bba6                readChar
 .text.writeChar
                0x0001bbce       0x2a ./packages/ali-iotkit-v3.0.1/iotkit-embedded/src/mqtt/impl/MQTTPacket.o
                0x0001bbce                writeChar
 .text.writeInt
                0x0001bbf8       0x52 ./packages/ali-iotkit-v3.0.1/iotkit-embedded/src/mqtt/impl/MQTTPacket.o
                0x0001bbf8                writeInt
 .text.writeCString
                0x0001bc4a       0x3e ./packages/ali-iotkit-v3.0.1/iotkit-embedded/src/mqtt/impl/MQTTPacket.o
                0x0001bc4a                writeCString
 .text.writeMQTTString
                0x0001bc88       0x5c ./packages/ali-iotkit-v3.0.1/iotkit-embedded/src/mqtt/impl/MQTTPacket.o
                0x0001bc88                writeMQTTString
 .text.readMQTTLenString
                0x0001bce4       0x62 ./packages/ali-iotkit-v3.0.1/iotkit-embedded/src/mqtt/impl/MQTTPacket.o
                0x0001bce4                readMQTTLenString
 .text.MQTTstrlen
                0x0001bd46       0x32 ./packages/ali-iotkit-v3.0.1/iotkit-embedded/src/mqtt/impl/MQTTPacket.o
                0x0001bd46                MQTTstrlen
 .text.MQTTPacket_equals
                0x0001bd78       0x6e ./packages/ali-iotkit-v3.0.1/iotkit-embedded/src/mqtt/impl/MQTTPacket.o
                0x0001bd78                MQTTPacket_equals
 .text.MQTTSerialize_publishLength
                0x0001bde6       0x40 ./packages/ali-iotkit-v3.0.1/iotkit-embedded/src/mqtt/impl/MQTTSerializePublish.o
                0x0001bde6                MQTTSerialize_publishLength
 .text.MQTTSerialize_publish
                0x0001be26      0x100 ./packages/ali-iotkit-v3.0.1/iotkit-embedded/src/mqtt/impl/MQTTSerializePublish.o
                0x0001be26                MQTTSerialize_publish
 .text.MQTTSerialize_ack
                0x0001bf26       0xb2 ./packages/ali-iotkit-v3.0.1/iotkit-embedded/src/mqtt/impl/MQTTSerializePublish.o
                0x0001bf26                MQTTSerialize_ack
 .text.MQTTSerialize_subscribeLength
                0x0001bfd8       0x4e ./packages/ali-iotkit-v3.0.1/iotkit-embedded/src/mqtt/impl/MQTTSubscribeClient.o
                0x0001bfd8                MQTTSerialize_subscribeLength
 .text.MQTTSerialize_subscribe
                0x0001c026      0x100 ./packages/ali-iotkit-v3.0.1/iotkit-embedded/src/mqtt/impl/MQTTSubscribeClient.o
                0x0001c026                MQTTSerialize_subscribe
 .text.MQTTDeserialize_suback
                0x0001c126       0xcc ./packages/ali-iotkit-v3.0.1/iotkit-embedded/src/mqtt/impl/MQTTSubscribeClient.o
                0x0001c126                MQTTDeserialize_suback
 .text.MQTTDeserialize_unsuback
                0x0001c1f2       0x42 ./packages/ali-iotkit-v3.0.1/iotkit-embedded/src/mqtt/impl/MQTTUnsubscribeClient.o
                0x0001c1f2                MQTTDeserialize_unsuback
 .text.__dlist_add
                0x0001c234       0x30 ./packages/ali-iotkit-v3.0.1/iotkit-embedded/src/mqtt/impl/iotx_mqtt_client.o
 .text.dlist_add_tail
                0x0001c264       0x20 ./packages/ali-iotkit-v3.0.1/iotkit-embedded/src/mqtt/impl/iotx_mqtt_client.o
 .text.dlist_del
                0x0001c284       0x2c ./packages/ali-iotkit-v3.0.1/iotkit-embedded/src/mqtt/impl/iotx_mqtt_client.o
 .text.INIT_AOS_DLIST_HEAD
                0x0001c2b0       0x20 ./packages/ali-iotkit-v3.0.1/iotkit-embedded/src/mqtt/impl/iotx_mqtt_client.o
 .text.__dlist_entry_number
                0x0001c2d0       0x36 ./packages/ali-iotkit-v3.0.1/iotkit-embedded/src/mqtt/impl/iotx_mqtt_client.o
 .text.iotx_mc_release
                0x0001c306       0x1a ./packages/ali-iotkit-v3.0.1/iotkit-embedded/src/mqtt/impl/iotx_mqtt_client.o
 .text.iotx_mc_pub_wait_list_init
                0x0001c320       0x1a ./packages/ali-iotkit-v3.0.1/iotkit-embedded/src/mqtt/impl/iotx_mqtt_client.o
 .text.iotx_mc_pub_wait_list_deinit
                0x0001c33a       0x5c ./packages/ali-iotkit-v3.0.1/iotkit-embedded/src/mqtt/impl/iotx_mqtt_client.o
 .text.iotx_mc_set_connect_params
                0x0001c396       0xfe ./packages/ali-iotkit-v3.0.1/iotkit-embedded/src/mqtt/impl/iotx_mqtt_client.o
 .text.iotx_mc_set_client_state
                0x0001c494       0x30 ./packages/ali-iotkit-v3.0.1/iotkit-embedded/src/mqtt/impl/iotx_mqtt_client.o
 .text.iotx_mc_get_client_state
                0x0001c4c4       0x2e ./packages/ali-iotkit-v3.0.1/iotkit-embedded/src/mqtt/impl/iotx_mqtt_client.o
 *fill*         0x0001c4f2        0x2 ff
 .text.iotx_mc_init
                0x0001c4f4      0x2bc ./packages/ali-iotkit-v3.0.1/iotkit-embedded/src/mqtt/impl/iotx_mqtt_client.o
 .text._get_connect_length
                0x0001c7b0       0x20 ./packages/ali-iotkit-v3.0.1/iotkit-embedded/src/mqtt/impl/iotx_mqtt_client.o
 .text._reset_send_buffer
                0x0001c7d0       0x42 ./packages/ali-iotkit-v3.0.1/iotkit-embedded/src/mqtt/impl/iotx_mqtt_client.o
 .text._reset_recv_buffer
                0x0001c812       0x42 ./packages/ali-iotkit-v3.0.1/iotkit-embedded/src/mqtt/impl/iotx_mqtt_client.o
 .text._alloc_send_buffer
                0x0001c854       0x80 ./packages/ali-iotkit-v3.0.1/iotkit-embedded/src/mqtt/impl/iotx_mqtt_client.o
 .text._alloc_recv_buffer
                0x0001c8d4       0xf4 ./packages/ali-iotkit-v3.0.1/iotkit-embedded/src/mqtt/impl/iotx_mqtt_client.o
 .text.iotx_mc_send_packet
                0x0001c9c8       0xaa ./packages/ali-iotkit-v3.0.1/iotkit-embedded/src/mqtt/impl/iotx_mqtt_client.o
 *fill*         0x0001ca72        0x2 ff
 .text.MQTTConnect
                0x0001ca74      0x120 ./packages/ali-iotkit-v3.0.1/iotkit-embedded/src/mqtt/impl/iotx_mqtt_client.o
                0x0001ca74                MQTTConnect
 .text.iotx_mc_decode_packet
                0x0001cb94       0xb0 ./packages/ali-iotkit-v3.0.1/iotkit-embedded/src/mqtt/impl/iotx_mqtt_client.o
 .text._handle_event
                0x0001cc44       0x48 ./packages/ali-iotkit-v3.0.1/iotkit-embedded/src/mqtt/impl/iotx_mqtt_client.o
 .text.iotx_mc_read_packet
                0x0001cc8c      0x428 ./packages/ali-iotkit-v3.0.1/iotkit-embedded/src/mqtt/impl/iotx_mqtt_client.o
 .text.iotx_mc_handle_recv_CONNACK
                0x0001d0b4       0xc4 ./packages/ali-iotkit-v3.0.1/iotkit-embedded/src/mqtt/impl/iotx_mqtt_client.o
 .text.iotx_mc_wait_CONNACK
                0x0001d178      0x134 ./packages/ali-iotkit-v3.0.1/iotkit-embedded/src/mqtt/impl/iotx_mqtt_client.o
 .text._mqtt_connect
                0x0001d2ac      0x15c ./packages/ali-iotkit-v3.0.1/iotkit-embedded/src/mqtt/impl/iotx_mqtt_client.o
 .text.iotx_mc_push_pubInfo_to
                0x0001d408      0x12c ./packages/ali-iotkit-v3.0.1/iotkit-embedded/src/mqtt/impl/iotx_mqtt_client.o
 .text.iotx_mc_mask_pubInfo_from
                0x0001d534       0x70 ./packages/ali-iotkit-v3.0.1/iotkit-embedded/src/mqtt/impl/iotx_mqtt_client.o
 .text.MQTTRePublish
                0x0001d5a4       0x6e ./packages/ali-iotkit-v3.0.1/iotkit-embedded/src/mqtt/impl/iotx_mqtt_client.o
 .text.MQTTPubInfoProc
                0x0001d612       0xe8 ./packages/ali-iotkit-v3.0.1/iotkit-embedded/src/mqtt/impl/iotx_mqtt_client.o
 .text.iotx_mc_handle_recv_PUBACK
                0x0001d6fa       0x7a ./packages/ali-iotkit-v3.0.1/iotkit-embedded/src/mqtt/impl/iotx_mqtt_client.o
 .text._iotx_mqtt_event_handle_sub
                0x0001d774       0x88 ./packages/ali-iotkit-v3.0.1/iotkit-embedded/src/mqtt/impl/iotx_mqtt_client.o
 .text.iotx_mc_handle_recv_SUBACK
                0x0001d7fc      0x120 ./packages/ali-iotkit-v3.0.1/iotkit-embedded/src/mqtt/impl/iotx_mqtt_client.o
 .text.iotx_mc_is_topic_matched
                0x0001d91c       0xe2 ./packages/ali-iotkit-v3.0.1/iotkit-embedded/src/mqtt/impl/iotx_mqtt_client.o
 .text.iotx_mc_deliver_message
                0x0001d9fe      0x102 ./packages/ali-iotkit-v3.0.1/iotkit-embedded/src/mqtt/impl/iotx_mqtt_client.o
 .text.MQTTPuback
                0x0001db00      0x106 ./packages/ali-iotkit-v3.0.1/iotkit-embedded/src/mqtt/impl/iotx_mqtt_client.o
 *fill*         0x0001dc06        0x2 ff
 .text.iotx_mc_handle_recv_PUBLISH
                0x0001dc08      0x154 ./packages/ali-iotkit-v3.0.1/iotkit-embedded/src/mqtt/impl/iotx_mqtt_client.o
 .text.iotx_mc_handle_recv_UNSUBACK
                0x0001dd5c       0x64 ./packages/ali-iotkit-v3.0.1/iotkit-embedded/src/mqtt/impl/iotx_mqtt_client.o
 .text.iotx_mc_cycle
                0x0001ddc0      0x250 ./packages/ali-iotkit-v3.0.1/iotkit-embedded/src/mqtt/impl/iotx_mqtt_client.o
 .text._mqtt_cycle
                0x0001e010       0xc0 ./packages/ali-iotkit-v3.0.1/iotkit-embedded/src/mqtt/impl/iotx_mqtt_client.o
                0x0001e010                _mqtt_cycle
 .text.MQTTKeepalive
                0x0001e0d0      0x118 ./packages/ali-iotkit-v3.0.1/iotkit-embedded/src/mqtt/impl/iotx_mqtt_client.o
 .text.iotx_mc_keepalive_sub
                0x0001e1e8       0xcc ./packages/ali-iotkit-v3.0.1/iotkit-embedded/src/mqtt/impl/iotx_mqtt_client.o
 .text.iotx_mc_attempt_reconnect
                0x0001e2b4       0x60 ./packages/ali-iotkit-v3.0.1/iotkit-embedded/src/mqtt/impl/iotx_mqtt_client.o
 .text.iotx_mc_handle_reconnect
                0x0001e314       0xd0 ./packages/ali-iotkit-v3.0.1/iotkit-embedded/src/mqtt/impl/iotx_mqtt_client.o
 .text.iotx_mc_reconnect_callback
                0x0001e3e4       0x36 ./packages/ali-iotkit-v3.0.1/iotkit-embedded/src/mqtt/impl/iotx_mqtt_client.o
 .text.iotx_mc_disconnect_callback
                0x0001e41a       0x36 ./packages/ali-iotkit-v3.0.1/iotkit-embedded/src/mqtt/impl/iotx_mqtt_client.o
 .text.iotx_mc_keepalive
                0x0001e450       0xd8 ./packages/ali-iotkit-v3.0.1/iotkit-embedded/src/mqtt/impl/iotx_mqtt_client.o
 .text.iotx_mc_check_handle_is_identical_ex
                0x0001e528       0x7a ./packages/ali-iotkit-v3.0.1/iotkit-embedded/src/mqtt/impl/iotx_mqtt_client.o
 .text.iotx_mc_check_handle_is_identical
                0x0001e5a2       0x46 ./packages/ali-iotkit-v3.0.1/iotkit-embedded/src/mqtt/impl/iotx_mqtt_client.o
 .text.MQTTSubscribe
                0x0001e5e8      0x2a4 ./packages/ali-iotkit-v3.0.1/iotkit-embedded/src/mqtt/impl/iotx_mqtt_client.o
 .text.iotx_mc_get_next_packetid
                0x0001e88c       0x56 ./packages/ali-iotkit-v3.0.1/iotkit-embedded/src/mqtt/impl/iotx_mqtt_client.o
 *fill*         0x0001e8e2        0x2 ff
 .text.iotx_mc_check_rule
                0x0001e8e4       0xf8 ./packages/ali-iotkit-v3.0.1/iotkit-embedded/src/mqtt/impl/iotx_mqtt_client.o
 .text.iotx_mc_check_topic
                0x0001e9dc      0x148 ./packages/ali-iotkit-v3.0.1/iotkit-embedded/src/mqtt/impl/iotx_mqtt_client.o
 .text.MQTTPublish
                0x0001eb24      0x238 ./packages/ali-iotkit-v3.0.1/iotkit-embedded/src/mqtt/impl/iotx_mqtt_client.o
                0x0001eb24                MQTTPublish
 .text.MQTTDisconnect
                0x0001ed5c       0xaa ./packages/ali-iotkit-v3.0.1/iotkit-embedded/src/mqtt/impl/iotx_mqtt_client.o
 .text.iotx_mc_disconnect
                0x0001ee06       0x4c ./packages/ali-iotkit-v3.0.1/iotkit-embedded/src/mqtt/impl/iotx_mqtt_client.o
 *fill*         0x0001ee52        0x2 ff
 .text.wrapper_mqtt_init
                0x0001ee54       0x80 ./packages/ali-iotkit-v3.0.1/iotkit-embedded/src/mqtt/impl/iotx_mqtt_client.o
                0x0001ee54                wrapper_mqtt_init
 .text.wrapper_mqtt_connect
                0x0001eed4       0xd4 ./packages/ali-iotkit-v3.0.1/iotkit-embedded/src/mqtt/impl/iotx_mqtt_client.o
                0x0001eed4                wrapper_mqtt_connect
 .text.wrapper_mqtt_release
                0x0001efa8      0x12e ./packages/ali-iotkit-v3.0.1/iotkit-embedded/src/mqtt/impl/iotx_mqtt_client.o
                0x0001efa8                wrapper_mqtt_release
 *fill*         0x0001f0d6        0x2 ff
 .text.wrapper_mqtt_yield
                0x0001f0d8       0x88 ./packages/ali-iotkit-v3.0.1/iotkit-embedded/src/mqtt/impl/iotx_mqtt_client.o
                0x0001f0d8                wrapper_mqtt_yield
 .text.wrapper_mqtt_check_state
                0x0001f160       0x2c ./packages/ali-iotkit-v3.0.1/iotkit-embedded/src/mqtt/impl/iotx_mqtt_client.o
                0x0001f160                wrapper_mqtt_check_state
 .text.wrapper_mqtt_subscribe
                0x0001f18c      0x118 ./packages/ali-iotkit-v3.0.1/iotkit-embedded/src/mqtt/impl/iotx_mqtt_client.o
                0x0001f18c                wrapper_mqtt_subscribe
 .text.wrapper_mqtt_publish
                0x0001f2a4      0x130 ./packages/ali-iotkit-v3.0.1/iotkit-embedded/src/mqtt/impl/iotx_mqtt_client.o
                0x0001f2a4                wrapper_mqtt_publish
 .text.__dlist_add
                0x0001f3d4       0x30 ./packages/ali-iotkit-v3.0.1/iotkit-embedded/src/mqtt/mqtt_api.o
 .text.dlist_add_tail
                0x0001f404       0x20 ./packages/ali-iotkit-v3.0.1/iotkit-embedded/src/mqtt/mqtt_api.o
 .text.dlist_del
                0x0001f424       0x2c ./packages/ali-iotkit-v3.0.1/iotkit-embedded/src/mqtt/mqtt_api.o
 .text.INIT_AOS_DLIST_HEAD
                0x0001f450       0x20 ./packages/ali-iotkit-v3.0.1/iotkit-embedded/src/mqtt/mqtt_api.o
 .text._offline_subs_list_init
                0x0001f470       0x40 ./packages/ali-iotkit-v3.0.1/iotkit-embedded/src/mqtt/mqtt_api.o
 .text._offline_subs_list_deinit
                0x0001f4b0       0x88 ./packages/ali-iotkit-v3.0.1/iotkit-embedded/src/mqtt/mqtt_api.o
 .text.iotx_mqtt_offline_subscribe
                0x0001f538      0x17c ./packages/ali-iotkit-v3.0.1/iotkit-embedded/src/mqtt/mqtt_api.o
 .text.iotx_mqtt_deal_offline_subs
                0x0001f6b4       0xac ./packages/ali-iotkit-v3.0.1/iotkit-embedded/src/mqtt/mqtt_api.o
 .text.iotx_mqtt_report_funcs
                0x0001f760       0x94 ./packages/ali-iotkit-v3.0.1/iotkit-embedded/src/mqtt/mqtt_api.o
 .text.IOT_MQTT_Construct
                0x0001f7f4      0x690 ./packages/ali-iotkit-v3.0.1/iotkit-embedded/src/mqtt/mqtt_api.o
                0x0001f7f4                IOT_MQTT_Construct
 .text.IOT_MQTT_Destroy
                0x0001fe84       0x6c ./packages/ali-iotkit-v3.0.1/iotkit-embedded/src/mqtt/mqtt_api.o
                0x0001fe84                IOT_MQTT_Destroy
 .text.IOT_MQTT_Yield
                0x0001fef0       0x30 ./packages/ali-iotkit-v3.0.1/iotkit-embedded/src/mqtt/mqtt_api.o
                0x0001fef0                IOT_MQTT_Yield
 .text.IOT_MQTT_Subscribe
                0x0001ff20       0x98 ./packages/ali-iotkit-v3.0.1/iotkit-embedded/src/mqtt/mqtt_api.o
                0x0001ff20                IOT_MQTT_Subscribe
 .text.IOT_MQTT_Publish_Simple
                0x0001ffb8       0xc0 ./packages/ali-iotkit-v3.0.1/iotkit-embedded/src/mqtt/mqtt_api.o
                0x0001ffb8                IOT_MQTT_Publish_Simple
 .text.buffer_skip_whitespace
                0x00020078       0x6a ./packages/ali-iotkit-v3.0.1/iotkit-embedded/src/infra/infra_cjson.o
 *fill*         0x000200e2        0x2 ff
 .text.skip_utf8_bom
                0x000200e4       0x68 ./packages/ali-iotkit-v3.0.1/iotkit-embedded/src/infra/infra_cjson.o
 *fill*         0x0002014c        0x4 ff
 .text.parse_number
                0x00020150      0x1fc ./packages/ali-iotkit-v3.0.1/iotkit-embedded/src/infra/infra_cjson.o
 .text.parse_array
                0x0002034c      0x172 ./packages/ali-iotkit-v3.0.1/iotkit-embedded/src/infra/infra_cjson.o
 .text.parse_object
                0x000204be      0x1ea ./packages/ali-iotkit-v3.0.1/iotkit-embedded/src/infra/infra_cjson.o
 .text.parse_string
                0x000206a8       0xf4 ./packages/ali-iotkit-v3.0.1/iotkit-embedded/src/infra/infra_cjson.o
 .text.parse_value
                0x0002079c      0x210 ./packages/ali-iotkit-v3.0.1/iotkit-embedded/src/infra/infra_cjson.o
 .text.lite_cjson_parse
                0x000209ac       0x88 ./packages/ali-iotkit-v3.0.1/iotkit-embedded/src/infra/infra_cjson.o
                0x000209ac                lite_cjson_parse
 .text.lite_cjson_is_object
                0x00020a34       0x30 ./packages/ali-iotkit-v3.0.1/iotkit-embedded/src/infra/infra_cjson.o
                0x00020a34                lite_cjson_is_object
 .text.lite_cjson_array_item
                0x00020a64      0x16a ./packages/ali-iotkit-v3.0.1/iotkit-embedded/src/infra/infra_cjson.o
                0x00020a64                lite_cjson_array_item
 .text._lite_cjson_object_item
                0x00020bce      0x1f8 ./packages/ali-iotkit-v3.0.1/iotkit-embedded/src/infra/infra_cjson.o
 .text._lite_cjson_key_array_index
                0x00020dc6      0x136 ./packages/ali-iotkit-v3.0.1/iotkit-embedded/src/infra/infra_cjson.o
 .text.lite_cjson_object_item
                0x00020efc      0x1cc ./packages/ali-iotkit-v3.0.1/iotkit-embedded/src/infra/infra_cjson.o
                0x00020efc                lite_cjson_object_item
 .text.IOT_Ioctl
                0x000210c8      0x258 ./packages/ali-iotkit-v3.0.1/iotkit-embedded/src/infra/infra_compat.o
                0x000210c8                IOT_Ioctl
 .text.iotx_event_callback
                0x00021320       0x34 ./packages/ali-iotkit-v3.0.1/iotkit-embedded/src/infra/infra_compat.o
                0x00021320                iotx_event_callback
 .text.LITE_syslog_routine
                0x00021354      0x110 ./packages/ali-iotkit-v3.0.1/iotkit-embedded/src/infra/infra_log.o
                0x00021354                LITE_syslog_routine
 .text.LITE_syslog
                0x00021464       0x32 ./packages/ali-iotkit-v3.0.1/iotkit-embedded/src/infra/infra_log.o
                0x00021464                LITE_syslog
 *fill*         0x00021496        0x2 ff
 .text.LITE_get_loglevel
                0x00021498       0x18 ./packages/ali-iotkit-v3.0.1/iotkit-embedded/src/infra/infra_log.o
                0x00021498                LITE_get_loglevel
 .text.read_tcp
                0x000214b0       0x26 ./packages/ali-iotkit-v3.0.1/iotkit-embedded/src/infra/infra_net.o
 .text.write_tcp
                0x000214d6       0x26 ./packages/ali-iotkit-v3.0.1/iotkit-embedded/src/infra/infra_net.o
 .text.disconnect_tcp
                0x000214fc       0x50 ./packages/ali-iotkit-v3.0.1/iotkit-embedded/src/infra/infra_net.o
 .text.connect_tcp
                0x0002154c       0x60 ./packages/ali-iotkit-v3.0.1/iotkit-embedded/src/infra/infra_net.o
 .text.utils_net_read
                0x000215ac       0x58 ./packages/ali-iotkit-v3.0.1/iotkit-embedded/src/infra/infra_net.o
                0x000215ac                utils_net_read
 .text.utils_net_write
                0x00021604       0x58 ./packages/ali-iotkit-v3.0.1/iotkit-embedded/src/infra/infra_net.o
                0x00021604                utils_net_write
 .text.iotx_net_disconnect
                0x0002165c       0x4c ./packages/ali-iotkit-v3.0.1/iotkit-embedded/src/infra/infra_net.o
                0x0002165c                iotx_net_disconnect
 .text.iotx_net_connect
                0x000216a8       0x4c ./packages/ali-iotkit-v3.0.1/iotkit-embedded/src/infra/infra_net.o
                0x000216a8                iotx_net_connect
 .text.iotx_net_init
                0x000216f4       0xb0 ./packages/ali-iotkit-v3.0.1/iotkit-embedded/src/infra/infra_net.o
                0x000216f4                iotx_net_init
 .text.iotx_facility_json_print
                0x000217a4      0x3d8 ./packages/ali-iotkit-v3.0.1/iotkit-embedded/src/infra/infra_prt_nwk_payload.o
                0x000217a4                iotx_facility_json_print
 .text.iotx_report_id
                0x00021b7c       0x1c ./packages/ali-iotkit-v3.0.1/iotkit-embedded/src/infra/infra_report.o
                0x00021b7c                iotx_report_id
 .text.iotx_set_report_func
                0x00021b98       0x20 ./packages/ali-iotkit-v3.0.1/iotkit-embedded/src/infra/infra_report.o
                0x00021b98                iotx_set_report_func
 .text.iotx_report_devinfo
                0x00021bb8      0x1dc ./packages/ali-iotkit-v3.0.1/iotkit-embedded/src/infra/infra_report.o
                0x00021bb8                iotx_report_devinfo
 .text.iotx_report_firmware_version
                0x00021d94      0x1d4 ./packages/ali-iotkit-v3.0.1/iotkit-embedded/src/infra/infra_report.o
                0x00021d94                iotx_report_firmware_version
 .text.iotx_report_mid
                0x00021f68       0x16 ./packages/ali-iotkit-v3.0.1/iotkit-embedded/src/infra/infra_report.o
                0x00021f68                iotx_report_mid
 .text.utils_sha256_init
                0x00021f7e       0x1a ./packages/ali-iotkit-v3.0.1/iotkit-embedded/src/infra/infra_sha256.o
                0x00021f7e                utils_sha256_init
 .text.utils_sha256_starts
                0x00021f98       0x80 ./packages/ali-iotkit-v3.0.1/iotkit-embedded/src/infra/infra_sha256.o
                0x00021f98                utils_sha256_starts
 .text.utils_sha256_process
                0x00022018      0x3f4 ./packages/ali-iotkit-v3.0.1/iotkit-embedded/src/infra/infra_sha256.o
                0x00022018                utils_sha256_process
 .text.utils_sha256_update
                0x0002240c       0xce ./packages/ali-iotkit-v3.0.1/iotkit-embedded/src/infra/infra_sha256.o
                0x0002240c                utils_sha256_update
 *fill*         0x000224da        0x2 ff
 .text.utils_sha256_finish
                0x000224dc      0x258 ./packages/ali-iotkit-v3.0.1/iotkit-embedded/src/infra/infra_sha256.o
                0x000224dc                utils_sha256_finish
 .text.utils_hmac_sha256
                0x00022734      0x170 ./packages/ali-iotkit-v3.0.1/iotkit-embedded/src/infra/infra_sha256.o
                0x00022734                utils_hmac_sha256
 .text.infra_strtok
                0x000228a4      0x13c ./packages/ali-iotkit-v3.0.1/iotkit-embedded/src/infra/infra_string.o
                0x000228a4                infra_strtok
 .text.iotx_time_start
                0x000229e0       0x24 ./packages/ali-iotkit-v3.0.1/iotkit-embedded/src/infra/infra_timer.o
                0x000229e0                iotx_time_start
 .text.utils_time_spend
                0x00022a04       0x32 ./packages/ali-iotkit-v3.0.1/iotkit-embedded/src/infra/infra_timer.o
                0x00022a04                utils_time_spend
 .text.iotx_time_left
                0x00022a36       0x42 ./packages/ali-iotkit-v3.0.1/iotkit-embedded/src/infra/infra_timer.o
                0x00022a36                iotx_time_left
 .text.utils_time_is_expired
                0x00022a78       0x3c ./packages/ali-iotkit-v3.0.1/iotkit-embedded/src/infra/infra_timer.o
                0x00022a78                utils_time_is_expired
 .text.iotx_time_init
                0x00022ab4       0x22 ./packages/ali-iotkit-v3.0.1/iotkit-embedded/src/infra/infra_timer.o
                0x00022ab4                iotx_time_init
 .text.utils_time_countdown_ms
                0x00022ad6       0x2a ./packages/ali-iotkit-v3.0.1/iotkit-embedded/src/infra/infra_timer.o
                0x00022ad6                utils_time_countdown_ms
 .text._hex2str
                0x00022b00       0x84 ./packages/ali-iotkit-v3.0.1/iotkit-embedded/src/dev_sign/dev_sign_mqtt.o
 .text._sign_get_clientid
                0x00022b84      0x1d0 ./packages/ali-iotkit-v3.0.1/iotkit-embedded/src/dev_sign/dev_sign_mqtt.o
                0x00022b84                _sign_get_clientid
 .text._iotx_generate_sign_string
                0x00022d54      0x260 ./packages/ali-iotkit-v3.0.1/iotkit-embedded/src/dev_sign/dev_sign_mqtt.o
                0x00022d54                _iotx_generate_sign_string
 .text.rt_strlwr
                0x00022fb4       0x50 ./packages/ali-iotkit-v3.0.1/iotkit-embedded/src/dev_sign/dev_sign_mqtt.o
 .text.IOT_Sign_MQTT
                0x00023004      0x2fc ./packages/ali-iotkit-v3.0.1/iotkit-embedded/src/dev_sign/dev_sign_mqtt.o
                0x00023004                IOT_Sign_MQTT
 .text.dm_client_get_ctx
                0x00023300       0x14 ./packages/ali-iotkit-v3.0.1/iotkit-embedded/src/dev_model/client/dm_client_adapter.o
 .text.dm_client_publish
                0x00023314       0x5e ./packages/ali-iotkit-v3.0.1/iotkit-embedded/src/dev_model/client/dm_client_adapter.o
                0x00023314                dm_client_publish
 *fill*         0x00023372        0x2 ff
 .text._dm_api_get_ctx
                0x00023374       0x14 ./packages/ali-iotkit-v3.0.1/iotkit-embedded/src/dev_model/dm_api.o
 .text._dm_api_lock
                0x00023388       0x26 ./packages/ali-iotkit-v3.0.1/iotkit-embedded/src/dev_model/dm_api.o
 .text._dm_api_unlock
                0x000233ae       0x26 ./packages/ali-iotkit-v3.0.1/iotkit-embedded/src/dev_model/dm_api.o
 .text.iotx_dm_set_opt
                0x000233d4       0x20 ./packages/ali-iotkit-v3.0.1/iotkit-embedded/src/dev_model/dm_api.o
                0x000233d4                iotx_dm_set_opt
 .text.iotx_dm_log_post
                0x000233f4       0x40 ./packages/ali-iotkit-v3.0.1/iotkit-embedded/src/dev_model/dm_api.o
                0x000233f4                iotx_dm_log_post
 .text.remove_log_poll
                0x00023434       0x30 ./packages/ali-iotkit-v3.0.1/iotkit-embedded/src/dev_model/dm_log_report.o
                0x00023434                remove_log_poll
 .text.push_log
                0x00023464       0x58 ./packages/ali-iotkit-v3.0.1/iotkit-embedded/src/dev_model/dm_log_report.o
                0x00023464                push_log
 .text.add_tail
                0x000234bc       0x38 ./packages/ali-iotkit-v3.0.1/iotkit-embedded/src/dev_model/dm_log_report.o
                0x000234bc                add_tail
 .text.add_log_header
                0x000234f4       0x28 ./packages/ali-iotkit-v3.0.1/iotkit-embedded/src/dev_model/dm_log_report.o
                0x000234f4                add_log_header
 .text.reset_log_poll
                0x0002351c       0x5c ./packages/ali-iotkit-v3.0.1/iotkit-embedded/src/dev_model/dm_log_report.o
                0x0002351c                reset_log_poll
 .text.set_target_msg
                0x00023578       0x98 ./packages/ali-iotkit-v3.0.1/iotkit-embedded/src/dev_model/dm_log_report.o
                0x00023578                set_target_msg
 .text.parse_msg_id
                0x00023610       0x4c ./packages/ali-iotkit-v3.0.1/iotkit-embedded/src/dev_model/dm_log_report.o
                0x00023610                parse_msg_id
 .text.stop_sample
                0x0002365c       0x38 ./packages/ali-iotkit-v3.0.1/iotkit-embedded/src/dev_model/dm_log_report.o
                0x0002365c                stop_sample
 .text.send_permance_info
                0x00023694      0x134 ./packages/ali-iotkit-v3.0.1/iotkit-embedded/src/dev_model/dm_log_report.o
                0x00023694                send_permance_info
 .text.get_msgid
                0x000237c8       0xfc ./packages/ali-iotkit-v3.0.1/iotkit-embedded/src/dev_model/dm_log_report.o
                0x000237c8                get_msgid
 .text._dm_mgr_get_ctx
                0x000238c4       0x14 ./packages/ali-iotkit-v3.0.1/iotkit-embedded/src/dev_model/dm_manager.o
 .text._dm_mgr_search_dev_by_devid
                0x000238d8       0x5c ./packages/ali-iotkit-v3.0.1/iotkit-embedded/src/dev_model/dm_manager.o
 .text._dm_mgr_upstream_request_assemble
                0x00023934       0xa8 ./packages/ali-iotkit-v3.0.1/iotkit-embedded/src/dev_model/dm_manager.o
 .text.dm_mgr_upstream_thing_log_post
                0x000239dc      0x114 ./packages/ali-iotkit-v3.0.1/iotkit-embedded/src/dev_model/dm_manager.o
                0x000239dc                dm_mgr_upstream_thing_log_post
 .text.dm_msg_request
                0x00023af0      0x15c ./packages/ali-iotkit-v3.0.1/iotkit-embedded/src/dev_model/dm_message.o
                0x00023af0                dm_msg_request
 .text.dm_opt_set
                0x00023c4c       0x74 ./packages/ali-iotkit-v3.0.1/iotkit-embedded/src/dev_model/dm_opt.o
                0x00023c4c                dm_opt_set
 .text.dm_utils_service_name
                0x00023cc0       0xf4 ./packages/ali-iotkit-v3.0.1/iotkit-embedded/src/dev_model/dm_utils.o
                0x00023cc0                dm_utils_service_name
 .text.dm_utils_json_parse
                0x00023db4       0x86 ./packages/ali-iotkit-v3.0.1/iotkit-embedded/src/dev_model/dm_utils.o
                0x00023db4                dm_utils_json_parse
 *fill*         0x00023e3a        0x2 ff
 .text.dm_utils_json_object_item
                0x00023e3c       0xc4 ./packages/ali-iotkit-v3.0.1/iotkit-embedded/src/dev_model/dm_utils.o
                0x00023e3c                dm_utils_json_object_item
 .text.iotx_cm_pub
                0x00023f00       0x7c ./packages/ali-iotkit-v3.0.1/iotkit-embedded/src/dev_model/iotx_cm.o
                0x00023f00                iotx_cm_pub
 .text._fd_is_valid
                0x00023f7c       0x60 ./packages/ali-iotkit-v3.0.1/iotkit-embedded/src/dev_model/iotx_cm.o
 .text.__NVIC_SetPriority
                0x00023fdc       0x54 ./libraries/HAL_Drivers/drv_common.o
 .text.__NVIC_SystemReset
                0x00024030       0x2c ./libraries/HAL_Drivers/drv_common.o
 .text.SysTick_Config
                0x0002405c       0x44 ./libraries/HAL_Drivers/drv_common.o
 .text.reboot   0x000240a0       0x10 ./libraries/HAL_Drivers/drv_common.o
 .text.rt_hw_systick_init
                0x000240b0       0x2c ./libraries/HAL_Drivers/drv_common.o
                0x000240b0                rt_hw_systick_init
 .text.SysTick_Handler
                0x000240dc       0x14 ./libraries/HAL_Drivers/drv_common.o
                0x000240dc                SysTick_Handler
 .text.rt_hw_board_init
                0x000240f0       0x34 ./libraries/HAL_Drivers/drv_common.o
                0x000240f0                rt_hw_board_init
 .text.R_BSP_WarmStart
                0x00024124       0x2c ./libraries/HAL_Drivers/drv_common.o
                0x00024124                R_BSP_WarmStart
 .text.R_BSP_PinRead
                0x00024150       0x38 ./libraries/HAL_Drivers/drv_gpio.o
 .text.R_BSP_PinWrite
                0x00024188       0x68 ./libraries/HAL_Drivers/drv_gpio.o
 .text.R_BSP_PinAccessEnable
                0x000241f0       0x60 ./libraries/HAL_Drivers/drv_gpio.o
 .text.R_BSP_PinAccessDisable
                0x00024250       0x68 ./libraries/HAL_Drivers/drv_gpio.o
 .text.ra_pin_get_irqx
                0x000242b8      0x280 ./libraries/HAL_Drivers/drv_gpio.o
 .text.ra_irq_tab_init
                0x00024538       0x7c ./libraries/HAL_Drivers/drv_gpio.o
 .text.ra_pin_map_init
                0x000245b4       0x28 ./libraries/HAL_Drivers/drv_gpio.o
 .text.ra_pin_mode
                0x000245dc       0xf8 ./libraries/HAL_Drivers/drv_gpio.o
 .text.ra_pin_write
                0x000246d4       0x3a ./libraries/HAL_Drivers/drv_gpio.o
 *fill*         0x0002470e        0x2 ff
 .text.ra_pin_read
                0x00024710       0x50 ./libraries/HAL_Drivers/drv_gpio.o
 .text.ra_pin_irq_enable
                0x00024760      0x120 ./libraries/HAL_Drivers/drv_gpio.o
 .text.ra_pin_attach_irq
                0x00024880      0x12c ./libraries/HAL_Drivers/drv_gpio.o
 .text.ra_pin_dettach_irq
                0x000249ac       0xb4 ./libraries/HAL_Drivers/drv_gpio.o
 .text.ra_pin_get
                0x00024a60       0xce ./libraries/HAL_Drivers/drv_gpio.o
 *fill*         0x00024b2e        0x2 ff
 .text.rt_hw_pin_init
                0x00024b30       0x24 ./libraries/HAL_Drivers/drv_gpio.o
                0x00024b30                rt_hw_pin_init
 .text.irq0_callback
                0x00024b54       0x34 ./libraries/HAL_Drivers/drv_gpio.o
                0x00024b54                irq0_callback
 .text.ra_uart_get_config
                0x00024b88       0xd8 ./libraries/HAL_Drivers/drv_usart_v2.o
 .text.ra_uart_configure
                0x00024c60       0x7c ./libraries/HAL_Drivers/drv_usart_v2.o
 .text.ra_uart_control
                0x00024cdc       0x1a ./libraries/HAL_Drivers/drv_usart_v2.o
 *fill*         0x00024cf6        0x2 ff
 .text.ra_uart_putc
                0x00024cf8       0x68 ./libraries/HAL_Drivers/drv_usart_v2.o
 .text.ra_uart_getc
                0x00024d60       0x16 ./libraries/HAL_Drivers/drv_usart_v2.o
 *fill*         0x00024d76        0x2 ff
 .text.user_uart0_callback
                0x00024d78       0x74 ./libraries/HAL_Drivers/drv_usart_v2.o
                0x00024d78                user_uart0_callback
 .text.user_uart1_callback
                0x00024dec       0x78 ./libraries/HAL_Drivers/drv_usart_v2.o
                0x00024dec                user_uart1_callback
 .text.user_uart3_callback
                0x00024e64       0x78 ./libraries/HAL_Drivers/drv_usart_v2.o
                0x00024e64                user_uart3_callback
 .text.user_uart7_callback
                0x00024edc       0x78 ./libraries/HAL_Drivers/drv_usart_v2.o
                0x00024edc                user_uart7_callback
 .text.rt_hw_usart_init
                0x00024f54       0xb0 ./libraries/HAL_Drivers/drv_usart_v2.o
                0x00024f54                rt_hw_usart_init
 *fill*         0x00025004        0x4 ff
 .text.nan      0x00025008       0x10 c:/rt-threadstudio/repo/extract/toolchain_support_packages/arm/gnu_tools_for_arm_embedded_processors/10.2.1/bin/../lib/gcc/arm-none-eabi/10.2.1/../../../../arm-none-eabi/lib/thumb/v8-m.main+fp/hard\libm.a(lib_a-s_nan.o)
                0x00025008                nan
 .text.atoi     0x00025018        0x8 c:/rt-threadstudio/repo/extract/toolchain_support_packages/arm/gnu_tools_for_arm_embedded_processors/10.2.1/bin/../lib/gcc/arm-none-eabi/10.2.1/../../../../arm-none-eabi/lib/thumb/v8-m.main+fp/hard\libc.a(lib_a-atoi.o)
                0x00025018                atoi
 .text.malloc   0x00025020       0x10 c:/rt-threadstudio/repo/extract/toolchain_support_packages/arm/gnu_tools_for_arm_embedded_processors/10.2.1/bin/../lib/gcc/arm-none-eabi/10.2.1/../../../../arm-none-eabi/lib/thumb/v8-m.main+fp/hard\libc.a(lib_a-malloc.o)
                0x00025020                malloc
 .text.free     0x00025030       0x10 c:/rt-threadstudio/repo/extract/toolchain_support_packages/arm/gnu_tools_for_arm_embedded_processors/10.2.1/bin/../lib/gcc/arm-none-eabi/10.2.1/../../../../arm-none-eabi/lib/thumb/v8-m.main+fp/hard\libc.a(lib_a-malloc.o)
                0x00025030                free
 .text.memcmp   0x00025040       0x60 c:/rt-threadstudio/repo/extract/toolchain_support_packages/arm/gnu_tools_for_arm_embedded_processors/10.2.1/bin/../lib/gcc/arm-none-eabi/10.2.1/../../../../arm-none-eabi/lib/thumb/v8-m.main+fp/hard\libc.a(lib_a-memcmp.o)
                0x00025040                memcmp
 .text          0x000250a0       0xec c:/rt-threadstudio/repo/extract/toolchain_support_packages/arm/gnu_tools_for_arm_embedded_processors/10.2.1/bin/../lib/gcc/arm-none-eabi/10.2.1/../../../../arm-none-eabi/lib/thumb/v8-m.main+fp/hard\libc.a(lib_a-memcpy.o)
                0x000250a0                memcpy
 .text.memset   0x0002518c       0xa4 c:/rt-threadstudio/repo/extract/toolchain_support_packages/arm/gnu_tools_for_arm_embedded_processors/10.2.1/bin/../lib/gcc/arm-none-eabi/10.2.1/../../../../arm-none-eabi/lib/thumb/v8-m.main+fp/hard\libc.a(lib_a-memset.o)
                0x0002518c                memset
 .text.realloc  0x00025230       0x10 c:/rt-threadstudio/repo/extract/toolchain_support_packages/arm/gnu_tools_for_arm_embedded_processors/10.2.1/bin/../lib/gcc/arm-none-eabi/10.2.1/../../../../arm-none-eabi/lib/thumb/v8-m.main+fp/hard\libc.a(lib_a-realloc.o)
                0x00025230                realloc
 .text.sprintf  0x00025240       0x44 c:/rt-threadstudio/repo/extract/toolchain_support_packages/arm/gnu_tools_for_arm_embedded_processors/10.2.1/bin/../lib/gcc/arm-none-eabi/10.2.1/../../../../arm-none-eabi/lib/thumb/v8-m.main+fp/hard\libc.a(lib_a-sprintf.o)
                0x00025240                sprintf
 .text.sscanf   0x00025284       0x58 c:/rt-threadstudio/repo/extract/toolchain_support_packages/arm/gnu_tools_for_arm_embedded_processors/10.2.1/bin/../lib/gcc/arm-none-eabi/10.2.1/../../../../arm-none-eabi/lib/thumb/v8-m.main+fp/hard\libc.a(lib_a-sscanf.o)
                0x00025284                sscanf
 .text.__seofread
                0x000252dc        0x4 c:/rt-threadstudio/repo/extract/toolchain_support_packages/arm/gnu_tools_for_arm_embedded_processors/10.2.1/bin/../lib/gcc/arm-none-eabi/10.2.1/../../../../arm-none-eabi/lib/thumb/v8-m.main+fp/hard\libc.a(lib_a-stdio.o)
                0x000252dc                __seofread
 .text.strchr   0x000252e0       0xcc c:/rt-threadstudio/repo/extract/toolchain_support_packages/arm/gnu_tools_for_arm_embedded_processors/10.2.1/bin/../lib/gcc/arm-none-eabi/10.2.1/../../../../arm-none-eabi/lib/thumb/v8-m.main+fp/hard\libc.a(lib_a-strchr.o)
                0x000252e0                strchr
 .text          0x000253ac      0x1bc c:/rt-threadstudio/repo/extract/toolchain_support_packages/arm/gnu_tools_for_arm_embedded_processors/10.2.1/bin/../lib/gcc/arm-none-eabi/10.2.1/../../../../arm-none-eabi/lib/thumb/v8-m.main+fp/hard\libc.a(lib_a-strcmp.o)
                0x000253ac                strcmp
 .text.strcpy   0x00025568       0xbc c:/rt-threadstudio/repo/extract/toolchain_support_packages/arm/gnu_tools_for_arm_embedded_processors/10.2.1/bin/../lib/gcc/arm-none-eabi/10.2.1/../../../../arm-none-eabi/lib/thumb/v8-m.main+fp/hard\libc.a(lib_a-strcpy.o)
                0x00025568                strcpy
 .text.strlen   0x00025624       0x5c c:/rt-threadstudio/repo/extract/toolchain_support_packages/arm/gnu_tools_for_arm_embedded_processors/10.2.1/bin/../lib/gcc/arm-none-eabi/10.2.1/../../../../arm-none-eabi/lib/thumb/v8-m.main+fp/hard\libc.a(lib_a-strlen-stub.o)
                0x00025624                strlen
 .text.strncmp  0x00025680       0x78 c:/rt-threadstudio/repo/extract/toolchain_support_packages/arm/gnu_tools_for_arm_embedded_processors/10.2.1/bin/../lib/gcc/arm-none-eabi/10.2.1/../../../../arm-none-eabi/lib/thumb/v8-m.main+fp/hard\libc.a(lib_a-strncmp.o)
                0x00025680                strncmp
 .text.strncpy  0x000256f8       0x64 c:/rt-threadstudio/repo/extract/toolchain_support_packages/arm/gnu_tools_for_arm_embedded_processors/10.2.1/bin/../lib/gcc/arm-none-eabi/10.2.1/../../../../arm-none-eabi/lib/thumb/v8-m.main+fp/hard\libc.a(lib_a-strncpy.o)
                0x000256f8                strncpy
 .text.strrchr  0x0002575c       0x24 c:/rt-threadstudio/repo/extract/toolchain_support_packages/arm/gnu_tools_for_arm_embedded_processors/10.2.1/bin/../lib/gcc/arm-none-eabi/10.2.1/../../../../arm-none-eabi/lib/thumb/v8-m.main+fp/hard\libc.a(lib_a-strrchr.o)
                0x0002575c                strrchr
 .text.two_way_long_needle
                0x00025780      0x2c0 c:/rt-threadstudio/repo/extract/toolchain_support_packages/arm/gnu_tools_for_arm_embedded_processors/10.2.1/bin/../lib/gcc/arm-none-eabi/10.2.1/../../../../arm-none-eabi/lib/thumb/v8-m.main+fp/hard\libc.a(lib_a-strstr.o)
 .text.strstr   0x00025a40      0x174 c:/rt-threadstudio/repo/extract/toolchain_support_packages/arm/gnu_tools_for_arm_embedded_processors/10.2.1/bin/../lib/gcc/arm-none-eabi/10.2.1/../../../../arm-none-eabi/lib/thumb/v8-m.main+fp/hard\libc.a(lib_a-strstr.o)
                0x00025a40                strstr
 *fill*         0x00025bb4        0x4 ff
 .text._strtod_l
                0x00025bb8      0xf30 c:/rt-threadstudio/repo/extract/toolchain_support_packages/arm/gnu_tools_for_arm_embedded_processors/10.2.1/bin/../lib/gcc/arm-none-eabi/10.2.1/../../../../arm-none-eabi/lib/thumb/v8-m.main+fp/hard\libc.a(lib_a-strtod.o)
                0x00025bb8                _strtod_l
 .text._strtod_r
                0x00026ae8        0xc c:/rt-threadstudio/repo/extract/toolchain_support_packages/arm/gnu_tools_for_arm_embedded_processors/10.2.1/bin/../lib/gcc/arm-none-eabi/10.2.1/../../../../arm-none-eabi/lib/thumb/v8-m.main+fp/hard\libc.a(lib_a-strtod.o)
                0x00026ae8                _strtod_r
 .text.strtod   0x00026af4       0x1c c:/rt-threadstudio/repo/extract/toolchain_support_packages/arm/gnu_tools_for_arm_embedded_processors/10.2.1/bin/../lib/gcc/arm-none-eabi/10.2.1/../../../../arm-none-eabi/lib/thumb/v8-m.main+fp/hard\libc.a(lib_a-strtod.o)
                0x00026af4                strtod
 .text._strtol_l.part.0
                0x00026b10      0x104 c:/rt-threadstudio/repo/extract/toolchain_support_packages/arm/gnu_tools_for_arm_embedded_processors/10.2.1/bin/../lib/gcc/arm-none-eabi/10.2.1/../../../../arm-none-eabi/lib/thumb/v8-m.main+fp/hard\libc.a(lib_a-strtol.o)
 .text._strtol_r
                0x00026c14       0x1c c:/rt-threadstudio/repo/extract/toolchain_support_packages/arm/gnu_tools_for_arm_embedded_processors/10.2.1/bin/../lib/gcc/arm-none-eabi/10.2.1/../../../../arm-none-eabi/lib/thumb/v8-m.main+fp/hard\libc.a(lib_a-strtol.o)
                0x00026c14                _strtol_r
 .text.strtol   0x00026c30       0x2c c:/rt-threadstudio/repo/extract/toolchain_support_packages/arm/gnu_tools_for_arm_embedded_processors/10.2.1/bin/../lib/gcc/arm-none-eabi/10.2.1/../../../../arm-none-eabi/lib/thumb/v8-m.main+fp/hard\libc.a(lib_a-strtol.o)
                0x00026c30                strtol
 *fill*         0x00026c5c        0x4 ff
 .text._svfprintf_r
                0x00026c60     0x1a8c c:/rt-threadstudio/repo/extract/toolchain_support_packages/arm/gnu_tools_for_arm_embedded_processors/10.2.1/bin/../lib/gcc/arm-none-eabi/10.2.1/../../../../arm-none-eabi/lib/thumb/v8-m.main+fp/hard\libc.a(lib_a-svfprintf.o)
                0x00026c60                _svfprintf_r
 .text.__ssvfscanf_r
                0x000286ec     0x16e4 c:/rt-threadstudio/repo/extract/toolchain_support_packages/arm/gnu_tools_for_arm_embedded_processors/10.2.1/bin/../lib/gcc/arm-none-eabi/10.2.1/../../../../arm-none-eabi/lib/thumb/v8-m.main+fp/hard\libc.a(lib_a-svfscanf.o)
                0x000286ec                __ssvfscanf_r
 .text.vsnprintf
                0x00029dd0       0x70 c:/rt-threadstudio/repo/extract/toolchain_support_packages/arm/gnu_tools_for_arm_embedded_processors/10.2.1/bin/../lib/gcc/arm-none-eabi/10.2.1/../../../../arm-none-eabi/lib/thumb/v8-m.main+fp/hard\libc.a(lib_a-vsnprintf.o)
                0x00029dd0                vsnprintf
 .text.vsscanf  0x00029e40       0x4c c:/rt-threadstudio/repo/extract/toolchain_support_packages/arm/gnu_tools_for_arm_embedded_processors/10.2.1/bin/../lib/gcc/arm-none-eabi/10.2.1/../../../../arm-none-eabi/lib/thumb/v8-m.main+fp/hard\libc.a(lib_a-vsscanf.o)
                0x00029e40                vsscanf
 .text.startup.register_fini
                0x00029e8c       0x14 c:/rt-threadstudio/repo/extract/toolchain_support_packages/arm/gnu_tools_for_arm_embedded_processors/10.2.1/bin/../lib/gcc/arm-none-eabi/10.2.1/../../../../arm-none-eabi/lib/thumb/v8-m.main+fp/hard\libc.a(lib_a-__call_atexit.o)
 .text.atexit   0x00029ea0        0xc c:/rt-threadstudio/repo/extract/toolchain_support_packages/arm/gnu_tools_for_arm_embedded_processors/10.2.1/bin/../lib/gcc/arm-none-eabi/10.2.1/../../../../arm-none-eabi/lib/thumb/v8-m.main+fp/hard\libc.a(lib_a-atexit.o)
                0x00029ea0                atexit
 .text.quorem   0x00029eac      0x134 c:/rt-threadstudio/repo/extract/toolchain_support_packages/arm/gnu_tools_for_arm_embedded_processors/10.2.1/bin/../lib/gcc/arm-none-eabi/10.2.1/../../../../arm-none-eabi/lib/thumb/v8-m.main+fp/hard\libc.a(lib_a-dtoa.o)
 .text._dtoa_r  0x00029fe0      0xf54 c:/rt-threadstudio/repo/extract/toolchain_support_packages/arm/gnu_tools_for_arm_embedded_processors/10.2.1/bin/../lib/gcc/arm-none-eabi/10.2.1/../../../../arm-none-eabi/lib/thumb/v8-m.main+fp/hard\libc.a(lib_a-dtoa.o)
                0x00029fe0                _dtoa_r
 .text.__libc_fini_array
                0x0002af34       0x2c c:/rt-threadstudio/repo/extract/toolchain_support_packages/arm/gnu_tools_for_arm_embedded_processors/10.2.1/bin/../lib/gcc/arm-none-eabi/10.2.1/../../../../arm-none-eabi/lib/thumb/v8-m.main+fp/hard\libc.a(lib_a-fini.o)
                0x0002af34                __libc_fini_array
 .text.rshift   0x0002af60       0xa8 c:/rt-threadstudio/repo/extract/toolchain_support_packages/arm/gnu_tools_for_arm_embedded_processors/10.2.1/bin/../lib/gcc/arm-none-eabi/10.2.1/../../../../arm-none-eabi/lib/thumb/v8-m.main+fp/hard\libc.a(lib_a-gdtoa-gethex.o)
 .text.__gethex
                0x0002b008      0x5f0 c:/rt-threadstudio/repo/extract/toolchain_support_packages/arm/gnu_tools_for_arm_embedded_processors/10.2.1/bin/../lib/gcc/arm-none-eabi/10.2.1/../../../../arm-none-eabi/lib/thumb/v8-m.main+fp/hard\libc.a(lib_a-gdtoa-gethex.o)
                0x0002b008                __gethex
 .text.__match  0x0002b5f8       0x34 c:/rt-threadstudio/repo/extract/toolchain_support_packages/arm/gnu_tools_for_arm_embedded_processors/10.2.1/bin/../lib/gcc/arm-none-eabi/10.2.1/../../../../arm-none-eabi/lib/thumb/v8-m.main+fp/hard\libc.a(lib_a-gdtoa-hexnan.o)
                0x0002b5f8                __match
 .text.__hexnan
                0x0002b62c      0x1b8 c:/rt-threadstudio/repo/extract/toolchain_support_packages/arm/gnu_tools_for_arm_embedded_processors/10.2.1/bin/../lib/gcc/arm-none-eabi/10.2.1/../../../../arm-none-eabi/lib/thumb/v8-m.main+fp/hard\libc.a(lib_a-gdtoa-hexnan.o)
                0x0002b62c                __hexnan
 .text.iswspace
